{
  "contractName": "Insurance",
  "abi": [
    {
      "constant": true,
      "inputs": [],
      "name": "CLAIM_TOKEN_RATIO",
      "outputs": [
        {
          "name": "",
          "type": "uint256"
        }
      ],
      "payable": false,
      "stateMutability": "view",
      "type": "function"
    },
    {
      "constant": true,
      "inputs": [],
      "name": "PREMIUM_RATE",
      "outputs": [
        {
          "name": "",
          "type": "uint256"
        }
      ],
      "payable": false,
      "stateMutability": "view",
      "type": "function"
    },
    {
      "constant": true,
      "inputs": [],
      "name": "TOKEN_REWARD",
      "outputs": [
        {
          "name": "",
          "type": "uint256"
        }
      ],
      "payable": false,
      "stateMutability": "view",
      "type": "function"
    },
    {
      "constant": true,
      "inputs": [],
      "name": "INSURANCE_RETENTION",
      "outputs": [
        {
          "name": "",
          "type": "uint256"
        }
      ],
      "payable": false,
      "stateMutability": "view",
      "type": "function"
    },
    {
      "inputs": [
        {
          "name": "_shopAddress",
          "type": "address"
        },
        {
          "name": "_name",
          "type": "string"
        },
        {
          "name": "_tokenSymbol",
          "type": "string"
        }
      ],
      "payable": false,
      "stateMutability": "nonpayable",
      "type": "constructor"
    },
    {
      "payable": true,
      "stateMutability": "payable",
      "type": "fallback"
    },
    {
      "anonymous": false,
      "inputs": [
        {
          "indexed": true,
          "name": "newTokenAddress",
          "type": "address"
        }
      ],
      "name": "TokenCreated",
      "type": "event"
    },
    {
      "anonymous": false,
      "inputs": [
        {
          "indexed": false,
          "name": "tokenReward",
          "type": "uint256"
        }
      ],
      "name": "TokenRewardSet",
      "type": "event"
    },
    {
      "anonymous": false,
      "inputs": [
        {
          "indexed": true,
          "name": "insuredAddress",
          "type": "address"
        },
        {
          "indexed": false,
          "name": "amount",
          "type": "uint256"
        }
      ],
      "name": "TokenPaid",
      "type": "event"
    },
    {
      "anonymous": false,
      "inputs": [
        {
          "indexed": false,
          "name": "count",
          "type": "uint256"
        },
        {
          "indexed": false,
          "name": "totalAmount",
          "type": "uint256"
        }
      ],
      "name": "ClaimsRepaid",
      "type": "event"
    },
    {
      "anonymous": false,
      "inputs": [
        {
          "indexed": true,
          "name": "from",
          "type": "address"
        },
        {
          "indexed": false,
          "name": "nbTokens",
          "type": "uint256"
        },
        {
          "indexed": false,
          "name": "claimsInvolved",
          "type": "uint256"
        }
      ],
      "name": "TokensClaimExchange",
      "type": "event"
    },
    {
      "anonymous": false,
      "inputs": [
        {
          "indexed": true,
          "name": "sender",
          "type": "address"
        },
        {
          "indexed": false,
          "name": "value",
          "type": "uint256"
        }
      ],
      "name": "Deposit",
      "type": "event"
    },
    {
      "anonymous": false,
      "inputs": [
        {
          "indexed": true,
          "name": "_riderAddress",
          "type": "address"
        },
        {
          "indexed": false,
          "name": "_rewardAmount",
          "type": "uint256"
        }
      ],
      "name": "TokenApproved",
      "type": "event"
    },
    {
      "constant": false,
      "inputs": [],
      "name": "underwriteInsurance",
      "outputs": [
        {
          "name": "success",
          "type": "bool"
        }
      ],
      "payable": true,
      "stateMutability": "payable",
      "type": "function"
    },
    {
      "constant": false,
      "inputs": [],
      "name": "regularizePayments",
      "outputs": [
        {
          "name": "success",
          "type": "bool"
        }
      ],
      "payable": true,
      "stateMutability": "payable",
      "type": "function"
    },
    {
      "constant": true,
      "inputs": [],
      "name": "getPendingPremia",
      "outputs": [
        {
          "name": "pendingPremia",
          "type": "uint256"
        }
      ],
      "payable": false,
      "stateMutability": "view",
      "type": "function"
    },
    {
      "constant": true,
      "inputs": [
        {
          "name": "insuredAddress",
          "type": "address"
        }
      ],
      "name": "viewInsuranceStatus",
      "outputs": [
        {
          "name": "insuredListPointer",
          "type": "uint256"
        },
        {
          "name": "totalPremiumPaid",
          "type": "uint256"
        },
        {
          "name": "totalRides",
          "type": "uint256"
        },
        {
          "name": "grossClaims",
          "type": "uint256"
        },
        {
          "name": "netClaims",
          "type": "uint256"
        },
        {
          "name": "grossTokens",
          "type": "uint256"
        },
        {
          "name": "nbTokensOwned",
          "type": "uint256"
        },
        {
          "name": "nbPaybacks",
          "type": "uint256"
        },
        {
          "name": "paybackAmount",
          "type": "uint256"
        }
      ],
      "payable": false,
      "stateMutability": "view",
      "type": "function"
    },
    {
      "constant": false,
      "inputs": [
        {
          "name": "nbTokens",
          "type": "uint256"
        }
      ],
      "name": "tokenClaimReducer",
      "outputs": [
        {
          "name": "success",
          "type": "bool"
        }
      ],
      "payable": false,
      "stateMutability": "nonpayable",
      "type": "function"
    }
  ],
  "bytecode": "0x60806040523480156200001157600080fd5b50604051620034bb380380620034bb833981018060405260608110156200003757600080fd5b810190808051906020019092919080516401000000008111156200005a57600080fd5b828101905060208101848111156200007157600080fd5b81518560018202830111640100000000821117156200008f57600080fd5b50509291906020018051640100000000811115620000ac57600080fd5b82810190506020810184811115620000c357600080fd5b8151856001820283011164010000000082111715620000e157600080fd5b5050929190505050336000806101000a81548173ffffffffffffffffffffffffffffffffffffffff021916908373ffffffffffffffffffffffffffffffffffffffff1602179055506005600781905550662386f26fc1000060018190555067016345785d8a000060028190555081816200015a62000359565b808060200180602001838103835285818151815260200191508051906020019080838360005b838110156200019d57808201518184015260208101905062000180565b50505050905090810190601f168015620001cb5780820380516001836020036101000a031916815260200191505b50838103825284818151815260200191508051906020019080838360005b8381101562000206578082015181840152602081019050620001e9565b50505050905090810190601f168015620002345780820380516001836020036101000a031916815260200191505b50945050505050604051809103906000f08015801562000258573d6000803e3d6000fd5b50600960006101000a81548173ffffffffffffffffffffffffffffffffffffffff021916908373ffffffffffffffffffffffffffffffffffffffff160217905550600060019050620002b98162000304640100000000026401000000009004565b83600860006101000a81548173ffffffffffffffffffffffffffffffffffffffff021916908373ffffffffffffffffffffffffffffffffffffffff160217905550505050506200036a565b806000811115156200031557600080fd5b816006819055507fe69c04680592296855fcdd3a9ba119cc285c237feb064b473d5891f5b7541ad26006546040518082815260200191505060405180910390a15050565b6040516117ad8062001d0e83390190565b611994806200037a6000396000f3fe608060405260043610610099576000357c0100000000000000000000000000000000000000000000000000000000900463ffffffff16806301e3aa2a146100f35780631cb27ba41461011e57806330442d49146101495780636968a1a6146101e6578063762b5ec914610239578063822cfd171461025b578063d4ba89021461027d578063ee1ed6de146102a8578063efebac8e146102d3575b60003411156100f1573373ffffffffffffffffffffffffffffffffffffffff167fe1fffcc4923d04b559f4d29a8bfc6cda04eb5b0d3c460751c2402c5c5cc9109c346040518082815260200191505060405180910390a25b005b3480156100ff57600080fd5b506101086102fe565b6040518082815260200191505060405180910390f35b34801561012a57600080fd5b50610133610303565b6040518082815260200191505060405180910390f35b34801561015557600080fd5b506101986004803603602081101561016c57600080fd5b81019080803573ffffffffffffffffffffffffffffffffffffffff16906020019092919050505061030e565b604051808a8152602001898152602001888152602001878152602001868152602001858152602001848152602001838152602001828152602001995050505050505050505060405180910390f35b3480156101f257600080fd5b5061021f6004803603602081101561020957600080fd5b810190808035906020019092919050505061041a565b604051808215151515815260200191505060405180910390f35b6102416106b2565b604051808215151515815260200191505060405180910390f35b610263610c03565b604051808215151515815260200191505060405180910390f35b34801561028957600080fd5b50610292610e69565b6040518082815260200191505060405180910390f35b3480156102b457600080fd5b506102bd610e6e565b6040518082815260200191505060405180910390f35b3480156102df57600080fd5b506102e8610e9c565b6040518082815260200191505060405180910390f35b600581565b662386f26fc1000081565b600080600080600080600080600061032461191b565b600560008c73ffffffffffffffffffffffffffffffffffffffff1673ffffffffffffffffffffffffffffffffffffffff168152602001908152602001600020610120604051908101604052908160008201548152602001600182015481526020016002820154815260200160038201548152602001600482015481526020016005820154815260200160068201548152602001600782015481526020016008820154815250509050806000015181602001518260400151836060015184608001518560a001518660c001518760e00151886101000151995099509950995099509950995099509950509193959799909294969850565b60003360011515600460008373ffffffffffffffffffffffffffffffffffffffff1673ffffffffffffffffffffffffffffffffffffffff16815260200190815260200160002060009054906101000a900460ff16151514151561047c57600080fd5b6000600560003373ffffffffffffffffffffffffffffffffffffffff1673ffffffffffffffffffffffffffffffffffffffff1681526020019081526020016000209050838160060154101515156104d257600080fd5b600584101515156104e257600080fd5b60006104f8600586610ea890919063ffffffff16565b90506000610510600587610ed290919063ffffffff16565b905060006105278288610ef790919063ffffffff16565b9050600960009054906101000a900473ffffffffffffffffffffffffffffffffffffffff1673ffffffffffffffffffffffffffffffffffffffff16639dc29fac33836040518363ffffffff167c0100000000000000000000000000000000000000000000000000000000028152600401808373ffffffffffffffffffffffffffffffffffffffff1673ffffffffffffffffffffffffffffffffffffffff16815260200182815260200192505050602060405180830381600087803b1580156105ee57600080fd5b505af1158015610602573d6000803e3d6000fd5b505050506040513d602081101561061857600080fd5b8101908080519060200190929190505050508084600601600082825403925050819055508284600401600082825403925050819055503373ffffffffffffffffffffffffffffffffffffffff167fa0defc46c92ff3f4a6c3b1a9fe1218139c5267276d9071938792191e930f53b38885604051808381526020018281526020019250505060405180910390a2600195505050505050919050565b60003360011515600460008373ffffffffffffffffffffffffffffffffffffffff1673ffffffffffffffffffffffffffffffffffffffff16815260200190815260200160002060009054906101000a900460ff16151514151561071457600080fd5b600061071e610f19565b90506000811415610733576001925050610bff565b600061073d610e6e565b9050803414151561074d57600080fd5b610755611107565b61075e81611172565b60006107686111e2565b905082811115151561077957600080fd5b6000811415156108c25761078c816114b8565b600061086a61085b600860009054906101000a900473ffffffffffffffffffffffffffffffffffffffff1673ffffffffffffffffffffffffffffffffffffffff1663467519b86040518163ffffffff167c010000000000000000000000000000000000000000000000000000000002815260040160206040518083038186803b15801561081857600080fd5b505afa15801561082c573d6000803e3d6000fd5b505050506040513d602081101561084257600080fd5b810190808051906020019092919050505060025461153a565b8361155790919063ffffffff16565b90506000811415156108c0577f8dee066a804209a6ea3a62bbba37f645f079114114b4723551a76a7174cb5dc08282604051808381526020018281526020019250505060405180910390a16108bf8183611595565b5b505b6000600560003373ffffffffffffffffffffffffffffffffffffffff1673ffffffffffffffffffffffffffffffffffffffff16815260200190815260200160002090506000816007015482600301540314151561091e57600080fd5b600061092933611618565b9050600860009054906101000a900473ffffffffffffffffffffffffffffffffffffffff1673ffffffffffffffffffffffffffffffffffffffff1663dc051b7b336040518263ffffffff167c0100000000000000000000000000000000000000000000000000000000028152600401808273ffffffffffffffffffffffffffffffffffffffff1673ffffffffffffffffffffffffffffffffffffffff16815260200191505060206040518083038186803b1580156109e657600080fd5b505afa1580156109fa573d6000803e3d6000fd5b505050506040513d6020811015610a1057600080fd5b810190808051906020019092919050505081836005015401141515610a3457600080fd5b3373ffffffffffffffffffffffffffffffffffffffff167fab1e93ce08cc196e636fe318c052f82163b40e499a90a0fdb38912ecd5beae11826040518082815260200191505060405180910390a2600960009054906101000a900473ffffffffffffffffffffffffffffffffffffffff1673ffffffffffffffffffffffffffffffffffffffff166340c10f1933836040518363ffffffff167c0100000000000000000000000000000000000000000000000000000000028152600401808373ffffffffffffffffffffffffffffffffffffffff1673ffffffffffffffffffffffffffffffffffffffff16815260200182815260200192505050602060405180830381600087803b158015610b4757600080fd5b505af1158015610b5b573d6000803e3d6000fd5b505050506040513d6020811015610b7157600080fd5b8101908080519060200190929190505050508082600501600082825401925050819055508082600601600082825401925050819055503373ffffffffffffffffffffffffffffffffffffffff167feeb3082d4b88d6583484c604325152864741e5e435119ca06f26d82f88dcc0e1826040518082815260200191505060405180910390a26001965050505050505b5090565b6000801515600460003373ffffffffffffffffffffffffffffffffffffffff1673ffffffffffffffffffffffffffffffffffffffff16815260200190815260200160002060009054906101000a900460ff161515141515610c6357600080fd5b60015434141515610c7357600080fd5b61012060405190810160405280600160033390806001815401808255809150509060018203906000526020600020016000909192909190916101000a81548173ffffffffffffffffffffffffffffffffffffffff021916908373ffffffffffffffffffffffffffffffffffffffff1602179055500381526020013481526020016000815260200160008152602001600081526020016000815260200160008152602001600081526020016000815250600560003373ffffffffffffffffffffffffffffffffffffffff1673ffffffffffffffffffffffffffffffffffffffff168152602001908152602001600020600082015181600001556020820151816001015560408201518160020155606082015181600301556080820151816004015560a0820151816005015560c0820151816006015560e0820151816007015561010082015181600801559050506001600460003373ffffffffffffffffffffffffffffffffffffffff1673ffffffffffffffffffffffffffffffffffffffff16815260200190815260200160002060006101000a81548160ff021916908315150217905550600460003373ffffffffffffffffffffffffffffffffffffffff1673ffffffffffffffffffffffffffffffffffffffff16815260200190815260200160002060009054906101000a900460ff16905090565b600181565b600080610e79610f19565b9050610e96610e87336117e4565b8261155790919063ffffffff16565b91505090565b67016345785d8a000081565b60008082111515610eb857600080fd5b60008284811515610ec557fe5b0490508091505092915050565b6000808214151515610ee357600080fd5b8183811515610eee57fe5b06905092915050565b6000828211151515610f0857600080fd5b600082840390508091505092915050565b600080339050610f2761191b565b600560008373ffffffffffffffffffffffffffffffffffffffff1673ffffffffffffffffffffffffffffffffffffffff1681526020019081526020016000206101206040519081016040529081600082015481526020016001820154815260200160028201548152602001600382015481526020016004820154815260200160058201548152602001600682015481526020016007820154815260200160088201548152505090506000600860009054906101000a900473ffffffffffffffffffffffffffffffffffffffff1673ffffffffffffffffffffffffffffffffffffffff166343a8980b846040518263ffffffff167c0100000000000000000000000000000000000000000000000000000000028152600401808273ffffffffffffffffffffffffffffffffffffffff1673ffffffffffffffffffffffffffffffffffffffff16815260200191505060206040518083038186803b15801561108c57600080fd5b505afa1580156110a0573d6000803e3d6000fd5b505050506040513d60208110156110b657600080fd5b8101908080519060200190929190505050905081604001518111156110fc5760006110ee836040015183610ef790919063ffffffff16565b905080945050505050611104565b600093505050505b90565b60003390506000611116610f19565b90506000600560008473ffffffffffffffffffffffffffffffffffffffff1673ffffffffffffffffffffffffffffffffffffffff1681526020019081526020016000209050818160020160008282540192505081905550505050565b8060008111151561118257600080fd5b60003390506000600560008373ffffffffffffffffffffffffffffffffffffffff1673ffffffffffffffffffffffffffffffffffffffff168152602001908152602001600020905083816001016000828254019250508190555050505050565b6000803390506111f061191b565b600560008373ffffffffffffffffffffffffffffffffffffffff1673ffffffffffffffffffffffffffffffffffffffff1681526020019081526020016000206101206040519081016040529081600082015481526020016001820154815260200160028201548152602001600382015481526020016004820154815260200160058201548152602001600682015481526020016007820154815260200160088201548152505090506000611497600860009054906101000a900473ffffffffffffffffffffffffffffffffffffffff1673ffffffffffffffffffffffffffffffffffffffff1663dc051b7b856040518263ffffffff167c0100000000000000000000000000000000000000000000000000000000028152600401808273ffffffffffffffffffffffffffffffffffffffff1673ffffffffffffffffffffffffffffffffffffffff16815260200191505060206040518083038186803b15801561135857600080fd5b505afa15801561136c573d6000803e3d6000fd5b505050506040513d602081101561138257600080fd5b8101908080519060200190929190505050600860009054906101000a900473ffffffffffffffffffffffffffffffffffffffff1673ffffffffffffffffffffffffffffffffffffffff166343a8980b866040518263ffffffff167c0100000000000000000000000000000000000000000000000000000000028152600401808273ffffffffffffffffffffffffffffffffffffffff1673ffffffffffffffffffffffffffffffffffffffff16815260200191505060206040518083038186803b15801561144e57600080fd5b505afa158015611462573d6000803e3d6000fd5b505050506040513d602081101561147857600080fd5b8101908080519060200190929190505050610ef790919063ffffffff16565b90506114b08260e0015182610ef790919063ffffffff16565b935050505090565b806000811115156114c857600080fd5b60003390506000600560008373ffffffffffffffffffffffffffffffffffffffff1673ffffffffffffffffffffffffffffffffffffffff168152602001908152602001600020905083816003016000828254019250508190555083816004016000828254019250508190555050505050565b600061154f8284610ef790919063ffffffff16565b905092915050565b60008083141561156a576000905061158f565b6000828402905082848281151561157d57fe5b0414151561158a57600080fd5b809150505b92915050565b816000811115156115a557600080fd5b60003390506000600560008373ffffffffffffffffffffffffffffffffffffffff1673ffffffffffffffffffffffffffffffffffffffff16815260200190815260200160002090508381600701600082825401925050819055508481600801600082825401925050819055505050505050565b600061162261191b565b600560008473ffffffffffffffffffffffffffffffffffffffff1673ffffffffffffffffffffffffffffffffffffffff1681526020019081526020016000206101206040519081016040529081600082015481526020016001820154815260200160028201548152602001600382015481526020016004820154815260200160058201548152602001600682015481526020016007820154815260200160088201548152505090506000600860009054906101000a900473ffffffffffffffffffffffffffffffffffffffff1673ffffffffffffffffffffffffffffffffffffffff1663dc051b7b856040518263ffffffff167c0100000000000000000000000000000000000000000000000000000000028152600401808273ffffffffffffffffffffffffffffffffffffffff1673ffffffffffffffffffffffffffffffffffffffff16815260200191505060206040518083038186803b15801561178757600080fd5b505afa15801561179b573d6000803e3d6000fd5b505050506040513d60208110156117b157600080fd5b810190808051906020019092919050505090506117db8260a0015182610ef790919063ffffffff16565b92505050919050565b60008160011515600460008373ffffffffffffffffffffffffffffffffffffffff1673ffffffffffffffffffffffffffffffffffffffff16815260200190815260200160002060009054906101000a900460ff16151514151561184657600080fd5b61184e61191b565b600560008573ffffffffffffffffffffffffffffffffffffffff1673ffffffffffffffffffffffffffffffffffffffff168152602001908152602001600020610120604051908101604052908160008201548152602001600182015481526020016002820154815260200160038201548152602001600482015481526020016005820154815260200160068201548152602001600782015481526020016008820154815250509050611912600154600183608001510161155790919063ffffffff16565b92505050919050565b61012060405190810160405280600081526020016000815260200160008152602001600081526020016000815260200160008152602001600081526020016000815260200160008152509056fea165627a7a723058206b7fc11678ddf8ed969a607e1100e05d51c5718f842b84959f2732016b64f76c002960806040523480156200001157600080fd5b50604051620017ad380380620017ad833981018060405260408110156200003757600080fd5b8101908080516401000000008111156200005057600080fd5b828101905060208101848111156200006757600080fd5b81518560018202830111640100000000821117156200008557600080fd5b50509291906020018051640100000000811115620000a257600080fd5b82810190506020810184811115620000b957600080fd5b8151856001820283011164010000000082111715620000d757600080fd5b5050929190505050818160008260039080519060200190620000fb9291906200017c565b508160049080519060200190620001149291906200017c565b5080600560006101000a81548160ff021916908360ff16021790555050505033600560016101000a81548173ffffffffffffffffffffffffffffffffffffffff021916908373ffffffffffffffffffffffffffffffffffffffff16021790555050506200022b565b828054600181600116156101000203166002900490600052602060002090601f016020900481019282601f10620001bf57805160ff1916838001178555620001f0565b82800160010185558215620001f0579182015b82811115620001ef578251825591602001919060010190620001d2565b5b509050620001ff919062000203565b5090565b6200022891905b80821115620002245760008160009055506001016200020a565b5090565b90565b611572806200023b6000396000f3fe6080604052600436106100c5576000357c0100000000000000000000000000000000000000000000000000000000900463ffffffff16806306fdde03146100ca578063095ea7b31461015a57806318160ddd146101cd57806323b872dd146101f8578063313ce5671461028b57806339509351146102bc57806340c10f191461032f57806370a08231146103a257806395d89b41146104075780639dc29fac14610497578063a457c2d71461050a578063a9059cbb1461057d578063dd62ed3e146105f0575b600080fd5b3480156100d657600080fd5b506100df610675565b6040518080602001828103825283818151815260200191508051906020019080838360005b8381101561011f578082015181840152602081019050610104565b50505050905090810190601f16801561014c5780820380516001836020036101000a031916815260200191505b509250505060405180910390f35b34801561016657600080fd5b506101b36004803603604081101561017d57600080fd5b81019080803573ffffffffffffffffffffffffffffffffffffffff16906020019092919080359060200190929190505050610717565b604051808215151515815260200191505060405180910390f35b3480156101d957600080fd5b506101e2610844565b6040518082815260200191505060405180910390f35b34801561020457600080fd5b506102716004803603606081101561021b57600080fd5b81019080803573ffffffffffffffffffffffffffffffffffffffff169060200190929190803573ffffffffffffffffffffffffffffffffffffffff1690602001909291908035906020019092919050505061084e565b604051808215151515815260200191505060405180910390f35b34801561029757600080fd5b506102a0610a56565b604051808260ff1660ff16815260200191505060405180910390f35b3480156102c857600080fd5b50610315600480360360408110156102df57600080fd5b81019080803573ffffffffffffffffffffffffffffffffffffffff16906020019092919080359060200190929190505050610a6d565b604051808215151515815260200191505060405180910390f35b34801561033b57600080fd5b506103886004803603604081101561035257600080fd5b81019080803573ffffffffffffffffffffffffffffffffffffffff16906020019092919080359060200190929190505050610ca4565b604051808215151515815260200191505060405180910390f35b3480156103ae57600080fd5b506103f1600480360360208110156103c557600080fd5b81019080803573ffffffffffffffffffffffffffffffffffffffff169060200190929190505050610cba565b6040518082815260200191505060405180910390f35b34801561041357600080fd5b5061041c610d02565b6040518080602001828103825283818151815260200191508051906020019080838360005b8381101561045c578082015181840152602081019050610441565b50505050905090810190601f1680156104895780820380516001836020036101000a031916815260200191505b509250505060405180910390f35b3480156104a357600080fd5b506104f0600480360360408110156104ba57600080fd5b81019080803573ffffffffffffffffffffffffffffffffffffffff16906020019092919080359060200190929190505050610da4565b604051808215151515815260200191505060405180910390f35b34801561051657600080fd5b506105636004803603604081101561052d57600080fd5b81019080803573ffffffffffffffffffffffffffffffffffffffff16906020019092919080359060200190929190505050610dba565b604051808215151515815260200191505060405180910390f35b34801561058957600080fd5b506105d6600480360360408110156105a057600080fd5b81019080803573ffffffffffffffffffffffffffffffffffffffff16906020019092919080359060200190929190505050610ff1565b604051808215151515815260200191505060405180910390f35b3480156105fc57600080fd5b5061065f6004803603604081101561061357600080fd5b81019080803573ffffffffffffffffffffffffffffffffffffffff169060200190929190803573ffffffffffffffffffffffffffffffffffffffff169060200190929190505050611008565b6040518082815260200191505060405180910390f35b606060038054600181600116156101000203166002900480601f01602080910402602001604051908101604052809291908181526020018280546001816001161561010002031660029004801561070d5780601f106106e25761010080835404028352916020019161070d565b820191906000526020600020905b8154815290600101906020018083116106f057829003601f168201915b5050505050905090565b60008073ffffffffffffffffffffffffffffffffffffffff168373ffffffffffffffffffffffffffffffffffffffff161415151561075457600080fd5b81600160003373ffffffffffffffffffffffffffffffffffffffff1673ffffffffffffffffffffffffffffffffffffffff16815260200190815260200160002060008573ffffffffffffffffffffffffffffffffffffffff1673ffffffffffffffffffffffffffffffffffffffff168152602001908152602001600020819055508273ffffffffffffffffffffffffffffffffffffffff163373ffffffffffffffffffffffffffffffffffffffff167f8c5be1e5ebec7d5bd14f71427d1e84f3dd0314c0f7b2291e5b200ac8c7c3b925846040518082815260200191505060405180910390a36001905092915050565b6000600254905090565b60006108df82600160008773ffffffffffffffffffffffffffffffffffffffff1673ffffffffffffffffffffffffffffffffffffffff16815260200190815260200160002060003373ffffffffffffffffffffffffffffffffffffffff1673ffffffffffffffffffffffffffffffffffffffff1681526020019081526020016000205461108f90919063ffffffff16565b600160008673ffffffffffffffffffffffffffffffffffffffff1673ffffffffffffffffffffffffffffffffffffffff16815260200190815260200160002060003373ffffffffffffffffffffffffffffffffffffffff1673ffffffffffffffffffffffffffffffffffffffff1681526020019081526020016000208190555061096a8484846110b1565b3373ffffffffffffffffffffffffffffffffffffffff168473ffffffffffffffffffffffffffffffffffffffff167f8c5be1e5ebec7d5bd14f71427d1e84f3dd0314c0f7b2291e5b200ac8c7c3b925600160008873ffffffffffffffffffffffffffffffffffffffff1673ffffffffffffffffffffffffffffffffffffffff16815260200190815260200160002060003373ffffffffffffffffffffffffffffffffffffffff1673ffffffffffffffffffffffffffffffffffffffff168152602001908152602001600020546040518082815260200191505060405180910390a3600190509392505050565b6000600560009054906101000a900460ff16905090565b60008073ffffffffffffffffffffffffffffffffffffffff168373ffffffffffffffffffffffffffffffffffffffff1614151515610aaa57600080fd5b610b3982600160003373ffffffffffffffffffffffffffffffffffffffff1673ffffffffffffffffffffffffffffffffffffffff16815260200190815260200160002060008673ffffffffffffffffffffffffffffffffffffffff1673ffffffffffffffffffffffffffffffffffffffff1681526020019081526020016000205461127d90919063ffffffff16565b600160003373ffffffffffffffffffffffffffffffffffffffff1673ffffffffffffffffffffffffffffffffffffffff16815260200190815260200160002060008573ffffffffffffffffffffffffffffffffffffffff1673ffffffffffffffffffffffffffffffffffffffff168152602001908152602001600020819055508273ffffffffffffffffffffffffffffffffffffffff163373ffffffffffffffffffffffffffffffffffffffff167f8c5be1e5ebec7d5bd14f71427d1e84f3dd0314c0f7b2291e5b200ac8c7c3b925600160003373ffffffffffffffffffffffffffffffffffffffff1673ffffffffffffffffffffffffffffffffffffffff16815260200190815260200160002060008773ffffffffffffffffffffffffffffffffffffffff1673ffffffffffffffffffffffffffffffffffffffff168152602001908152602001600020546040518082815260200191505060405180910390a36001905092915050565b6000610cb0838361129e565b6001905092915050565b60008060008373ffffffffffffffffffffffffffffffffffffffff1673ffffffffffffffffffffffffffffffffffffffff168152602001908152602001600020549050919050565b606060048054600181600116156101000203166002900480601f016020809104026020016040519081016040528092919081815260200182805460018160011615610100020316600290048015610d9a5780601f10610d6f57610100808354040283529160200191610d9a565b820191906000526020600020905b815481529060010190602001808311610d7d57829003601f168201915b5050505050905090565b6000610db083836113f2565b6001905092915050565b60008073ffffffffffffffffffffffffffffffffffffffff168373ffffffffffffffffffffffffffffffffffffffff1614151515610df757600080fd5b610e8682600160003373ffffffffffffffffffffffffffffffffffffffff1673ffffffffffffffffffffffffffffffffffffffff16815260200190815260200160002060008673ffffffffffffffffffffffffffffffffffffffff1673ffffffffffffffffffffffffffffffffffffffff1681526020019081526020016000205461108f90919063ffffffff16565b600160003373ffffffffffffffffffffffffffffffffffffffff1673ffffffffffffffffffffffffffffffffffffffff16815260200190815260200160002060008573ffffffffffffffffffffffffffffffffffffffff1673ffffffffffffffffffffffffffffffffffffffff168152602001908152602001600020819055508273ffffffffffffffffffffffffffffffffffffffff163373ffffffffffffffffffffffffffffffffffffffff167f8c5be1e5ebec7d5bd14f71427d1e84f3dd0314c0f7b2291e5b200ac8c7c3b925600160003373ffffffffffffffffffffffffffffffffffffffff1673ffffffffffffffffffffffffffffffffffffffff16815260200190815260200160002060008773ffffffffffffffffffffffffffffffffffffffff1673ffffffffffffffffffffffffffffffffffffffff168152602001908152602001600020546040518082815260200191505060405180910390a36001905092915050565b6000610ffe3384846110b1565b6001905092915050565b6000600160008473ffffffffffffffffffffffffffffffffffffffff1673ffffffffffffffffffffffffffffffffffffffff16815260200190815260200160002060008373ffffffffffffffffffffffffffffffffffffffff1673ffffffffffffffffffffffffffffffffffffffff16815260200190815260200160002054905092915050565b60008282111515156110a057600080fd5b600082840390508091505092915050565b600073ffffffffffffffffffffffffffffffffffffffff168273ffffffffffffffffffffffffffffffffffffffff16141515156110ed57600080fd5b61113e816000808673ffffffffffffffffffffffffffffffffffffffff1673ffffffffffffffffffffffffffffffffffffffff1681526020019081526020016000205461108f90919063ffffffff16565b6000808573ffffffffffffffffffffffffffffffffffffffff1673ffffffffffffffffffffffffffffffffffffffff168152602001908152602001600020819055506111d1816000808573ffffffffffffffffffffffffffffffffffffffff1673ffffffffffffffffffffffffffffffffffffffff1681526020019081526020016000205461127d90919063ffffffff16565b6000808473ffffffffffffffffffffffffffffffffffffffff1673ffffffffffffffffffffffffffffffffffffffff168152602001908152602001600020819055508173ffffffffffffffffffffffffffffffffffffffff168373ffffffffffffffffffffffffffffffffffffffff167fddf252ad1be2c89b69c2b068fc378daa952ba7f163c4a11628f55a4df523b3ef836040518082815260200191505060405180910390a3505050565b600080828401905083811015151561129457600080fd5b8091505092915050565b600073ffffffffffffffffffffffffffffffffffffffff168273ffffffffffffffffffffffffffffffffffffffff16141515156112da57600080fd5b6112ef8160025461127d90919063ffffffff16565b600281905550611346816000808573ffffffffffffffffffffffffffffffffffffffff1673ffffffffffffffffffffffffffffffffffffffff1681526020019081526020016000205461127d90919063ffffffff16565b6000808473ffffffffffffffffffffffffffffffffffffffff1673ffffffffffffffffffffffffffffffffffffffff168152602001908152602001600020819055508173ffffffffffffffffffffffffffffffffffffffff16600073ffffffffffffffffffffffffffffffffffffffff167fddf252ad1be2c89b69c2b068fc378daa952ba7f163c4a11628f55a4df523b3ef836040518082815260200191505060405180910390a35050565b600073ffffffffffffffffffffffffffffffffffffffff168273ffffffffffffffffffffffffffffffffffffffff161415151561142e57600080fd5b6114438160025461108f90919063ffffffff16565b60028190555061149a816000808573ffffffffffffffffffffffffffffffffffffffff1673ffffffffffffffffffffffffffffffffffffffff1681526020019081526020016000205461108f90919063ffffffff16565b6000808473ffffffffffffffffffffffffffffffffffffffff1673ffffffffffffffffffffffffffffffffffffffff16815260200190815260200160002081905550600073ffffffffffffffffffffffffffffffffffffffff168273ffffffffffffffffffffffffffffffffffffffff167fddf252ad1be2c89b69c2b068fc378daa952ba7f163c4a11628f55a4df523b3ef836040518082815260200191505060405180910390a3505056fea165627a7a723058205e693b6595eef6e2b0696421cc765f69f9856c1c37862659422c1296c198b57e0029",
  "source": "pragma solidity >=0.4.22 <0.6.0;\n\nimport \"../node_modules/openzeppelin-solidity/contracts/math/SafeMath.sol\";\nimport \"./BehaviourToken.sol\";\nimport \"./BikeSharing.sol\";\n\ncontract Insurance {\n\n    using SafeMath for uint256;\n\n    // Constant\n    uint256 constant public INSURANCE_RETENTION = 100 finney;\n    uint256 constant public CLAIM_TOKEN_RATIO = 5;\n    uint256 constant public PREMIUM_RATE = 10 finney;\n    uint256 constant public TOKEN_REWARD = 1;\n\n    // Global Variables\n    address insurer;\n    uint256 premiumRate;\n    uint256 retentionAmount;\n    \n    // InsuredList for count\n    address[] insuredList;\n\n    // Storage\n    mapping(address => bool) isClientInsured;\n    mapping(address => InsuranceClient) insuranceMapping;\n\n    struct InsuranceClient {\n        uint256 insuredListPointer;\n        uint256 totalPremiumPaid;\n        // Total rides\n        uint256 totalRides;\n        // Count the number of claims, and the amounts\n        uint256 grossClaims; // Real counter of claims (total)\n        uint256 netClaims;\n        // Token count\n        uint256 grossTokens; // Real counter of tokens (total)\n        uint256 nbTokensOwned;\n        // Count of paybacks\n        uint256 nbPaybacks;\n        uint256 paybackAmount;\n    }\n\n    // Token variables\n    uint256 tokenRewardAmount;\n    uint256 claimTokenRatio;\n\n    // Create a storage for Bike Shop\n    // BikeSharing bikeSharing;\n\n    /*\n    ================================================================\n                                Events\n    ================================================================\n    */\n\n    event TokenCreated(address indexed newTokenAddress);\n    event TokenRewardSet(uint256 tokenReward);\n    event TokenPaid(address indexed insuredAddress, uint256 amount);\n    event ClaimsRepaid(uint256 count, uint256 totalAmount);\n    event TokensClaimExchange (address indexed from, uint256 nbTokens, uint256 claimsInvolved);\n    event Deposit(address indexed sender, uint256 value);\n    event TokenApproved(address indexed _riderAddress, uint256 _rewardAmount);\n\n\n    /*\n    ================================================================\n                                Modifiers\n    ================================================================\n    */\n\n    modifier notNullAddress (address _address) {\n        require(_address != address(0));\n        _;\n    }\n\n    modifier positiveReward (uint256 _rewardValue) {\n        require(_rewardValue > 0);\n        _;\n    }\n\n    modifier insuredClient (address _address) {\n        require(isClientInsured[_address] == true);\n        _;\n    }\n\n    modifier positiveInput (uint256 _input) {\n        require(_input > 0);\n        _;\n    }\n    \n    /*\n    ================================================================\n                                Constructor\n    ================================================================\n    */\n\n    BikeSharing bikeSharing;\n    BehaviourToken behaviourToken;\n        \n    ///@dev Build insurance contract after the bike shop contract\n\n    constructor(address payable _shopAddress, string memory _name, string memory _tokenSymbol)\n        public \n    {\n        insurer = msg.sender;\n        claimTokenRatio = CLAIM_TOKEN_RATIO;\n        premiumRate = PREMIUM_RATE;\n        retentionAmount = INSURANCE_RETENTION;\n        \n        \n        behaviourToken = new BehaviourToken(_name, _tokenSymbol);\n        \n        uint256 rideReward = TOKEN_REWARD; // 1 by default\n        setBehaviourTokenReward(rideReward);\n        \n        // CA MARCHE !\n        bikeSharing = BikeSharing(_shopAddress);\n    }\n\n    /*\n    ================================================================\n                                Tokens\n    ================================================================\n    */\n\n    ///@dev Set the reward \n    ///@param _tokenReward : reward attributed to each good ride\n    \n    function setBehaviourTokenReward(uint256 _tokenReward)\n        private\n        positiveReward(_tokenReward)\n    {\n        tokenRewardAmount = _tokenReward;\n        emit TokenRewardSet(tokenRewardAmount);\n    }\n\n    /*\n    ================================================================\n                                Insurance\n    ================================================================\n    */\n\n    ///@dev Public function to underwrite insurance for a client\n    function underwriteInsurance()\n        external\n        payable\n        returns (bool success)\n    {\n        // The client must not be a client already\n        require(isClientInsured[msg.sender]==false);        \n        require(msg.value == premiumRate); // The client must pay the 1st premium upfront\n\n        insuranceMapping[msg.sender] = InsuranceClient(\n            {\n                insuredListPointer: insuredList.push(msg.sender) - 1,\n                totalPremiumPaid: msg.value,\n                totalRides: 0,\n                grossClaims: 0,\n                netClaims: 0,\n                grossTokens: 0,\n                nbTokensOwned: 0,\n                nbPaybacks: 0,\n                paybackAmount: 0\n            }\n        );\n\n        // Finally, include client in the mapping\n        isClientInsured[msg.sender] = true;\n\n        return isClientInsured[msg.sender];\n    }\n\n    ///@dev Check the premium applicable to one address\n    ///@param insuranceTaker : address of the insurance buyer\n    ///@return premium : the eligible amount\n    \n    function calculatePremium(address insuranceTaker) \n        internal\n        view\n        insuredClient(insuranceTaker)\n        returns (uint256 premium)\n    {\n        InsuranceClient memory customer = insuranceMapping[insuranceTaker];\n        return (customer.netClaims + 1).mul(premiumRate);\n    }\n\n    ///@dev Big function for the customer to update his/her account of claims, premium, tokens\n    ///@return success : was the payment regularization a success ?\n\n    function regularizePayments ()\n        external\n        payable\n        insuredClient(msg.sender)\n        returns (bool success)\n    {\n        // Combien de nouveaux trajets ? \n        uint256 newRides = getNewRides();\n        if (newRides == 0) return true;\n\n        // Pour les newrides, payer la prime ncessaire\n        uint256 pendingPremia = getPendingPremia();\n        require (msg.value == pendingPremia);\n\n        // Update Rides\n        updateRides();\n        // Update Paid Premium\n        updatePremiumPaid(pendingPremia);\n\n        // How many new claims ? \n        uint256 pendingBadRides = getPendingBadRides();\n        require(pendingBadRides <= newRides);\n\n        if (pendingBadRides != 0) {\n            // Actualiser le nombre de claims\n            updateClaims(pendingBadRides);\n            uint256 paybackAmount = pendingBadRides.mul(getClaimAmount(bikeSharing.getBikeValue(), retentionAmount));\n            // Actualiser le payback\n            if (paybackAmount != 0) {\n                msg.sender.call.value(paybackAmount);\n                emit ClaimsRepaid(pendingBadRides, paybackAmount);\n                updatePayback(paybackAmount, pendingBadRides);\n            }\n        }\n\n        InsuranceClient storage insured = insuranceMapping[msg.sender]; \n        require(insured.grossClaims - insured.nbPaybacks == 0);\n        \n        uint256 pendingTokens = getPendingTokens(msg.sender);\n        require(insured.grossTokens + pendingTokens == bikeSharing.getGoodRides(msg.sender));\n        emit TokenApproved(msg.sender, pendingTokens);\n        \n        behaviourToken.mint(msg.sender, pendingTokens);\n        insured.grossTokens += pendingTokens;\n        insured.nbTokensOwned += pendingTokens;\n        emit TokenPaid(msg.sender, pendingTokens);\n\n        return true;\n\n    }\n\n    // \n    // ===================== View functions =====================\n    //\n\n    /// @dev View the Premium that is owed to Insurer\n    /// @return pendingPremia : the premia that are still due for the rides\n    function getPendingPremia ()\n        view\n        public\n        returns (uint256 pendingPremia)\n    {   \n        uint256 newRides = getNewRides();\n        return newRides.mul(calculatePremium(msg.sender));\n    }\n\n    /// @dev Retrive the claim amount that will be paid back to the client\n    /// @param grossAmount : The value of the claim to repay the client\n    /// @param retention : the retention (portion of value not reimbursed to client)\n    function getClaimAmount(uint256 grossAmount, uint256 retention)\n        pure\n        internal\n        returns (uint256 claimAmount)\n    {\n        return grossAmount.sub(retention);\n    }\n\n    /// @dev Reads the number of rides (difference between insurance and bike data) \n    function getNewRides ()\n        internal\n        view\n        returns (uint256 countNewRides) \n    {\n        address insuredAddress = msg.sender;\n        InsuranceClient memory insured = insuranceMapping[insuredAddress];\n        uint256 ridesCount = bikeSharing.getTotalRides(insuredAddress);\n\n        if (ridesCount > insured.totalRides) {\n            uint256 newRides = ridesCount.sub(insured.totalRides);\n            return newRides;\n        } else {\n            return 0;\n        }\n    }\n\n    // Accounting check -- New claims : number rides - number good rides - number of rides already paid out\n    /// @dev get the number of bad rides that is not taken into account by insurer \n\n    function getPendingBadRides ()\n        internal\n        view\n        returns (uint256 countBadRides)\n    {\n        address insuredAddress = msg.sender;\n        InsuranceClient memory insured = insuranceMapping[insuredAddress];\n        uint256 numberBadRides = bikeSharing.getTotalRides(insuredAddress).sub(bikeSharing.getGoodRides(insuredAddress));\n        return numberBadRides.sub(insured.nbPaybacks);\n    }\n\n    /// @dev Get number of tokens the user is eligible to but hasn't received yet\n\n    function getPendingTokens (address insuredAddress)\n        private\n        view\n        returns (uint256 pendingTokens)\n    {\n        //address insuredAddress = msg.sender;\n        InsuranceClient memory insured = insuranceMapping[insuredAddress];\n        uint256 tokenEligibleRides = bikeSharing.getGoodRides(insuredAddress);\n        return tokenEligibleRides.sub(insured.grossTokens);\n    }\n\n    function viewInsuranceStatus (address insuredAddress)\n        external\n        view\n        returns (uint256 insuredListPointer, uint256 totalPremiumPaid, \n        uint256 totalRides, uint256 grossClaims, uint256 netClaims,\n        uint256 grossTokens, uint256 nbTokensOwned, uint256 nbPaybacks, uint256 paybackAmount)\n    {\n        InsuranceClient memory client = insuranceMapping[insuredAddress];\n        return (client.insuredListPointer, client.totalPremiumPaid, client.totalRides, \n        client.grossClaims, client.netClaims, client.grossTokens, client.nbTokensOwned, \n        client.nbPaybacks, client.paybackAmount);\n    }\n    \n    // \n    // ===================== Updating functions =====================\n    //\n\n    function updatePayback (uint256 paybackAmount, uint256 pendingBadRides)\n        internal\n        positiveInput(paybackAmount)\n    {\n        address insuredAddress = msg.sender;\n        InsuranceClient storage insured = insuranceMapping[insuredAddress];     \n        insured.nbPaybacks += pendingBadRides;\n        insured.paybackAmount += paybackAmount;\n    }\n\n    function updateRides ()\n        internal\n    {\n        address insuredAddress = msg.sender;\n        uint256 newRides = getNewRides();\n        InsuranceClient storage insured = insuranceMapping[insuredAddress];\n        insured.totalRides += newRides;\n    }\n\n    function updatePremiumPaid (uint256 premiumAmount)\n        internal\n        positiveInput(premiumAmount)\n    {\n        address insuredAddress = msg.sender;\n        InsuranceClient storage insured = insuranceMapping[insuredAddress];\n        insured.totalPremiumPaid += premiumAmount;\n    }\n\n    // @dev : reconcile number of claims\n    function updateClaims (uint256 pendingBadRides) \n        internal\n        positiveInput(pendingBadRides)\n    {\n        address insuredAddress = msg.sender;\n        InsuranceClient storage insured = insuranceMapping[insuredAddress];\n        insured.grossClaims += pendingBadRides;\n        insured.netClaims += pendingBadRides;\n    }\n\n    // @dev : update token count\n    function updateTokenCount (uint256 pendingTokens)\n        internal\n        positiveInput(pendingTokens)\n    {\n        address insuredAddress = msg.sender;\n        InsuranceClient storage insured = insuranceMapping[insuredAddress];\n        insured.grossTokens += pendingTokens;\n        insured.nbTokensOwned += pendingTokens;\n    }\n\n    // Regularize with number of tokens\n    // Check : nbTokens = nbGoodRides\n    \n    // The insuree has the option to exchange tokens against a reduction of claims\n    function tokenClaimReducer(uint256 nbTokens)\n        external\n        insuredClient(msg.sender)\n        returns (bool success)\n    {\n    \n        InsuranceClient storage insured = insuranceMapping[msg.sender];\n        require(insured.nbTokensOwned >= nbTokens);\n        require(nbTokens >= CLAIM_TOKEN_RATIO);\n        \n        uint256 claimsToDecrease = nbTokens.div(CLAIM_TOKEN_RATIO);\n        uint256 surplus = nbTokens.mod(CLAIM_TOKEN_RATIO);\n        uint256 exchangedTokens = nbTokens.sub(surplus);\n    \n        // Burn tokens \n        behaviourToken.burn(msg.sender, exchangedTokens);\n        // Keep accounting\n        insured.nbTokensOwned -= exchangedTokens;\n        insured.netClaims -= claimsToDecrease;\n    \n        emit TokensClaimExchange(msg.sender, nbTokens, claimsToDecrease);\n    \n        return true;\n\n      }\n      \n    /* \n    ================================================================\n                            Fallback function\n    ================================================================\n    */\n\n    function ()\n        external\n        payable\n    {\n        if (msg.value > 0) {\n            emit Deposit(msg.sender, msg.value);\n        }\n    }\n\n}",
  "sourcePath": "/Users/HenriYQ/Desktop/final-project-hyqiu/contracts/Insurance.sol",
  "compiler": {
    "name": "solc",
    "version": "0.5.0+commit.1d4f565a.Emscripten.clang"
  },
  "schemaVersion": "3.0.0",
  "updatedAt": "2019-01-25T22:36:34.726Z",
  "devdoc": {
    "methods": {
      "constructor": {
        "details": "Build insurance contract after the bike shop contract"
      },
      "getPendingPremia()": {
        "details": "View the Premium that is owed to Insurer",
        "return": "pendingPremia : the premia that are still due for the rides"
      },
      "regularizePayments()": {
        "details": "Big function for the customer to update his/her account of claims, premium, tokens",
        "return": "success : was the payment regularization a success ?"
      },
      "underwriteInsurance()": {
        "details": "Public function to underwrite insurance for a client"
      }
    }
  },
  "userdoc": {
    "methods": {}
  }
}