{
  "contractName": "Insurance",
  "abi": [
    {
      "constant": true,
      "inputs": [],
      "name": "CLAIM_TOKEN_RATIO",
      "outputs": [
        {
          "name": "",
          "type": "uint256"
        }
      ],
      "payable": false,
      "stateMutability": "view",
      "type": "function",
      "signature": "0x01e3aa2a"
    },
    {
      "constant": true,
      "inputs": [],
      "name": "PREMIUM_RATE",
      "outputs": [
        {
          "name": "",
          "type": "uint256"
        }
      ],
      "payable": false,
      "stateMutability": "view",
      "type": "function",
      "signature": "0x1cb27ba4"
    },
    {
      "constant": false,
      "inputs": [],
      "name": "renounceOwnership",
      "outputs": [],
      "payable": false,
      "stateMutability": "nonpayable",
      "type": "function",
      "signature": "0x715018a6"
    },
    {
      "constant": true,
      "inputs": [],
      "name": "owner",
      "outputs": [
        {
          "name": "",
          "type": "address"
        }
      ],
      "payable": false,
      "stateMutability": "view",
      "type": "function",
      "signature": "0x8da5cb5b"
    },
    {
      "constant": true,
      "inputs": [],
      "name": "isOwner",
      "outputs": [
        {
          "name": "",
          "type": "bool"
        }
      ],
      "payable": false,
      "stateMutability": "view",
      "type": "function",
      "signature": "0x8f32d59b"
    },
    {
      "constant": true,
      "inputs": [],
      "name": "TOKEN_REWARD",
      "outputs": [
        {
          "name": "",
          "type": "uint256"
        }
      ],
      "payable": false,
      "stateMutability": "view",
      "type": "function",
      "signature": "0xd4ba8902"
    },
    {
      "constant": true,
      "inputs": [],
      "name": "INSURANCE_RETENTION",
      "outputs": [
        {
          "name": "",
          "type": "uint256"
        }
      ],
      "payable": false,
      "stateMutability": "view",
      "type": "function",
      "signature": "0xefebac8e"
    },
    {
      "constant": false,
      "inputs": [
        {
          "name": "newOwner",
          "type": "address"
        }
      ],
      "name": "transferOwnership",
      "outputs": [],
      "payable": false,
      "stateMutability": "nonpayable",
      "type": "function",
      "signature": "0xf2fde38b"
    },
    {
      "inputs": [
        {
          "name": "_shopAddress",
          "type": "address"
        },
        {
          "name": "_name",
          "type": "string"
        },
        {
          "name": "_tokenSymbol",
          "type": "string"
        }
      ],
      "payable": false,
      "stateMutability": "nonpayable",
      "type": "constructor",
      "signature": "constructor"
    },
    {
      "payable": true,
      "stateMutability": "payable",
      "type": "fallback"
    },
    {
      "anonymous": false,
      "inputs": [
        {
          "indexed": true,
          "name": "bikeShopAddress",
          "type": "address"
        }
      ],
      "name": "BikeShopLinked",
      "type": "event",
      "signature": "0x15911996810002fa9a028e0b1d22fed6950d38d0eb1d13bdb67731340450906a"
    },
    {
      "anonymous": false,
      "inputs": [
        {
          "indexed": true,
          "name": "newTokenAddress",
          "type": "address"
        }
      ],
      "name": "TokenCreated",
      "type": "event",
      "signature": "0x2e2b3f61b70d2d131b2a807371103cc98d51adcaa5e9a8f9c32658ad8426e74e"
    },
    {
      "anonymous": false,
      "inputs": [
        {
          "indexed": true,
          "name": "insAdr",
          "type": "address"
        }
      ],
      "name": "InsuranceClientCreated",
      "type": "event",
      "signature": "0x805515b67640c20f851bcfe628920684c3d4b6375b7e21f7679b277098b7ee7e"
    },
    {
      "anonymous": false,
      "inputs": [
        {
          "indexed": true,
          "name": "client",
          "type": "address"
        },
        {
          "indexed": false,
          "name": "newValue",
          "type": "uint256"
        },
        {
          "indexed": false,
          "name": "byHowMuch",
          "type": "uint256"
        }
      ],
      "name": "RidesCountUpdate",
      "type": "event",
      "signature": "0xeb508ef7b4d7666e076b057a3c90153f3ac41796184c70f0ac3a430dbeb6702c"
    },
    {
      "anonymous": false,
      "inputs": [
        {
          "indexed": true,
          "name": "client",
          "type": "address"
        },
        {
          "indexed": false,
          "name": "newValue",
          "type": "uint256"
        },
        {
          "indexed": false,
          "name": "byHowMuch",
          "type": "uint256"
        }
      ],
      "name": "TotalPaybackAmountUpdate",
      "type": "event",
      "signature": "0xc79c05b3818a8c9907a75827511a1a48d25696a505cf124be9fa24bf58a81911"
    },
    {
      "anonymous": false,
      "inputs": [
        {
          "indexed": true,
          "name": "client",
          "type": "address"
        },
        {
          "indexed": false,
          "name": "newValue",
          "type": "uint256"
        },
        {
          "indexed": false,
          "name": "byHowMuch",
          "type": "uint256"
        }
      ],
      "name": "ClaimsUpdate",
      "type": "event",
      "signature": "0x7ae56db92f5513f9be7be3f7ac08acd3935e48d358b168ddc9238d9fc4b826b5"
    },
    {
      "anonymous": false,
      "inputs": [
        {
          "indexed": true,
          "name": "client",
          "type": "address"
        },
        {
          "indexed": false,
          "name": "newValue",
          "type": "uint256"
        },
        {
          "indexed": false,
          "name": "byHowMuch",
          "type": "uint256"
        }
      ],
      "name": "NetClaimsUpdate",
      "type": "event",
      "signature": "0x02fd5b5cb41940daa58f4af0c8a130413a57de99a8b83612eff22b759e3fca88"
    },
    {
      "anonymous": false,
      "inputs": [
        {
          "indexed": true,
          "name": "client",
          "type": "address"
        },
        {
          "indexed": false,
          "name": "newValue",
          "type": "uint256"
        },
        {
          "indexed": false,
          "name": "byHowMuch",
          "type": "uint256"
        }
      ],
      "name": "PremiumAmountUpdate",
      "type": "event",
      "signature": "0x8014034f8e46251a2d27154055e9234573151a53dd5799aa935fdf16e2da985b"
    },
    {
      "anonymous": false,
      "inputs": [
        {
          "indexed": true,
          "name": "client",
          "type": "address"
        },
        {
          "indexed": false,
          "name": "newValue",
          "type": "uint256"
        },
        {
          "indexed": false,
          "name": "byHowMuch",
          "type": "uint256"
        }
      ],
      "name": "TotalPaybacksUpdate",
      "type": "event",
      "signature": "0xb46b376a2514eb3b424e9abe3d7113a32260dd7930c7ac87b4012b1b5933d6ad"
    },
    {
      "anonymous": false,
      "inputs": [
        {
          "indexed": false,
          "name": "count",
          "type": "uint256"
        },
        {
          "indexed": false,
          "name": "totalAmount",
          "type": "uint256"
        }
      ],
      "name": "ClaimsRepaid",
      "type": "event",
      "signature": "0x8dee066a804209a6ea3a62bbba37f645f079114114b4723551a76a7174cb5dc0"
    },
    {
      "anonymous": false,
      "inputs": [
        {
          "indexed": true,
          "name": "client",
          "type": "address"
        },
        {
          "indexed": false,
          "name": "newValue",
          "type": "uint256"
        },
        {
          "indexed": false,
          "name": "byHowMuch",
          "type": "uint256"
        }
      ],
      "name": "TokenUpdate",
      "type": "event",
      "signature": "0xb0b87480890fad11ac18eecf380b75845d7b09f2ab48afd841e78971f9025d98"
    },
    {
      "anonymous": false,
      "inputs": [
        {
          "indexed": true,
          "name": "client",
          "type": "address"
        },
        {
          "indexed": false,
          "name": "newValue",
          "type": "uint256"
        },
        {
          "indexed": false,
          "name": "byHowMuch",
          "type": "uint256"
        }
      ],
      "name": "OwnedTokenUpdate",
      "type": "event",
      "signature": "0x9de743de0cc3659ff1f9f12f905980c700847e3d4d79b50d2405efe209671111"
    },
    {
      "anonymous": false,
      "inputs": [
        {
          "indexed": true,
          "name": "_riderAddress",
          "type": "address"
        },
        {
          "indexed": false,
          "name": "_rewardAmount",
          "type": "uint256"
        }
      ],
      "name": "TokenApproved",
      "type": "event",
      "signature": "0xab1e93ce08cc196e636fe318c052f82163b40e499a90a0fdb38912ecd5beae11"
    },
    {
      "anonymous": false,
      "inputs": [
        {
          "indexed": true,
          "name": "insuredAddress",
          "type": "address"
        },
        {
          "indexed": false,
          "name": "amount",
          "type": "uint256"
        }
      ],
      "name": "TokenPaid",
      "type": "event",
      "signature": "0xeeb3082d4b88d6583484c604325152864741e5e435119ca06f26d82f88dcc0e1"
    },
    {
      "anonymous": false,
      "inputs": [
        {
          "indexed": true,
          "name": "from",
          "type": "address"
        },
        {
          "indexed": false,
          "name": "nbTokens",
          "type": "uint256"
        },
        {
          "indexed": false,
          "name": "claimsInvolved",
          "type": "uint256"
        }
      ],
      "name": "TokensClaimExchange",
      "type": "event",
      "signature": "0xa0defc46c92ff3f4a6c3b1a9fe1218139c5267276d9071938792191e930f53b3"
    },
    {
      "anonymous": false,
      "inputs": [
        {
          "indexed": true,
          "name": "sender",
          "type": "address"
        },
        {
          "indexed": false,
          "name": "value",
          "type": "uint256"
        }
      ],
      "name": "Deposit",
      "type": "event",
      "signature": "0xe1fffcc4923d04b559f4d29a8bfc6cda04eb5b0d3c460751c2402c5c5cc9109c"
    },
    {
      "anonymous": false,
      "inputs": [
        {
          "indexed": false,
          "name": "currentStatus",
          "type": "bool"
        }
      ],
      "name": "StopSwitchChanged",
      "type": "event",
      "signature": "0x67e1f06c646cd0258df4917ba95be6924b550249a7c45eeb41dfd6b8130fd588"
    },
    {
      "anonymous": false,
      "inputs": [
        {
          "indexed": true,
          "name": "previousOwner",
          "type": "address"
        },
        {
          "indexed": true,
          "name": "newOwner",
          "type": "address"
        }
      ],
      "name": "OwnershipTransferred",
      "type": "event",
      "signature": "0x8be0079c531659141344cd1fd0a4f28419497f9722a3daafe3b4186f6b6457e0"
    },
    {
      "constant": false,
      "inputs": [],
      "name": "underwriteInsurance",
      "outputs": [
        {
          "name": "success",
          "type": "bool"
        }
      ],
      "payable": true,
      "stateMutability": "payable",
      "type": "function",
      "signature": "0x822cfd17"
    },
    {
      "constant": false,
      "inputs": [],
      "name": "regularizePayments",
      "outputs": [
        {
          "name": "success",
          "type": "bool"
        }
      ],
      "payable": true,
      "stateMutability": "payable",
      "type": "function",
      "signature": "0x762b5ec9"
    },
    {
      "constant": false,
      "inputs": [
        {
          "name": "nbTokens",
          "type": "uint256"
        }
      ],
      "name": "tokenClaimReducer",
      "outputs": [
        {
          "name": "success",
          "type": "bool"
        }
      ],
      "payable": false,
      "stateMutability": "nonpayable",
      "type": "function",
      "signature": "0x6968a1a6"
    },
    {
      "constant": true,
      "inputs": [
        {
          "name": "insuredAddress",
          "type": "address"
        }
      ],
      "name": "getPendingPremia",
      "outputs": [
        {
          "name": "pendingPremia",
          "type": "uint256"
        }
      ],
      "payable": false,
      "stateMutability": "view",
      "type": "function",
      "signature": "0xf62dbb59"
    },
    {
      "constant": true,
      "inputs": [
        {
          "name": "insuredAddress",
          "type": "address"
        }
      ],
      "name": "viewInsuranceStatus",
      "outputs": [
        {
          "name": "insuredListPointer",
          "type": "uint256"
        },
        {
          "name": "totalPremiumPaid",
          "type": "uint256"
        },
        {
          "name": "totalRides",
          "type": "uint256"
        },
        {
          "name": "grossClaims",
          "type": "uint256"
        },
        {
          "name": "netClaims",
          "type": "uint256"
        },
        {
          "name": "grossTokens",
          "type": "uint256"
        },
        {
          "name": "nbTokensOwned",
          "type": "uint256"
        },
        {
          "name": "nbPaybacks",
          "type": "uint256"
        },
        {
          "name": "paybackAmount",
          "type": "uint256"
        }
      ],
      "payable": false,
      "stateMutability": "view",
      "type": "function",
      "signature": "0x30442d49"
    },
    {
      "constant": true,
      "inputs": [
        {
          "name": "clientAdr",
          "type": "address"
        }
      ],
      "name": "isInsured",
      "outputs": [
        {
          "name": "isIndeed",
          "type": "bool"
        }
      ],
      "payable": false,
      "stateMutability": "view",
      "type": "function",
      "signature": "0x9ba29d6d"
    },
    {
      "constant": true,
      "inputs": [],
      "name": "insuredClientsCount",
      "outputs": [
        {
          "name": "clientCount",
          "type": "uint256"
        }
      ],
      "payable": false,
      "stateMutability": "view",
      "type": "function",
      "signature": "0xaaaadc79"
    },
    {
      "constant": true,
      "inputs": [],
      "name": "getPremiumRate",
      "outputs": [
        {
          "name": "rate",
          "type": "uint256"
        }
      ],
      "payable": false,
      "stateMutability": "view",
      "type": "function",
      "signature": "0xe20ca463"
    },
    {
      "constant": true,
      "inputs": [],
      "name": "getClaimTokenRatio",
      "outputs": [
        {
          "name": "ratio",
          "type": "uint256"
        }
      ],
      "payable": false,
      "stateMutability": "view",
      "type": "function",
      "signature": "0xeee8eb03"
    },
    {
      "constant": false,
      "inputs": [],
      "name": "emergencySwitch",
      "outputs": [
        {
          "name": "alarmOn",
          "type": "bool"
        }
      ],
      "payable": false,
      "stateMutability": "nonpayable",
      "type": "function",
      "signature": "0x7c51e311"
    }
  ],
  "bytecode": "0x60806040523480156200001157600080fd5b50604051620040cd380380620040cd833981018060405260608110156200003757600080fd5b810190808051906020019092919080516401000000008111156200005a57600080fd5b828101905060208101848111156200007157600080fd5b81518560018202830111640100000000821117156200008f57600080fd5b50509291906020018051640100000000811115620000ac57600080fd5b82810190506020810184811115620000c357600080fd5b8151856001820283011164010000000082111715620000e157600080fd5b5050929190505050336000806101000a81548173ffffffffffffffffffffffffffffffffffffffff021916908373ffffffffffffffffffffffffffffffffffffffff1602179055506000809054906101000a900473ffffffffffffffffffffffffffffffffffffffff1673ffffffffffffffffffffffffffffffffffffffff16600073ffffffffffffffffffffffffffffffffffffffff167f8be0079c531659141344cd1fd0a4f28419497f9722a3daafe3b4186f6b6457e060405160405180910390a333600160006101000a81548173ffffffffffffffffffffffffffffffffffffffff021916908373ffffffffffffffffffffffffffffffffffffffff1602179055506005600681905550662386f26fc1000060028190555067016345785d8a0000600381905550600160058190555081816200021f62000472565b808060200180602001838103835285818151815260200191508051906020019080838360005b838110156200026257808201518184015260208101905062000245565b50505050905090810190601f168015620002905780820380516001836020036101000a031916815260200191505b50838103825284818151815260200191508051906020019080838360005b83811015620002cb578082015181840152602081019050620002ae565b50505050905090810190601f168015620002f95780820380516001836020036101000a031916815260200191505b50945050505050604051809103906000f0801580156200031d573d6000803e3d6000fd5b50600b60006101000a81548173ffffffffffffffffffffffffffffffffffffffff021916908373ffffffffffffffffffffffffffffffffffffffff160217905550600b60009054906101000a900473ffffffffffffffffffffffffffffffffffffffff1673ffffffffffffffffffffffffffffffffffffffff167f2e2b3f61b70d2d131b2a807371103cc98d51adcaa5e9a8f9c32658ad8426e74e60405160405180910390a282600a60006101000a81548173ffffffffffffffffffffffffffffffffffffffff021916908373ffffffffffffffffffffffffffffffffffffffff160217905550600a60009054906101000a900473ffffffffffffffffffffffffffffffffffffffff1673ffffffffffffffffffffffffffffffffffffffff167f15911996810002fa9a028e0b1d22fed6950d38d0eb1d13bdb67731340450906a60405160405180910390a250505062000483565b6040516117ad806200292083390190565b61248d80620004936000396000f3fe6080604052600436106100fc576000357c0100000000000000000000000000000000000000000000000000000000900463ffffffff16806301e3aa2a146101695780631cb27ba41461019457806330442d49146101bf5780636968a1a61461025c578063715018a6146102af578063762b5ec9146102c65780637c51e311146102e8578063822cfd17146103175780638da5cb5b146103395780638f32d59b146103905780639ba29d6d146103bf578063aaaadc7914610428578063d4ba890214610453578063e20ca4631461047e578063eee8eb03146104a9578063efebac8e146104d4578063f2fde38b146104ff578063f62dbb5914610550575b6101046105b5565b151561010f57600080fd5b6000341115610167573373ffffffffffffffffffffffffffffffffffffffff167fe1fffcc4923d04b559f4d29a8bfc6cda04eb5b0d3c460751c2402c5c5cc9109c346040518082815260200191505060405180910390a25b005b34801561017557600080fd5b5061017e61060c565b6040518082815260200191505060405180910390f35b3480156101a057600080fd5b506101a9610611565b6040518082815260200191505060405180910390f35b3480156101cb57600080fd5b5061020e600480360360208110156101e257600080fd5b81019080803573ffffffffffffffffffffffffffffffffffffffff16906020019092919050505061061c565b604051808a8152602001898152602001888152602001878152602001868152602001858152602001848152602001838152602001828152602001995050505050505050505060405180910390f35b34801561026857600080fd5b506102956004803603602081101561027f57600080fd5b8101908080359060200190929190505050610728565b604051808215151515815260200191505060405180910390f35b3480156102bb57600080fd5b506102c46109ad565b005b6102ce610a7f565b604051808215151515815260200191505060405180910390f35b3480156102f457600080fd5b506102fd611050565b604051808215151515815260200191505060405180910390f35b61031f61111c565b604051808215151515815260200191505060405180910390f35b34801561034557600080fd5b5061034e6113e2565b604051808273ffffffffffffffffffffffffffffffffffffffff1673ffffffffffffffffffffffffffffffffffffffff16815260200191505060405180910390f35b34801561039c57600080fd5b506103a56105b5565b604051808215151515815260200191505060405180910390f35b3480156103cb57600080fd5b5061040e600480360360208110156103e257600080fd5b81019080803573ffffffffffffffffffffffffffffffffffffffff16906020019092919050505061140b565b604051808215151515815260200191505060405180910390f35b34801561043457600080fd5b5061043d611468565b6040518082815260200191505060405180910390f35b34801561045f57600080fd5b50610468611475565b6040518082815260200191505060405180910390f35b34801561048a57600080fd5b5061049361147a565b6040518082815260200191505060405180910390f35b3480156104b557600080fd5b506104be611484565b6040518082815260200191505060405180910390f35b3480156104e057600080fd5b506104e961148e565b6040518082815260200191505060405180910390f35b34801561050b57600080fd5b5061054e6004803603602081101561052257600080fd5b81019080803573ffffffffffffffffffffffffffffffffffffffff16906020019092919050505061149a565b005b34801561055c57600080fd5b5061059f6004803603602081101561057357600080fd5b81019080803573ffffffffffffffffffffffffffffffffffffffff1690602001909291905050506114b9565b6040518082815260200191505060405180910390f35b60008060009054906101000a900473ffffffffffffffffffffffffffffffffffffffff1673ffffffffffffffffffffffffffffffffffffffff163373ffffffffffffffffffffffffffffffffffffffff1614905090565b600581565b662386f26fc1000081565b6000806000806000806000806000610632612414565b600960008c73ffffffffffffffffffffffffffffffffffffffff1673ffffffffffffffffffffffffffffffffffffffff168152602001908152602001600020610120604051908101604052908160008201548152602001600182015481526020016002820154815260200160038201548152602001600482015481526020016005820154815260200160068201548152602001600782015481526020016008820154815250509050806000015181602001518260400151836060015184608001518560a001518660c001518760e00151886101000151995099509950995099509950995099509950509193959799909294969850565b60003360011515600860008373ffffffffffffffffffffffffffffffffffffffff1673ffffffffffffffffffffffffffffffffffffffff16815260200190815260200160002060009054906101000a900460ff16151514151561078a57600080fd5b8260008111151561079a57600080fd5b60065484101515156107ab57600080fd5b6000600960003373ffffffffffffffffffffffffffffffffffffffff1673ffffffffffffffffffffffffffffffffffffffff16815260200190815260200160002090508481600601541015151561080157600080fd5b6000816004015411151561081457600080fd5b600080610820876114ea565b91509150600b60009054906101000a900473ffffffffffffffffffffffffffffffffffffffff1673ffffffffffffffffffffffffffffffffffffffff16639dc29fac33836040518363ffffffff167c0100000000000000000000000000000000000000000000000000000000028152600401808373ffffffffffffffffffffffffffffffffffffffff1673ffffffffffffffffffffffffffffffffffffffff16815260200182815260200192505050602060405180830381600087803b1580156108e957600080fd5b505af11580156108fd573d6000803e3d6000fd5b505050506040513d602081101561091357600080fd5b8101908080519060200190929190505050508083600601600082825403925050819055508183600401600082825403925050819055503373ffffffffffffffffffffffffffffffffffffffff167fa0defc46c92ff3f4a6c3b1a9fe1218139c5267276d9071938792191e930f53b38884604051808381526020018281526020019250505060405180910390a2600195505050505050919050565b6109b56105b5565b15156109c057600080fd5b600073ffffffffffffffffffffffffffffffffffffffff166000809054906101000a900473ffffffffffffffffffffffffffffffffffffffff1673ffffffffffffffffffffffffffffffffffffffff167f8be0079c531659141344cd1fd0a4f28419497f9722a3daafe3b4186f6b6457e060405160405180910390a360008060006101000a81548173ffffffffffffffffffffffffffffffffffffffff021916908373ffffffffffffffffffffffffffffffffffffffff160217905550565b60003360011515600860008373ffffffffffffffffffffffffffffffffffffffff1673ffffffffffffffffffffffffffffffffffffffff16815260200190815260200160002060009054906101000a900460ff161515141515610ae157600080fd5b600760009054906101000a900460ff16151515610afd57600080fd5b6000610b083361154f565b90506000811415610b1d57600192505061104c565b6000610b28336114b9565b90508034141515610b3857600080fd5b610b4133611739565b610b4b81336117fa565b6000610b56336118bf565b9050828111151515610b6757600080fd5b600081141515610cb257610b7b8133611b92565b6000610c59610c4a600a60009054906101000a900473ffffffffffffffffffffffffffffffffffffffff1673ffffffffffffffffffffffffffffffffffffffff1663467519b86040518163ffffffff167c010000000000000000000000000000000000000000000000000000000002815260040160206040518083038186803b158015610c0757600080fd5b505afa158015610c1b573d6000803e3d6000fd5b505050506040513d6020811015610c3157600080fd5b8101908080519060200190929190505050600354611cc3565b83611ce090919063ffffffff16565b9050600081141515610cb057610c70818333611d1e565b7f8dee066a804209a6ea3a62bbba37f645f079114114b4723551a76a7174cb5dc08282604051808381526020018281526020019250505060405180910390a15b505b610cba612414565b600960003373ffffffffffffffffffffffffffffffffffffffff1673ffffffffffffffffffffffffffffffffffffffff16815260200190815260200160002061012060405190810160405290816000820154815260200160018201548152602001600282015481526020016003820154815260200160048201548152602001600582015481526020016006820154815260200160078201548152602001600882015481525050905060008160e00151826060015103141515610d7b57600080fd5b6000610d8633611e61565b9050600a60009054906101000a900473ffffffffffffffffffffffffffffffffffffffff1673ffffffffffffffffffffffffffffffffffffffff1663dc051b7b336040518263ffffffff167c0100000000000000000000000000000000000000000000000000000000028152600401808273ffffffffffffffffffffffffffffffffffffffff1673ffffffffffffffffffffffffffffffffffffffff16815260200191505060206040518083038186803b158015610e4357600080fd5b505afa158015610e57573d6000803e3d6000fd5b505050506040513d6020811015610e6d57600080fd5b8101908080519060200190929190505050818360a0015101141515610e9157600080fd5b6000811115611042573373ffffffffffffffffffffffffffffffffffffffff167fab1e93ce08cc196e636fe318c052f82163b40e499a90a0fdb38912ecd5beae11826040518082815260200191505060405180910390a2600b60009054906101000a900473ffffffffffffffffffffffffffffffffffffffff1673ffffffffffffffffffffffffffffffffffffffff166340c10f1933836040518363ffffffff167c0100000000000000000000000000000000000000000000000000000000028152600401808373ffffffffffffffffffffffffffffffffffffffff1673ffffffffffffffffffffffffffffffffffffffff16815260200182815260200192505050602060405180830381600087803b158015610fad57600080fd5b505af1158015610fc1573d6000803e3d6000fd5b505050506040513d6020811015610fd757600080fd5b8101908080519060200190929190505050503373ffffffffffffffffffffffffffffffffffffffff167feeb3082d4b88d6583484c604325152864741e5e435119ca06f26d82f88dcc0e1826040518082815260200191505060405180910390a26110418133612041565b5b6001965050505050505b5090565b600061105a6105b5565b151561106557600080fd5b60001515600760009054906101000a900460ff16151514156110a1576001600760006101000a81548160ff0219169083151502179055506110bd565b6000600760006101000a81548160ff0219169083151502179055505b7f67e1f06c646cd0258df4917ba95be6924b550249a7c45eeb41dfd6b8130fd588600760009054906101000a900460ff16604051808215151515815260200191505060405180910390a1600760009054906101000a900460ff16905090565b6000600760009054906101000a900460ff1615151561113a57600080fd5b60001515600860003373ffffffffffffffffffffffffffffffffffffffff1673ffffffffffffffffffffffffffffffffffffffff16815260200190815260200160002060009054906101000a900460ff16151514151561119957600080fd5b600254341415156111a957600080fd5b61012060405190810160405280600160043390806001815401808255809150509060018203906000526020600020016000909192909190916101000a81548173ffffffffffffffffffffffffffffffffffffffff021916908373ffffffffffffffffffffffffffffffffffffffff1602179055500381526020013481526020016000815260200160008152602001600081526020016000815260200160008152602001600081526020016000815250600960003373ffffffffffffffffffffffffffffffffffffffff1673ffffffffffffffffffffffffffffffffffffffff168152602001908152602001600020600082015181600001556020820151816001015560408201518160020155606082015181600301556080820151816004015560a0820151816005015560c0820151816006015560e0820151816007015561010082015181600801559050506001600860003373ffffffffffffffffffffffffffffffffffffffff1673ffffffffffffffffffffffffffffffffffffffff16815260200190815260200160002060006101000a81548160ff0219169083151502179055503373ffffffffffffffffffffffffffffffffffffffff167f805515b67640c20f851bcfe628920684c3d4b6375b7e21f7679b277098b7ee7e60405160405180910390a2600860003373ffffffffffffffffffffffffffffffffffffffff1673ffffffffffffffffffffffffffffffffffffffff16815260200190815260200160002060009054906101000a900460ff16905090565b60008060009054906101000a900473ffffffffffffffffffffffffffffffffffffffff16905090565b600060011515600860008473ffffffffffffffffffffffffffffffffffffffff1673ffffffffffffffffffffffffffffffffffffffff16815260200190815260200160002060009054906101000a900460ff161515149050919050565b6000600480549050905090565b600181565b6000600254905090565b6000600654905090565b67016345785d8a000081565b6114a26105b5565b15156114ad57600080fd5b6114b681612172565b50565b6000806114c58361154f565b90506114e26114d38461226c565b82611ce090919063ffffffff16565b915050919050565b600080826000811115156114fd57600080fd5b611512600654856123a390919063ffffffff16565b9250600061152b600654866123cd90919063ffffffff16565b905061154081866123f290919063ffffffff16565b92508383935093505050915091565b6000611559612414565b600960008473ffffffffffffffffffffffffffffffffffffffff1673ffffffffffffffffffffffffffffffffffffffff1681526020019081526020016000206101206040519081016040529081600082015481526020016001820154815260200160028201548152602001600382015481526020016004820154815260200160058201548152602001600682015481526020016007820154815260200160088201548152505090506000600a60009054906101000a900473ffffffffffffffffffffffffffffffffffffffff1673ffffffffffffffffffffffffffffffffffffffff166343a8980b856040518263ffffffff167c0100000000000000000000000000000000000000000000000000000000028152600401808273ffffffffffffffffffffffffffffffffffffffff1673ffffffffffffffffffffffffffffffffffffffff16815260200191505060206040518083038186803b1580156116be57600080fd5b505afa1580156116d2573d6000803e3d6000fd5b505050506040513d60208110156116e857600080fd5b81019080805190602001909291905050509050816040015181111561172d5760006117208360400151836123f290919063ffffffff16565b9050809350505050611734565b6000925050505b919050565b60006117448261154f565b90506000600960008473ffffffffffffffffffffffffffffffffffffffff1673ffffffffffffffffffffffffffffffffffffffff16815260200190815260200160002090508181600201600082825401925050819055508273ffffffffffffffffffffffffffffffffffffffff167feb508ef7b4d7666e076b057a3c90153f3ac41796184c70f0ac3a430dbeb6702c826002015484604051808381526020018281526020019250505060405180910390a2505050565b8160008111151561180a57600080fd5b6000600960008473ffffffffffffffffffffffffffffffffffffffff1673ffffffffffffffffffffffffffffffffffffffff16815260200190815260200160002090508381600101600082825401925050819055508273ffffffffffffffffffffffffffffffffffffffff167f8014034f8e46251a2d27154055e9234573151a53dd5799aa935fdf16e2da985b826001015486604051808381526020018281526020019250505060405180910390a250505050565b60006118c9612414565b600960008473ffffffffffffffffffffffffffffffffffffffff1673ffffffffffffffffffffffffffffffffffffffff1681526020019081526020016000206101206040519081016040529081600082015481526020016001820154815260200160028201548152602001600382015481526020016004820154815260200160058201548152602001600682015481526020016007820154815260200160088201548152505090506000611b70600a60009054906101000a900473ffffffffffffffffffffffffffffffffffffffff1673ffffffffffffffffffffffffffffffffffffffff1663dc051b7b866040518263ffffffff167c0100000000000000000000000000000000000000000000000000000000028152600401808273ffffffffffffffffffffffffffffffffffffffff1673ffffffffffffffffffffffffffffffffffffffff16815260200191505060206040518083038186803b158015611a3157600080fd5b505afa158015611a45573d6000803e3d6000fd5b505050506040513d6020811015611a5b57600080fd5b8101908080519060200190929190505050600a60009054906101000a900473ffffffffffffffffffffffffffffffffffffffff1673ffffffffffffffffffffffffffffffffffffffff166343a8980b876040518263ffffffff167c0100000000000000000000000000000000000000000000000000000000028152600401808273ffffffffffffffffffffffffffffffffffffffff1673ffffffffffffffffffffffffffffffffffffffff16815260200191505060206040518083038186803b158015611b2757600080fd5b505afa158015611b3b573d6000803e3d6000fd5b505050506040513d6020811015611b5157600080fd5b81019080805190602001909291905050506123f290919063ffffffff16565b9050611b898260e00151826123f290919063ffffffff16565b92505050919050565b81600081111515611ba257600080fd5b6000600960008473ffffffffffffffffffffffffffffffffffffffff1673ffffffffffffffffffffffffffffffffffffffff16815260200190815260200160002090508381600301600082825401925050819055508273ffffffffffffffffffffffffffffffffffffffff167f7ae56db92f5513f9be7be3f7ac08acd3935e48d358b168ddc9238d9fc4b826b5826003015486604051808381526020018281526020019250505060405180910390a28381600401600082825401925050819055508273ffffffffffffffffffffffffffffffffffffffff167f02fd5b5cb41940daa58f4af0c8a130413a57de99a8b83612eff22b759e3fca88826004015486604051808381526020018281526020019250505060405180910390a250505050565b6000611cd882846123f290919063ffffffff16565b905092915050565b600080831415611cf35760009050611d18565b60008284029050828482811515611d0657fe5b04141515611d1357600080fd5b809150505b92915050565b82600081111515611d2e57600080fd5b82600081111515611d3e57600080fd5b6000600960008573ffffffffffffffffffffffffffffffffffffffff1673ffffffffffffffffffffffffffffffffffffffff16815260200190815260200160002090508481600701600082825401925050819055508373ffffffffffffffffffffffffffffffffffffffff167fb46b376a2514eb3b424e9abe3d7113a32260dd7930c7ac87b4012b1b5933d6ad826007015487604051808381526020018281526020019250505060405180910390a28581600801600082825401925050819055508373ffffffffffffffffffffffffffffffffffffffff167fc79c05b3818a8c9907a75827511a1a48d25696a505cf124be9fa24bf58a81911826008015488604051808381526020018281526020019250505060405180910390a2505050505050565b6000611e6b612414565b600960008473ffffffffffffffffffffffffffffffffffffffff1673ffffffffffffffffffffffffffffffffffffffff1681526020019081526020016000206101206040519081016040529081600082015481526020016001820154815260200160028201548152602001600382015481526020016004820154815260200160058201548152602001600682015481526020016007820154815260200160088201548152505090506000600a60009054906101000a900473ffffffffffffffffffffffffffffffffffffffff1673ffffffffffffffffffffffffffffffffffffffff1663dc051b7b856040518263ffffffff167c0100000000000000000000000000000000000000000000000000000000028152600401808273ffffffffffffffffffffffffffffffffffffffff1673ffffffffffffffffffffffffffffffffffffffff16815260200191505060206040518083038186803b158015611fd057600080fd5b505afa158015611fe4573d6000803e3d6000fd5b505050506040513d6020811015611ffa57600080fd5b8101908080519060200190929190505050905061203860055461202a8460a00151846123f290919063ffffffff16565b611ce090919063ffffffff16565b92505050919050565b8160008111151561205157600080fd5b6000600960008473ffffffffffffffffffffffffffffffffffffffff1673ffffffffffffffffffffffffffffffffffffffff16815260200190815260200160002090508381600501600082825401925050819055508273ffffffffffffffffffffffffffffffffffffffff167fb0b87480890fad11ac18eecf380b75845d7b09f2ab48afd841e78971f9025d98826005015486604051808381526020018281526020019250505060405180910390a28381600601600082825401925050819055508273ffffffffffffffffffffffffffffffffffffffff167fb0b87480890fad11ac18eecf380b75845d7b09f2ab48afd841e78971f9025d98826006015486604051808381526020018281526020019250505060405180910390a250505050565b600073ffffffffffffffffffffffffffffffffffffffff168173ffffffffffffffffffffffffffffffffffffffff16141515156121ae57600080fd5b8073ffffffffffffffffffffffffffffffffffffffff166000809054906101000a900473ffffffffffffffffffffffffffffffffffffffff1673ffffffffffffffffffffffffffffffffffffffff167f8be0079c531659141344cd1fd0a4f28419497f9722a3daafe3b4186f6b6457e060405160405180910390a3806000806101000a81548173ffffffffffffffffffffffffffffffffffffffff021916908373ffffffffffffffffffffffffffffffffffffffff16021790555050565b60008160011515600860008373ffffffffffffffffffffffffffffffffffffffff1673ffffffffffffffffffffffffffffffffffffffff16815260200190815260200160002060009054906101000a900460ff1615151415156122ce57600080fd5b6122d6612414565b600960008573ffffffffffffffffffffffffffffffffffffffff1673ffffffffffffffffffffffffffffffffffffffff16815260200190815260200160002061012060405190810160405290816000820154815260200160018201548152602001600282015481526020016003820154815260200160048201548152602001600582015481526020016006820154815260200160078201548152602001600882015481525050905061239a6002546001836080015101611ce090919063ffffffff16565b92505050919050565b600080821115156123b357600080fd5b600082848115156123c057fe5b0490508091505092915050565b60008082141515156123de57600080fd5b81838115156123e957fe5b06905092915050565b600082821115151561240357600080fd5b600082840390508091505092915050565b61012060405190810160405280600081526020016000815260200160008152602001600081526020016000815260200160008152602001600081526020016000815260200160008152509056fea165627a7a72305820e4ca7d11235dadbb726694f9681e89431e4be555e35498e7040a4ed5f0e1fe39002960806040523480156200001157600080fd5b50604051620017ad380380620017ad833981018060405260408110156200003757600080fd5b8101908080516401000000008111156200005057600080fd5b828101905060208101848111156200006757600080fd5b81518560018202830111640100000000821117156200008557600080fd5b50509291906020018051640100000000811115620000a257600080fd5b82810190506020810184811115620000b957600080fd5b8151856001820283011164010000000082111715620000d757600080fd5b5050929190505050818160008260039080519060200190620000fb9291906200017c565b508160049080519060200190620001149291906200017c565b5080600560006101000a81548160ff021916908360ff16021790555050505033600560016101000a81548173ffffffffffffffffffffffffffffffffffffffff021916908373ffffffffffffffffffffffffffffffffffffffff16021790555050506200022b565b828054600181600116156101000203166002900490600052602060002090601f016020900481019282601f10620001bf57805160ff1916838001178555620001f0565b82800160010185558215620001f0579182015b82811115620001ef578251825591602001919060010190620001d2565b5b509050620001ff919062000203565b5090565b6200022891905b80821115620002245760008160009055506001016200020a565b5090565b90565b611572806200023b6000396000f3fe6080604052600436106100c5576000357c0100000000000000000000000000000000000000000000000000000000900463ffffffff16806306fdde03146100ca578063095ea7b31461015a57806318160ddd146101cd57806323b872dd146101f8578063313ce5671461028b57806339509351146102bc57806340c10f191461032f57806370a08231146103a257806395d89b41146104075780639dc29fac14610497578063a457c2d71461050a578063a9059cbb1461057d578063dd62ed3e146105f0575b600080fd5b3480156100d657600080fd5b506100df610675565b6040518080602001828103825283818151815260200191508051906020019080838360005b8381101561011f578082015181840152602081019050610104565b50505050905090810190601f16801561014c5780820380516001836020036101000a031916815260200191505b509250505060405180910390f35b34801561016657600080fd5b506101b36004803603604081101561017d57600080fd5b81019080803573ffffffffffffffffffffffffffffffffffffffff16906020019092919080359060200190929190505050610717565b604051808215151515815260200191505060405180910390f35b3480156101d957600080fd5b506101e2610844565b6040518082815260200191505060405180910390f35b34801561020457600080fd5b506102716004803603606081101561021b57600080fd5b81019080803573ffffffffffffffffffffffffffffffffffffffff169060200190929190803573ffffffffffffffffffffffffffffffffffffffff1690602001909291908035906020019092919050505061084e565b604051808215151515815260200191505060405180910390f35b34801561029757600080fd5b506102a0610a56565b604051808260ff1660ff16815260200191505060405180910390f35b3480156102c857600080fd5b50610315600480360360408110156102df57600080fd5b81019080803573ffffffffffffffffffffffffffffffffffffffff16906020019092919080359060200190929190505050610a6d565b604051808215151515815260200191505060405180910390f35b34801561033b57600080fd5b506103886004803603604081101561035257600080fd5b81019080803573ffffffffffffffffffffffffffffffffffffffff16906020019092919080359060200190929190505050610ca4565b604051808215151515815260200191505060405180910390f35b3480156103ae57600080fd5b506103f1600480360360208110156103c557600080fd5b81019080803573ffffffffffffffffffffffffffffffffffffffff169060200190929190505050610cba565b6040518082815260200191505060405180910390f35b34801561041357600080fd5b5061041c610d02565b6040518080602001828103825283818151815260200191508051906020019080838360005b8381101561045c578082015181840152602081019050610441565b50505050905090810190601f1680156104895780820380516001836020036101000a031916815260200191505b509250505060405180910390f35b3480156104a357600080fd5b506104f0600480360360408110156104ba57600080fd5b81019080803573ffffffffffffffffffffffffffffffffffffffff16906020019092919080359060200190929190505050610da4565b604051808215151515815260200191505060405180910390f35b34801561051657600080fd5b506105636004803603604081101561052d57600080fd5b81019080803573ffffffffffffffffffffffffffffffffffffffff16906020019092919080359060200190929190505050610dba565b604051808215151515815260200191505060405180910390f35b34801561058957600080fd5b506105d6600480360360408110156105a057600080fd5b81019080803573ffffffffffffffffffffffffffffffffffffffff16906020019092919080359060200190929190505050610ff1565b604051808215151515815260200191505060405180910390f35b3480156105fc57600080fd5b5061065f6004803603604081101561061357600080fd5b81019080803573ffffffffffffffffffffffffffffffffffffffff169060200190929190803573ffffffffffffffffffffffffffffffffffffffff169060200190929190505050611008565b6040518082815260200191505060405180910390f35b606060038054600181600116156101000203166002900480601f01602080910402602001604051908101604052809291908181526020018280546001816001161561010002031660029004801561070d5780601f106106e25761010080835404028352916020019161070d565b820191906000526020600020905b8154815290600101906020018083116106f057829003601f168201915b5050505050905090565b60008073ffffffffffffffffffffffffffffffffffffffff168373ffffffffffffffffffffffffffffffffffffffff161415151561075457600080fd5b81600160003373ffffffffffffffffffffffffffffffffffffffff1673ffffffffffffffffffffffffffffffffffffffff16815260200190815260200160002060008573ffffffffffffffffffffffffffffffffffffffff1673ffffffffffffffffffffffffffffffffffffffff168152602001908152602001600020819055508273ffffffffffffffffffffffffffffffffffffffff163373ffffffffffffffffffffffffffffffffffffffff167f8c5be1e5ebec7d5bd14f71427d1e84f3dd0314c0f7b2291e5b200ac8c7c3b925846040518082815260200191505060405180910390a36001905092915050565b6000600254905090565b60006108df82600160008773ffffffffffffffffffffffffffffffffffffffff1673ffffffffffffffffffffffffffffffffffffffff16815260200190815260200160002060003373ffffffffffffffffffffffffffffffffffffffff1673ffffffffffffffffffffffffffffffffffffffff1681526020019081526020016000205461108f90919063ffffffff16565b600160008673ffffffffffffffffffffffffffffffffffffffff1673ffffffffffffffffffffffffffffffffffffffff16815260200190815260200160002060003373ffffffffffffffffffffffffffffffffffffffff1673ffffffffffffffffffffffffffffffffffffffff1681526020019081526020016000208190555061096a8484846110b1565b3373ffffffffffffffffffffffffffffffffffffffff168473ffffffffffffffffffffffffffffffffffffffff167f8c5be1e5ebec7d5bd14f71427d1e84f3dd0314c0f7b2291e5b200ac8c7c3b925600160008873ffffffffffffffffffffffffffffffffffffffff1673ffffffffffffffffffffffffffffffffffffffff16815260200190815260200160002060003373ffffffffffffffffffffffffffffffffffffffff1673ffffffffffffffffffffffffffffffffffffffff168152602001908152602001600020546040518082815260200191505060405180910390a3600190509392505050565b6000600560009054906101000a900460ff16905090565b60008073ffffffffffffffffffffffffffffffffffffffff168373ffffffffffffffffffffffffffffffffffffffff1614151515610aaa57600080fd5b610b3982600160003373ffffffffffffffffffffffffffffffffffffffff1673ffffffffffffffffffffffffffffffffffffffff16815260200190815260200160002060008673ffffffffffffffffffffffffffffffffffffffff1673ffffffffffffffffffffffffffffffffffffffff1681526020019081526020016000205461127d90919063ffffffff16565b600160003373ffffffffffffffffffffffffffffffffffffffff1673ffffffffffffffffffffffffffffffffffffffff16815260200190815260200160002060008573ffffffffffffffffffffffffffffffffffffffff1673ffffffffffffffffffffffffffffffffffffffff168152602001908152602001600020819055508273ffffffffffffffffffffffffffffffffffffffff163373ffffffffffffffffffffffffffffffffffffffff167f8c5be1e5ebec7d5bd14f71427d1e84f3dd0314c0f7b2291e5b200ac8c7c3b925600160003373ffffffffffffffffffffffffffffffffffffffff1673ffffffffffffffffffffffffffffffffffffffff16815260200190815260200160002060008773ffffffffffffffffffffffffffffffffffffffff1673ffffffffffffffffffffffffffffffffffffffff168152602001908152602001600020546040518082815260200191505060405180910390a36001905092915050565b6000610cb0838361129e565b6001905092915050565b60008060008373ffffffffffffffffffffffffffffffffffffffff1673ffffffffffffffffffffffffffffffffffffffff168152602001908152602001600020549050919050565b606060048054600181600116156101000203166002900480601f016020809104026020016040519081016040528092919081815260200182805460018160011615610100020316600290048015610d9a5780601f10610d6f57610100808354040283529160200191610d9a565b820191906000526020600020905b815481529060010190602001808311610d7d57829003601f168201915b5050505050905090565b6000610db083836113f2565b6001905092915050565b60008073ffffffffffffffffffffffffffffffffffffffff168373ffffffffffffffffffffffffffffffffffffffff1614151515610df757600080fd5b610e8682600160003373ffffffffffffffffffffffffffffffffffffffff1673ffffffffffffffffffffffffffffffffffffffff16815260200190815260200160002060008673ffffffffffffffffffffffffffffffffffffffff1673ffffffffffffffffffffffffffffffffffffffff1681526020019081526020016000205461108f90919063ffffffff16565b600160003373ffffffffffffffffffffffffffffffffffffffff1673ffffffffffffffffffffffffffffffffffffffff16815260200190815260200160002060008573ffffffffffffffffffffffffffffffffffffffff1673ffffffffffffffffffffffffffffffffffffffff168152602001908152602001600020819055508273ffffffffffffffffffffffffffffffffffffffff163373ffffffffffffffffffffffffffffffffffffffff167f8c5be1e5ebec7d5bd14f71427d1e84f3dd0314c0f7b2291e5b200ac8c7c3b925600160003373ffffffffffffffffffffffffffffffffffffffff1673ffffffffffffffffffffffffffffffffffffffff16815260200190815260200160002060008773ffffffffffffffffffffffffffffffffffffffff1673ffffffffffffffffffffffffffffffffffffffff168152602001908152602001600020546040518082815260200191505060405180910390a36001905092915050565b6000610ffe3384846110b1565b6001905092915050565b6000600160008473ffffffffffffffffffffffffffffffffffffffff1673ffffffffffffffffffffffffffffffffffffffff16815260200190815260200160002060008373ffffffffffffffffffffffffffffffffffffffff1673ffffffffffffffffffffffffffffffffffffffff16815260200190815260200160002054905092915050565b60008282111515156110a057600080fd5b600082840390508091505092915050565b600073ffffffffffffffffffffffffffffffffffffffff168273ffffffffffffffffffffffffffffffffffffffff16141515156110ed57600080fd5b61113e816000808673ffffffffffffffffffffffffffffffffffffffff1673ffffffffffffffffffffffffffffffffffffffff1681526020019081526020016000205461108f90919063ffffffff16565b6000808573ffffffffffffffffffffffffffffffffffffffff1673ffffffffffffffffffffffffffffffffffffffff168152602001908152602001600020819055506111d1816000808573ffffffffffffffffffffffffffffffffffffffff1673ffffffffffffffffffffffffffffffffffffffff1681526020019081526020016000205461127d90919063ffffffff16565b6000808473ffffffffffffffffffffffffffffffffffffffff1673ffffffffffffffffffffffffffffffffffffffff168152602001908152602001600020819055508173ffffffffffffffffffffffffffffffffffffffff168373ffffffffffffffffffffffffffffffffffffffff167fddf252ad1be2c89b69c2b068fc378daa952ba7f163c4a11628f55a4df523b3ef836040518082815260200191505060405180910390a3505050565b600080828401905083811015151561129457600080fd5b8091505092915050565b600073ffffffffffffffffffffffffffffffffffffffff168273ffffffffffffffffffffffffffffffffffffffff16141515156112da57600080fd5b6112ef8160025461127d90919063ffffffff16565b600281905550611346816000808573ffffffffffffffffffffffffffffffffffffffff1673ffffffffffffffffffffffffffffffffffffffff1681526020019081526020016000205461127d90919063ffffffff16565b6000808473ffffffffffffffffffffffffffffffffffffffff1673ffffffffffffffffffffffffffffffffffffffff168152602001908152602001600020819055508173ffffffffffffffffffffffffffffffffffffffff16600073ffffffffffffffffffffffffffffffffffffffff167fddf252ad1be2c89b69c2b068fc378daa952ba7f163c4a11628f55a4df523b3ef836040518082815260200191505060405180910390a35050565b600073ffffffffffffffffffffffffffffffffffffffff168273ffffffffffffffffffffffffffffffffffffffff161415151561142e57600080fd5b6114438160025461108f90919063ffffffff16565b60028190555061149a816000808573ffffffffffffffffffffffffffffffffffffffff1673ffffffffffffffffffffffffffffffffffffffff1681526020019081526020016000205461108f90919063ffffffff16565b6000808473ffffffffffffffffffffffffffffffffffffffff1673ffffffffffffffffffffffffffffffffffffffff16815260200190815260200160002081905550600073ffffffffffffffffffffffffffffffffffffffff168273ffffffffffffffffffffffffffffffffffffffff167fddf252ad1be2c89b69c2b068fc378daa952ba7f163c4a11628f55a4df523b3ef836040518082815260200191505060405180910390a3505056fea165627a7a723058205e693b6595eef6e2b0696421cc765f69f9856c1c37862659422c1296c198b57e0029",
  "source": "pragma solidity >=0.4.22 <0.6.0;\n\nimport \"../node_modules/openzeppelin-solidity/contracts/math/SafeMath.sol\";\nimport \"../node_modules/openzeppelin-solidity/contracts/ownership/Ownable.sol\";\nimport \"./BehaviourToken.sol\";\nimport \"./BikeSharing.sol\";\n\n/** @title Insurance contract for the Bike Shop. */\n\ncontract Insurance is Ownable {\n\n    using SafeMath for uint256;\n\n    /*\n                Constants regarding the Insurance company \n            \n    Premium = the money you pay the insurer to buy the \"promise\" to be paid back if an incident occurs with the bike\n    Retention = portion of the payback that is not paid back to the user\n    Claim/token ratio = how many tokens does one need to redeem in order to decrease one's claim count ?\n    Token_reward = how many tokens will one good ride give you ? \n    */ \n\n    uint256 constant public INSURANCE_RETENTION = 100 finney;\n    uint256 constant public CLAIM_TOKEN_RATIO = 5;\n    uint256 constant public PREMIUM_RATE = 10 finney;\n    uint256 constant public TOKEN_REWARD = 1;\n\n    /* Global Storage Variables */ \n    address insurer;                    // insurer's address\n    uint256 premiumRate;                // premium rate \n    uint256 retentionAmount;            // amount to be deducted of paybacks\n    address[] insuredList;              // list of insurance clients addresses\n    uint256 tokenRewardFactor;          // token reward factor (1 good ride = how many tokens ?)\n    uint256 claimTokenRatio;            // claim/token ratio (how many tokens can do -1 claim in history ?)\n    bool internal stopSwitch;           // Emergency switch to stop all functioning\n    \n    // Mappings\n    mapping(address => bool) isClientInsured; // Mapping to keep track of a client's insurance status\n    mapping(address => InsuranceClient) insuranceMapping; // Mapping to a client's insurance data\n\n    // Insurance client data struct\n    struct InsuranceClient {\n        uint256 insuredListPointer;     // Number of client in list\n        uint256 totalPremiumPaid;       // Total of the premia paid by insurer\n        uint256 totalRides;             // Total ride count\n        uint256 grossClaims;            // Real counter of claims (total)\n        uint256 netClaims;              // Net claims (after token redemptions by client)\n        uint256 grossTokens;            // Total number of tokens earned so far\n        uint256 nbTokensOwned;          // How many tokens the client actually has\n        uint256 nbPaybacks;             // Count of paybacks given to user\n        uint256 paybackAmount;          // Total amount paid back to user\n    }\n\n    /* Instances from other contracts */\n    BikeSharing bikeSharing;            // The bikeshop instance\n    BehaviourToken behaviourToken;      // The token instance (will be deployed by this contract)\n\n    /*\n    ================================================================\n                                Events\n    ================================================================\n    */\n\n    /// @dev Is the bike shop contract correctly referred to ? \n    /// @param bikeShopAddress The address of the BikeShop contract\n    event BikeShopLinked(address indexed bikeShopAddress);\n    /// @dev Is the token contract correctly deployed ? \n    /// @param newTokenAddress The address of the deployed token contract\n    event TokenCreated(address indexed newTokenAddress);\n    /// @dev A new insurance client should be created\n    /// @param insAdr The account address of the new client\n    event InsuranceClientCreated(address indexed insAdr);    \n    \n    /// @dev How many new rides did the user make ?\n    /// @param client The client's address\n    /// @param newValue The new ride count of the client\n    /// @param byHowMuch The variation from old value (newValue - byHowMuch = oldValue)\n    event RidesCountUpdate(address indexed client, uint256 newValue, uint256 byHowMuch);\n\n    /// @dev How much is the total payback amount ? \n    event TotalPaybackAmountUpdate(address indexed client, uint256 newValue, uint256 byHowMuch);\n    /// @dev How much is the claims count ? \n    event ClaimsUpdate(address indexed client, uint256 newValue, uint256 byHowMuch);\n    /// @dev How much is the net claims count ? \n    event NetClaimsUpdate(address indexed client, uint256 newValue, uint256 byHowMuch);\n    /// @dev How much is the total premium amount paid by the user ?\n    event PremiumAmountUpdate(address indexed client, uint256 newValue, uint256 byHowMuch);\n    /// @dev How much is the payback count after update ?\n    event TotalPaybacksUpdate(address indexed client, uint256 newValue, uint256 byHowMuch);\n    /// @dev How many claims have been repaid ? \n    event ClaimsRepaid(uint256 count, uint256 totalAmount);\n    /// @dev How many tokens has the client earned so far ? \n    event TokenUpdate(address indexed client, uint256 newValue, uint256 byHowMuch);\n    /// @dev How many tokens does the client have ? \n    event OwnedTokenUpdate(address indexed client, uint256 newValue, uint256 byHowMuch);\n\n    /// @dev Approval for a rider for an amount of tokens\n    event TokenApproved(address indexed _riderAddress, uint256 _rewardAmount);\n    /// @dev The amount of tokens due was paid\n    event TokenPaid(address indexed insuredAddress, uint256 amount);\n    /// @dev The how many tokens redeemed how many claims\n    event TokensClaimExchange (address indexed from, uint256 nbTokens, uint256 claimsInvolved);\n    \n    /// @dev Deposit occurred\n    event Deposit(address indexed sender, uint256 value);\n    /// @dev The switch changed\n    event StopSwitchChanged(bool currentStatus);\n\n    /*\n    ================================================================\n                                Modifiers\n    ================================================================\n    */\n\n    /// @dev Is the client insured ? \n    /// @param _address The client's address\n    modifier insuredClient (address _address) {\n        require(isClientInsured[_address] == true);\n        _;\n    }\n\n    /// @dev Is the function's input non-nil ?\n    /// @param _input The function's argument that is tested\n    modifier positiveInput (uint256 _input) {\n        require(_input > 0);\n        _;\n    }\n    \n    /// @dev Emergency switch to prevent a function from executing\n    modifier emergencyStop() {\n        require(!stopSwitch);\n        _;\n    }\n\n    /*\n    ================================================================\n                                Constructor\n    ================================================================\n    */\n\n    /** @dev Build insurance contract after linking it to the bike contract, and deploy the reward token.\n      * @param _shopAddress The bike shop's address.\n      * @param _name The token's name\n      * @param _tokenSymbol The token's symbol\n      */\n\n    constructor(address payable _shopAddress, string memory _name, string memory _tokenSymbol)\n        public \n        Ownable()\n    {\n        insurer = msg.sender;\n        claimTokenRatio = CLAIM_TOKEN_RATIO;\n        premiumRate = PREMIUM_RATE;\n        retentionAmount = INSURANCE_RETENTION;\n        tokenRewardFactor = TOKEN_REWARD; \n        \n        behaviourToken = new BehaviourToken(_name, _tokenSymbol);\n        emit TokenCreated(address(behaviourToken));\n\n        bikeSharing = BikeSharing(_shopAddress);\n        emit BikeShopLinked(address(bikeSharing));\n    }\n\n\n    /*\n    ================================================================\n                        Insurance functions\n    ================================================================\n    */\n\n    /** @dev Underwrite (=deliver an insurance contract) to a client\n      * @return success The client should be insured\n    */\n\n    function underwriteInsurance()\n        external\n        payable\n        emergencyStop\n        returns (bool success)\n    {\n        \n        require(isClientInsured[msg.sender]==false);  // The client must not be a client already      \n        require(msg.value == premiumRate);            // The client must pay the 1st premium upfront\n\n        // Create a user status\n        insuranceMapping[msg.sender] = InsuranceClient(\n            {\n                insuredListPointer: insuredList.push(msg.sender) - 1,\n                totalPremiumPaid: msg.value,\n                totalRides: 0,\n                grossClaims: 0,\n                netClaims: 0,\n                grossTokens: 0,\n                nbTokensOwned: 0,\n                nbPaybacks: 0,\n                paybackAmount: 0\n            }\n        );\n        \n        isClientInsured[msg.sender] = true;           // Finally, include client in the mapping\n        emit InsuranceClientCreated(msg.sender);      // Emit an event\n\n        return isClientInsured[msg.sender];\n    }\n\n    /** @dev The \"main\" function that allows customers to pay their premia, update their claims count, get their paybacks and receive their rewards\n      * @return success The function successfully regularized all payments\n    */\n\n    function regularizePayments ()\n        external\n        payable\n        insuredClient(msg.sender)\n        emergencyStop\n        returns (bool success)\n    {\n        uint256 newRides = getNewRides(msg.sender);               // First get the number of new rides\n        if (newRides == 0) return true;                           // If no new rides were performed, function returns\n\n        uint256 pendingPremia = getPendingPremia(msg.sender);     // Get pending premia for people with new rides\n        require (msg.value == pendingPremia);                     // The value paid by user must correspond to the due premia\n\n        updateRides(msg.sender);                                  // The rides count must be updated\n        updatePremiumPaid(pendingPremia, msg.sender);             // The premium count must be updated\n\n        uint256 pendingBadRides = getPendingBadRides(msg.sender); // Get count of new claims\n        require(pendingBadRides <= newRides);\n\n        if (pendingBadRides != 0) {\n            // The claims count is updated\n            updateClaims(pendingBadRides, msg.sender);\n            uint256 paybackAmount = pendingBadRides.mul(getClaimAmount(bikeSharing.getBikeValue(), retentionAmount));\n            // The payback is updated if it is non-nil\n            if (paybackAmount != 0) {\n                updatePayback(paybackAmount, pendingBadRides, msg.sender);\n                msg.sender.call.value(paybackAmount);\n                emit ClaimsRepaid(pendingBadRides, paybackAmount);\n            }\n        }\n\n        // Check consistency with claims number and paybacks\n        InsuranceClient memory insured = insuranceMapping[msg.sender]; \n        require(insured.grossClaims - insured.nbPaybacks == 0);\n        \n        // Distribute rewards\n        uint256 pendingTokens = getPendingTokens(msg.sender); \n        require(insured.grossTokens + pendingTokens == bikeSharing.getGoodRides(msg.sender));\n        \n        if (pendingTokens > 0) {\n            emit TokenApproved(msg.sender, pendingTokens);\n            // Mint a token for the user\n            behaviourToken.mint(msg.sender, pendingTokens);\n            emit TokenPaid(msg.sender, pendingTokens);\n            // Finally, upate the token count\n            updateTokenCount(pendingTokens, msg.sender);\n        }\n        \n        return true;\n    }\n\n    /** @dev Function allowing the insurance client to redeem a few tokens against a reduction in claims history\n      * @param nbTokens The number of tokens the client wants to redeem\n      * @return success The function successfully burnt the redeemed tokens\n    */\n    function tokenClaimReducer(uint256 nbTokens)\n        external\n        insuredClient(msg.sender)\n        positiveInput(nbTokens)\n        returns (bool success)\n    {\n        require(nbTokens >= claimTokenRatio);\n\n        InsuranceClient storage insured = insuranceMapping[msg.sender];\n        require(insured.nbTokensOwned >= nbTokens);\n        require(insured.netClaims > 0);\n\n        (uint256 claimsToDecrease, uint256 exchangedTokens) = tokenAccounting(nbTokens);\n        // Burn tokens \n        behaviourToken.burn(msg.sender, exchangedTokens);\n        // Keep accounting\n        insured.nbTokensOwned -= exchangedTokens;\n        insured.netClaims -= claimsToDecrease;\n    \n        emit TokensClaimExchange(msg.sender, nbTokens, claimsToDecrease);\n    \n        return true;\n\n    }\n\n    /*\n    ================================================================\n                            View functions\n    ================================================================\n    */\n\n    /** @dev Check the premium applicable to one address\n      * @param insuranceTaker The address of the insurance buyer\n      * @return premium The premium eligible to the address (depending on the customer's past claims)\n    */    \n    function calculatePremium(address insuranceTaker) \n        internal\n        view\n        insuredClient(insuranceTaker)\n        returns (uint256 premium)\n    {\n        InsuranceClient memory customer = insuranceMapping[insuranceTaker];\n        return (customer.netClaims + 1).mul(premiumRate);\n    }\n\n    /// @dev View the Premium that is owed to Insurer\n    /// @param insuredAddress The address of the user\n    /// @return pendingPremia The premia that are still due for the rides.\n    function getPendingPremia (address insuredAddress)\n        view\n        public\n        returns (uint256 pendingPremia)\n    {   \n        uint256 newRides = getNewRides(insuredAddress);\n        return newRides.mul(calculatePremium(insuredAddress));\n    }\n\n    /// @dev Retrive the claim amount that will be paid back to the client\n    /// @param grossAmount The value of the claim to repay the client.\n    /// @param retention The retention (portion of value not reimbursed to client).\n    /// @return claimAount The amount that will be paid back to user\n    function getClaimAmount(uint256 grossAmount, uint256 retention)\n        pure\n        internal\n        returns (uint256 claimAmount)\n    {\n        return grossAmount.sub(retention);\n    }\n\n    /// @dev Reads the number of rides (difference between insurance and bike data) \n    /// @param insuredAddress The address of the user\n    /// @return countNewRides The new rides done by the user\n    function getNewRides (address insuredAddress)\n        internal\n        view\n        returns (uint256 countNewRides) \n    {\n        InsuranceClient memory insured = insuranceMapping[insuredAddress];\n        uint256 ridesCount = bikeSharing.getTotalRides(insuredAddress);\n\n        if (ridesCount > insured.totalRides) {\n            uint256 newRides = ridesCount.sub(insured.totalRides);\n            return newRides;\n        } else {\n            return 0;\n        }\n    }\n\n    /// @dev Get the number of bad rides that is not yet taken into account by insurer \n    /// @param insuredAddress The address of the user\n    /// @return countBadRides The \"bad\" rides done by the user\n    function getPendingBadRides (address insuredAddress)\n        internal\n        view\n        returns (uint256 countBadRides)\n    {\n        InsuranceClient memory insured = insuranceMapping[insuredAddress];\n        uint256 numberBadRides = bikeSharing.getTotalRides(insuredAddress).sub(bikeSharing.getGoodRides(insuredAddress));\n        return numberBadRides.sub(insured.nbPaybacks);\n    }\n\n    /// @dev Get number of tokens the user is eligible to but hasn't received yet\n    /// @param insuredAddress The address of the user\n    /// @return pendingTokens The tokens owed to the user\n    function getPendingTokens (address insuredAddress)\n        private\n        view\n        returns (uint256 pendingTokens)\n    {\n        //address insuredAddress = msg.sender;\n        InsuranceClient memory insured = insuranceMapping[insuredAddress];\n        uint256 tokenEligibleRides = bikeSharing.getGoodRides(insuredAddress);\n        return (tokenEligibleRides.sub(insured.grossTokens)).mul(tokenRewardFactor);\n    }\n\n    /// @dev A number of tokens is being evaluated to define how many claims it can decrease\n    /// @param nbTokens The number of tokens one wishes to redeem\n    /// @return claimsToDecrease The claims that can be decreased with nbTokens\n    /// @return exchangedTokens The tokens that will be exchanged to decrease the claims.\n    function tokenAccounting(uint256 nbTokens)\n        internal\n        view\n        positiveInput(nbTokens)\n        returns (uint256 claimsToDecrease, uint256 exchangedTokens)\n    {\n        claimsToDecrease = nbTokens.div(claimTokenRatio);\n        uint256 surplus = nbTokens.mod(claimTokenRatio);\n        exchangedTokens = nbTokens.sub(surplus);\n\n        return (claimsToDecrease, exchangedTokens);\n    }\n\n    /// @dev Get the data history that insurer has on a client\n    /// @param insuredAddress The address of the user\n    /// @return insuredListPointer The rank in terms of subscription of a client\n    /// @return totalPremiumPaid The total premium received by the insurer from the client\n    /// @return totalRides The total count of rides done by user\n    /// @return grossClaims The history of claims\n    /// @return netClaims The claims count according to which the premium is calculated\n    /// @return grossTokens The history of received tokens\n    /// @return nbTokensOwned The tokens effectively owned by the user\n    /// @return nbPaybacks The paybackts count for a user\n    /// @return paybackAmount How much did I pay in payback to this user\n    function viewInsuranceStatus (address insuredAddress)\n        external\n        view\n        returns (uint256 insuredListPointer, uint256 totalPremiumPaid, \n        uint256 totalRides, uint256 grossClaims, uint256 netClaims,\n        uint256 grossTokens, uint256 nbTokensOwned, uint256 nbPaybacks, uint256 paybackAmount)\n    {\n        InsuranceClient memory client = insuranceMapping[insuredAddress];\n        return (client.insuredListPointer, client.totalPremiumPaid, client.totalRides, \n        client.grossClaims, client.netClaims, client.grossTokens, client.nbTokensOwned, \n        client.nbPaybacks, client.paybackAmount);\n    }\n    \n    /*\n    ================================================================\n                            Updating functions\n    ================================================================\n    */\n\n    /// @dev The payback data in client's struct is updated\n    /// @param paybackAmount The amount that is paid back to the user\n    /// @param pendingBadRides The bad rides that are accounted for, that have to be paid back\n    /// @param insuredAddress The client's address\n    function updatePayback (uint256 paybackAmount, uint256 pendingBadRides, address insuredAddress)\n        internal\n        positiveInput(paybackAmount)\n        positiveInput(pendingBadRides)\n    {\n        InsuranceClient storage insured = insuranceMapping[insuredAddress];\n        insured.nbPaybacks += pendingBadRides;\n        emit TotalPaybacksUpdate(insuredAddress, insured.nbPaybacks, pendingBadRides);\n        insured.paybackAmount += paybackAmount;\n        emit TotalPaybackAmountUpdate(insuredAddress, insured.paybackAmount, paybackAmount);        \n    }\n\n    /// @dev The number of rides of a client is updated\n    /// @param insuredAddress The client's address\n    function updateRides (address insuredAddress)\n        internal\n    {\n        uint256 newRides = getNewRides(insuredAddress);\n        InsuranceClient storage insured = insuranceMapping[insuredAddress];\n        insured.totalRides += newRides;\n        emit RidesCountUpdate(insuredAddress, insured.totalRides, newRides);\n    }\n\n\n    /// @dev The total premium paid by user is updated\n    /// @param premiumAmount The amount that is paid back to the user\n    /// @param insuredAddress The client's address\n    function updatePremiumPaid (uint256 premiumAmount, address insuredAddress)\n        internal\n        positiveInput(premiumAmount)\n    {\n        InsuranceClient storage insured = insuranceMapping[insuredAddress];\n        insured.totalPremiumPaid += premiumAmount;\n        emit PremiumAmountUpdate(insuredAddress, insured.totalPremiumPaid, premiumAmount);\n    }\n\n    /// @dev The claims data is reconciled with the number of bad rides read from BikeShop contract\n    /// @param pendingBadRides The bad rides that are accounted for, that have to be paid back\n    /// @param insuredAddress The client's address\n    function updateClaims (uint256 pendingBadRides, address insuredAddress) \n        internal\n        positiveInput(pendingBadRides)\n    {\n        InsuranceClient storage insured = insuranceMapping[insuredAddress];\n        insured.grossClaims += pendingBadRides;\n        emit ClaimsUpdate(insuredAddress, insured.grossClaims, pendingBadRides);\n        insured.netClaims += pendingBadRides;\n        emit NetClaimsUpdate(insuredAddress, insured.netClaims, pendingBadRides);\n    }\n\n    /// @dev The count of tokens gained by the user is updated\n    /// @param pendingTokens The tokens that are owed to the client\n    /// @param insuredAddress The client's address\n    function updateTokenCount (uint256 pendingTokens, address insuredAddress)\n        internal\n        positiveInput(pendingTokens)\n    {\n        InsuranceClient storage insured = insuranceMapping[insuredAddress];\n        insured.grossTokens += pendingTokens;\n        emit TokenUpdate(insuredAddress, insured.grossTokens, pendingTokens);\n        insured.nbTokensOwned += pendingTokens;\n        emit TokenUpdate(insuredAddress, insured.nbTokensOwned, pendingTokens);\n    }\n      \n    /* \n    ================================================================\n                            Getter functions\n    ================================================================\n    */\n    \n    /** @dev Allow for external user (or test script) to check if a client is insured\n      * @param clientAdr The user's address\n      * @return isIndeed Boolean for a client's insured status\n      */\n    function isInsured(address clientAdr) \n        external \n        view \n        returns (bool isIndeed)\n    {\n        return isClientInsured[clientAdr] == true;\n    }\n\n    /** @dev Allow for external user (or test script) to count the clients\n      * @return clientCount Count (integer) of total users\n    */\n    function insuredClientsCount()\n        external\n        view\n        returns (uint256 clientCount)\n    {\n        return insuredList.length;\n    }\n\n   /** @dev Allow external user (or test script) to know the premium rate\n      * @return rate The applicable rate (at underwriting and for pay-as-you-drive payments)\n    */ \n    function getPremiumRate()\n        external\n        view\n        returns (uint256 rate)\n    {\n        return premiumRate;\n    }\n\n   /** @dev Allow external user (or test script) to know the claimTokenRatio\n      * @return ratio The applicable ratio\n    */ \n    function getClaimTokenRatio()\n        external\n        view\n        returns (uint256 ratio)\n    {\n        return claimTokenRatio;\n    }\n\n\n    /* \n    ================================================================\n                            Fallback function\n    ================================================================\n    */\n\n   /** @dev Fallback function to allow only the owner of the Insurance contract to deposit value \n    */ \n    function ()\n        external\n        payable\n        onlyOwner()\n    {\n        if (msg.value > 0) {\n            emit Deposit(msg.sender, msg.value);\n        }\n    }\n\n    /* \n    ================================================================\n                            Emergency switch\n    ================================================================\n    */\n\n   /** @dev Emergency switch\n    * @return alarmOn A boolean that blocks function execution if true.\n    */ \n\n    function emergencySwitch()\n        external\n        onlyOwner()\n        returns (bool alarmOn)\n    {\n        if (stopSwitch == false) {\n            stopSwitch = true;\n        } else {\n            stopSwitch = false;\n        }\n        \n        emit StopSwitchChanged(stopSwitch);\n        \n        return stopSwitch;\n    }\n\n}",
  "sourcePath": "/Users/HenriYQ/Desktop/final-project-hyqiu/contracts/Insurance.sol",
  "compiler": {
    "name": "solc",
    "version": "0.5.0+commit.1d4f565a.Emscripten.clang"
  },
  "schemaVersion": "3.0.0",
  "updatedAt": "2019-01-27T23:51:45.613Z",
  "devdoc": {
    "methods": {
      "constructor": {
        "details": "Build insurance contract after linking it to the bike contract, and deploy the reward token.",
        "params": {
          "_name": "The token's name",
          "_shopAddress": "The bike shop's address.",
          "_tokenSymbol": "The token's symbol"
        }
      },
      "emergencySwitch()": {
        "details": "Emergency switch",
        "return": "alarmOn A boolean that blocks function execution if true."
      },
      "getClaimTokenRatio()": {
        "details": "Allow external user (or test script) to know the claimTokenRatio",
        "return": "ratio The applicable ratio"
      },
      "getPendingPremia(address)": {
        "details": "View the Premium that is owed to Insurer",
        "params": {
          "insuredAddress": "The address of the user"
        },
        "return": "pendingPremia The premia that are still due for the rides."
      },
      "getPremiumRate()": {
        "details": "Allow external user (or test script) to know the premium rate",
        "return": "rate The applicable rate (at underwriting and for pay-as-you-drive payments)"
      },
      "insuredClientsCount()": {
        "details": "Allow for external user (or test script) to count the clients",
        "return": "clientCount Count (integer) of total users"
      },
      "isInsured(address)": {
        "details": "Allow for external user (or test script) to check if a client is insured",
        "params": {
          "clientAdr": "The user's address"
        },
        "return": "isIndeed Boolean for a client's insured status"
      },
      "isOwner()": {
        "return": "true if `msg.sender` is the owner of the contract."
      },
      "owner()": {
        "return": "the address of the owner."
      },
      "regularizePayments()": {
        "details": "The \"main\" function that allows customers to pay their premia, update their claims count, get their paybacks and receive their rewards",
        "return": "success The function successfully regularized all payments"
      },
      "renounceOwnership()": {
        "details": "Allows the current owner to relinquish control of the contract."
      },
      "tokenClaimReducer(uint256)": {
        "details": "Function allowing the insurance client to redeem a few tokens against a reduction in claims history",
        "params": {
          "nbTokens": "The number of tokens the client wants to redeem"
        },
        "return": "success The function successfully burnt the redeemed tokens"
      },
      "transferOwnership(address)": {
        "details": "Allows the current owner to transfer control of the contract to a newOwner.",
        "params": {
          "newOwner": "The address to transfer ownership to."
        }
      },
      "underwriteInsurance()": {
        "details": "Underwrite (=deliver an insurance contract) to a client",
        "return": "success The client should be insured"
      },
      "viewInsuranceStatus(address)": {
        "details": "Get the data history that insurer has on a client",
        "params": {
          "insuredAddress": "The address of the user"
        },
        "return": "insuredListPointer The rank in terms of subscription of a clienttotalPremiumPaid The total premium received by the insurer from the clienttotalRides The total count of rides done by usergrossClaims The history of claimsnetClaims The claims count according to which the premium is calculatedgrossTokens The history of received tokensnbTokensOwned The tokens effectively owned by the usernbPaybacks The paybackts count for a userpaybackAmount How much did I pay in payback to this user"
      }
    },
    "title": "Insurance contract for the Bike Shop. "
  },
  "userdoc": {
    "methods": {
      "renounceOwnership()": {
        "notice": "Renouncing to ownership will leave the contract without an owner. It will not be possible to call the functions with the `onlyOwner` modifier anymore."
      }
    }
  }
}