{
  "contractName": "BikeSharing",
  "abi": [
    {
      "constant": true,
      "inputs": [],
      "name": "MINUTE_FACTOR",
      "outputs": [
        {
          "name": "",
          "type": "uint256"
        }
      ],
      "payable": false,
      "stateMutability": "view",
      "type": "function"
    },
    {
      "constant": true,
      "inputs": [],
      "name": "RENT_FEE",
      "outputs": [
        {
          "name": "",
          "type": "uint256"
        }
      ],
      "payable": false,
      "stateMutability": "view",
      "type": "function"
    },
    {
      "constant": true,
      "inputs": [],
      "name": "TIME_LIMIT",
      "outputs": [
        {
          "name": "",
          "type": "uint256"
        }
      ],
      "payable": false,
      "stateMutability": "view",
      "type": "function"
    },
    {
      "constant": true,
      "inputs": [
        {
          "name": "",
          "type": "uint256"
        }
      ],
      "name": "clientList",
      "outputs": [
        {
          "name": "",
          "type": "address"
        }
      ],
      "payable": false,
      "stateMutability": "view",
      "type": "function"
    },
    {
      "constant": true,
      "inputs": [
        {
          "name": "",
          "type": "address"
        }
      ],
      "name": "clientMapping",
      "outputs": [
        {
          "name": "clientListPointer",
          "type": "uint256"
        },
        {
          "name": "state",
          "type": "uint8"
        },
        {
          "name": "received",
          "type": "uint256"
        },
        {
          "name": "returned",
          "type": "uint256"
        },
        {
          "name": "numberRides",
          "type": "uint256"
        },
        {
          "name": "goodRides",
          "type": "uint256"
        }
      ],
      "payable": false,
      "stateMutability": "view",
      "type": "function"
    },
    {
      "constant": true,
      "inputs": [],
      "name": "BIKE_VALUE",
      "outputs": [
        {
          "name": "",
          "type": "uint256"
        }
      ],
      "payable": false,
      "stateMutability": "view",
      "type": "function"
    },
    {
      "constant": true,
      "inputs": [],
      "name": "MAX_BIKE_COUNT",
      "outputs": [
        {
          "name": "",
          "type": "uint256"
        }
      ],
      "payable": false,
      "stateMutability": "view",
      "type": "function"
    },
    {
      "inputs": [],
      "payable": false,
      "stateMutability": "nonpayable",
      "type": "constructor"
    },
    {
      "payable": true,
      "stateMutability": "payable",
      "type": "fallback"
    },
    {
      "anonymous": false,
      "inputs": [
        {
          "indexed": false,
          "name": "bikeId",
          "type": "uint256"
        },
        {
          "indexed": false,
          "name": "renter",
          "type": "address"
        },
        {
          "indexed": false,
          "name": "status",
          "type": "bool"
        }
      ],
      "name": "LogBikeRent",
      "type": "event"
    },
    {
      "anonymous": false,
      "inputs": [
        {
          "indexed": false,
          "name": "sender",
          "type": "address"
        },
        {
          "indexed": false,
          "name": "amount",
          "type": "uint256"
        }
      ],
      "name": "LogReceivedFunds",
      "type": "event"
    },
    {
      "anonymous": false,
      "inputs": [
        {
          "indexed": false,
          "name": "recipient",
          "type": "address"
        },
        {
          "indexed": false,
          "name": "amount",
          "type": "uint256"
        }
      ],
      "name": "LogReturnedFunds",
      "type": "event"
    },
    {
      "anonymous": false,
      "inputs": [
        {
          "indexed": true,
          "name": "sender",
          "type": "address"
        },
        {
          "indexed": false,
          "name": "value",
          "type": "uint256"
        }
      ],
      "name": "Deposit",
      "type": "event"
    },
    {
      "anonymous": false,
      "inputs": [
        {
          "indexed": false,
          "name": "clientAddress",
          "type": "address"
        }
      ],
      "name": "ClientCreated",
      "type": "event"
    },
    {
      "anonymous": false,
      "inputs": [
        {
          "indexed": false,
          "name": "bikeId",
          "type": "uint256"
        }
      ],
      "name": "BikeAvailable",
      "type": "event"
    },
    {
      "anonymous": false,
      "inputs": [
        {
          "indexed": false,
          "name": "clientAddress",
          "type": "address"
        }
      ],
      "name": "ClientGoodToGo",
      "type": "event"
    },
    {
      "anonymous": false,
      "inputs": [
        {
          "indexed": false,
          "name": "bikeId",
          "type": "uint256"
        }
      ],
      "name": "BikeInRide",
      "type": "event"
    },
    {
      "anonymous": false,
      "inputs": [
        {
          "indexed": false,
          "name": "clientAddress",
          "type": "address"
        }
      ],
      "name": "ClientInRide",
      "type": "event"
    },
    {
      "anonymous": false,
      "inputs": [
        {
          "indexed": false,
          "name": "bikeId",
          "type": "uint256"
        }
      ],
      "name": "BikeDeactivated",
      "type": "event"
    },
    {
      "anonymous": false,
      "inputs": [
        {
          "indexed": false,
          "name": "bikeId",
          "type": "uint256"
        }
      ],
      "name": "BikeInitiated",
      "type": "event"
    },
    {
      "constant": true,
      "inputs": [
        {
          "name": "bikeId",
          "type": "uint256"
        }
      ],
      "name": "isBikeFirstUse",
      "outputs": [
        {
          "name": "isFirstTime",
          "type": "bool"
        }
      ],
      "payable": false,
      "stateMutability": "view",
      "type": "function"
    },
    {
      "constant": true,
      "inputs": [],
      "name": "getClientCount",
      "outputs": [
        {
          "name": "clientCount",
          "type": "uint256"
        }
      ],
      "payable": false,
      "stateMutability": "view",
      "type": "function"
    },
    {
      "constant": true,
      "inputs": [
        {
          "name": "clientAdr",
          "type": "address"
        }
      ],
      "name": "isClient",
      "outputs": [
        {
          "name": "isIndeed",
          "type": "bool"
        }
      ],
      "payable": false,
      "stateMutability": "view",
      "type": "function"
    },
    {
      "constant": true,
      "inputs": [],
      "name": "getBalance",
      "outputs": [
        {
          "name": "balance",
          "type": "uint256"
        }
      ],
      "payable": false,
      "stateMutability": "view",
      "type": "function"
    },
    {
      "constant": true,
      "inputs": [
        {
          "name": "duration",
          "type": "uint256"
        }
      ],
      "name": "calculateFee",
      "outputs": [
        {
          "name": "",
          "type": "uint256"
        }
      ],
      "payable": false,
      "stateMutability": "view",
      "type": "function"
    },
    {
      "constant": false,
      "inputs": [
        {
          "name": "bikeId",
          "type": "uint256"
        }
      ],
      "name": "rentBike",
      "outputs": [
        {
          "name": "success",
          "type": "bool"
        }
      ],
      "payable": true,
      "stateMutability": "payable",
      "type": "function"
    },
    {
      "constant": false,
      "inputs": [
        {
          "name": "bikeId",
          "type": "uint256"
        },
        {
          "name": "newCondition",
          "type": "bool"
        }
      ],
      "name": "surrenderBike",
      "outputs": [
        {
          "name": "success",
          "type": "bool"
        }
      ],
      "payable": false,
      "stateMutability": "nonpayable",
      "type": "function"
    },
    {
      "constant": true,
      "inputs": [
        {
          "name": "clientAdr",
          "type": "address"
        }
      ],
      "name": "getTotalRides",
      "outputs": [
        {
          "name": "totalRidesCount",
          "type": "uint256"
        }
      ],
      "payable": false,
      "stateMutability": "view",
      "type": "function"
    },
    {
      "constant": true,
      "inputs": [
        {
          "name": "clientAdr",
          "type": "address"
        }
      ],
      "name": "getGoodRides",
      "outputs": [
        {
          "name": "goodRidesCount",
          "type": "uint256"
        }
      ],
      "payable": false,
      "stateMutability": "view",
      "type": "function"
    },
    {
      "constant": true,
      "inputs": [
        {
          "name": "clientAdr",
          "type": "address"
        }
      ],
      "name": "getReturned",
      "outputs": [
        {
          "name": "returnedAmount",
          "type": "uint256"
        }
      ],
      "payable": false,
      "stateMutability": "view",
      "type": "function"
    },
    {
      "constant": true,
      "inputs": [],
      "name": "getBikeValue",
      "outputs": [
        {
          "name": "bikeValue",
          "type": "uint256"
        }
      ],
      "payable": false,
      "stateMutability": "pure",
      "type": "function"
    }
  ],
  "bytecode": "0x608060405234801561001057600080fd5b50336000806101000a81548173ffffffffffffffffffffffffffffffffffffffff021916908373ffffffffffffffffffffffffffffffffffffffff160217905550670de0b6b3a76400006001819055506601c6bf52634000600281905550611b138061007d6000396000f3fe6080604052600436106100fc576000357c0100000000000000000000000000000000000000000000000000000000900463ffffffff16806312065fe0146101565780631f792e8a1461018157806321404d3e146101ac57806343a8980b146101ff578063467519b8146102645780634c3ff2891461028f5780635a81018a146102ba578063698224ae146102e55780636a2fe7a5146103105780637ad8f2241461038b57806384b7964f146103d157806399a5d7471461043a578063a04319bc14610489578063cb6dee3c1461051f578063ce00b67b1461054a578063dc051b7b146105af578063ed6287ba14610614578063f4bb741314610673575b6000341115610154573373ffffffffffffffffffffffffffffffffffffffff167fe1fffcc4923d04b559f4d29a8bfc6cda04eb5b0d3c460751c2402c5c5cc9109c346040518082815260200191505060405180910390a25b005b34801561016257600080fd5b5061016b61069e565b6040518082815260200191505060405180910390f35b34801561018d57600080fd5b50610196610718565b6040518082815260200191505060405180910390f35b3480156101b857600080fd5b506101e5600480360360208110156101cf57600080fd5b810190808035906020019092919050505061071d565b604051808215151515815260200191505060405180910390f35b34801561020b57600080fd5b5061024e6004803603602081101561022257600080fd5b81019080803573ffffffffffffffffffffffffffffffffffffffff16906020019092919050505061074d565b6040518082815260200191505060405180910390f35b34801561027057600080fd5b50610279610810565b6040518082815260200191505060405180910390f35b34801561029b57600080fd5b506102a4610820565b6040518082815260200191505060405180910390f35b3480156102c657600080fd5b506102cf61082b565b6040518082815260200191505060405180910390f35b3480156102f157600080fd5b506102fa610838565b6040518082815260200191505060405180910390f35b34801561031c57600080fd5b506103496004803603602081101561033357600080fd5b810190808035906020019092919050505061083e565b604051808273ffffffffffffffffffffffffffffffffffffffff1673ffffffffffffffffffffffffffffffffffffffff16815260200191505060405180910390f35b6103b7600480360360208110156103a157600080fd5b810190808035906020019092919050505061087c565b604051808215151515815260200191505060405180910390f35b3480156103dd57600080fd5b50610420600480360360208110156103f457600080fd5b81019080803573ffffffffffffffffffffffffffffffffffffffff1690602001909291905050506111a1565b604051808215151515815260200191505060405180910390f35b34801561044657600080fd5b506104736004803603602081101561045d57600080fd5b81019080803590602001909291905050506111fe565b6040518082815260200191505060405180910390f35b34801561049557600080fd5b506104d8600480360360208110156104ac57600080fd5b81019080803573ffffffffffffffffffffffffffffffffffffffff169060200190929190505050611250565b604051808781526020018660028111156104ee57fe5b60ff168152602001858152602001848152602001838152602001828152602001965050505050505060405180910390f35b34801561052b57600080fd5b50610534611299565b6040518082815260200191505060405180910390f35b34801561055657600080fd5b506105996004803603602081101561056d57600080fd5b81019080803573ffffffffffffffffffffffffffffffffffffffff1690602001909291905050506112a5565b6040518082815260200191505060405180910390f35b3480156105bb57600080fd5b506105fe600480360360208110156105d257600080fd5b81019080803573ffffffffffffffffffffffffffffffffffffffff169060200190929190505050611368565b6040518082815260200191505060405180910390f35b34801561062057600080fd5b506106596004803603604081101561063757600080fd5b810190808035906020019092919080351515906020019092919050505061142b565b604051808215151515815260200191505060405180910390f35b34801561067f57600080fd5b50610688611a15565b6040518082815260200191505060405180910390f35b60008060009054906101000a900473ffffffffffffffffffffffffffffffffffffffff1673ffffffffffffffffffffffffffffffffffffffff163373ffffffffffffffffffffffffffffffffffffffff161415156106fb57600080fd5b3073ffffffffffffffffffffffffffffffffffffffff1631905090565b603c81565b60008015156005600084815260200190815260200160002060009054906101000a900460ff161515149050919050565b6000610757611aa5565b600360008473ffffffffffffffffffffffffffffffffffffffff1673ffffffffffffffffffffffffffffffffffffffff16815260200190815260200160002060c06040519081016040529081600082015481526020016001820160009054906101000a900460ff1660028111156107ca57fe5b60028111156107d557fe5b815260200160028201548152602001600382015481526020016004820154815260200160058201548152505090508060800151915050919050565b6000670de0b6b3a7640000905090565b6601c6bf5263400081565b6000600780549050905090565b6105a081565b60078181548110151561084d57fe5b906000526020600020016000915054906101000a900473ffffffffffffffffffffffffffffffffffffffff1681565b6000816000811015801561089157506103e881105b151561089c57600080fd5b6000809054906101000a900473ffffffffffffffffffffffffffffffffffffffff1673ffffffffffffffffffffffffffffffffffffffff163373ffffffffffffffffffffffffffffffffffffffff16141515156108f857600080fd5b6001543414151561090857600080fd5b6109118361071d565b15610b0f5760a060405190810160405280600073ffffffffffffffffffffffffffffffffffffffff168152602001600115158152602001600015158152602001600081526020016000600281111561096557fe5b8152506004600085815260200190815260200160002060008201518160000160006101000a81548173ffffffffffffffffffffffffffffffffffffffff021916908373ffffffffffffffffffffffffffffffffffffffff16021790555060208201518160000160146101000a81548160ff02191690831515021790555060408201518160000160156101000a81548160ff0219169083151502179055506060820151816001015560808201518160020160006101000a81548160ff02191690836002811115610a3057fe5b021790555090505060016005600085815260200190815260200160002060006101000a81548160ff0219169083151502179055507f4986b064b569c6fa049687ef20f2083e297cbd4b1166eab7b06a9cb410bb6529836040518082815260200191505060405180910390a160016004600085815260200190815260200160002060020160006101000a81548160ff02191690836002811115610ace57fe5b02179055507f375f37c1f2f99b1f18d30a4aadd72486ac0db7eb3a05cb6ae1c5dafaab222f17836040518082815260200191505060405180910390a1610bc4565b600015156004600085815260200190815260200160002060000160159054906101000a900460ff161515141515610b4557600080fd5b600115156004600085815260200190815260200160002060000160149054906101000a900460ff161515141515610b7b57600080fd5b60016002811115610b8857fe5b6004600085815260200190815260200160002060020160009054906101000a900460ff166002811115610bb757fe5b141515610bc357600080fd5b5b610bcd336111a1565b1515610e1d5760c0604051908101604052806000815260200160016002811115610bf357fe5b81526020016000815260200160008152602001600081526020016000815250600360003373ffffffffffffffffffffffffffffffffffffffff1673ffffffffffffffffffffffffffffffffffffffff1681526020019081526020016000206000820151816000015560208201518160010160006101000a81548160ff02191690836002811115610c7f57fe5b021790555060408201518160020155606082015181600301556080820151816004015560a08201518160050155905050600160073390806001815401808255809150509060018203906000526020600020016000909192909190916101000a81548173ffffffffffffffffffffffffffffffffffffffff021916908373ffffffffffffffffffffffffffffffffffffffff16021790555003600360003373ffffffffffffffffffffffffffffffffffffffff1673ffffffffffffffffffffffffffffffffffffffff168152602001908152602001600020600001819055506001600660003373ffffffffffffffffffffffffffffffffffffffff1673ffffffffffffffffffffffffffffffffffffffff16815260200190815260200160002060006101000a81548160ff0219169083151502179055507fbac77b32f9eac52b557987e1084037afcfe4d478ef2fc4c8cdae1eb5f86d40a333604051808273ffffffffffffffffffffffffffffffffffffffff1673ffffffffffffffffffffffffffffffffffffffff16815260200191505060405180910390a1610e92565b60016002811115610e2a57fe5b600360003373ffffffffffffffffffffffffffffffffffffffff1673ffffffffffffffffffffffffffffffffffffffff16815260200190815260200160002060010160009054906101000a900460ff166002811115610e8557fe5b141515610e9157600080fd5b5b600154600360003373ffffffffffffffffffffffffffffffffffffffff1673ffffffffffffffffffffffffffffffffffffffff168152602001908152602001600020600201600082825401925050819055507f81d2c188629cc4a1c694d285150cb5fa3dde3157a2684460d3ac7a1e331f61643334604051808373ffffffffffffffffffffffffffffffffffffffff1673ffffffffffffffffffffffffffffffffffffffff1681526020018281526020019250505060405180910390a1336004600085815260200190815260200160002060000160006101000a81548173ffffffffffffffffffffffffffffffffffffffff021916908373ffffffffffffffffffffffffffffffffffffffff16021790555060016004600085815260200190815260200160002060000160156101000a81548160ff02191690831515021790555042600460008581526020019081526020016000206001018190555060026004600085815260200190815260200160002060020160006101000a81548160ff0219169083600281111561102157fe5b02179055507f3a9700c17404a9ebb47f8e8763496790b26dde6f5d4b715ea94122cb18ad24cb836040518082815260200191505060405180910390a16002600360003373ffffffffffffffffffffffffffffffffffffffff1673ffffffffffffffffffffffffffffffffffffffff16815260200190815260200160002060010160006101000a81548160ff021916908360028111156110bc57fe5b02179055506001600360003373ffffffffffffffffffffffffffffffffffffffff1673ffffffffffffffffffffffffffffffffffffffff168152602001908152602001600020600401600082825401925050819055507f3a6c7957e723fac1b5307315dfa06e7359f36af3e5e447098cc25c40a51a935d33604051808273ffffffffffffffffffffffffffffffffffffffff1673ffffffffffffffffffffffffffffffffffffffff16815260200191505060405180910390a16004600084815260200190815260200160002060000160159054906101000a900460ff16915050919050565b600060011515600660008473ffffffffffffffffffffffffffffffffffffffff1673ffffffffffffffffffffffffffffffffffffffff16815260200190815260200160002060009054906101000a900460ff161515149050919050565b600080611215603c84611a1b90919063ffffffff16565b90506105a081111561122c5760015491505061124b565b600061124360025483611a4590919063ffffffff16565b905080925050505b919050565b60036020528060005260406000206000915090508060000154908060010160009054906101000a900460ff16908060020154908060030154908060040154908060050154905086565b670de0b6b3a764000081565b60006112af611aa5565b600360008473ffffffffffffffffffffffffffffffffffffffff1673ffffffffffffffffffffffffffffffffffffffff16815260200190815260200160002060c06040519081016040529081600082015481526020016001820160009054906101000a900460ff16600281111561132257fe5b600281111561132d57fe5b815260200160028201548152602001600382015481526020016004820154815260200160058201548152505090508060600151915050919050565b6000611372611aa5565b600360008473ffffffffffffffffffffffffffffffffffffffff1673ffffffffffffffffffffffffffffffffffffffff16815260200190815260200160002060c06040519081016040529081600082015481526020016001820160009054906101000a900460ff1660028111156113e557fe5b60028111156113f057fe5b815260200160028201548152602001600382015481526020016004820154815260200160058201548152505090508060a00151915050919050565b60003360011515600660008373ffffffffffffffffffffffffffffffffffffffff1673ffffffffffffffffffffffffffffffffffffffff16815260200190815260200160002060009054906101000a900460ff16151514151561148d57600080fd5b83600081101580156114a057506103e881105b15156114ab57600080fd5b846002808111156114b857fe5b6004600083815260200190815260200160002060020160009054906101000a900460ff1660028111156114e757fe5b1415156114f357600080fd5b3360028081111561150057fe5b600360008373ffffffffffffffffffffffffffffffffffffffff1673ffffffffffffffffffffffffffffffffffffffff16815260200190815260200160002060010160009054906101000a900460ff16600281111561155b57fe5b14151561156757600080fd5b86338073ffffffffffffffffffffffffffffffffffffffff166004600084815260200190815260200160002060000160009054906101000a900473ffffffffffffffffffffffffffffffffffffffff1673ffffffffffffffffffffffffffffffffffffffff161415156115d957600080fd5b6000809054906101000a900473ffffffffffffffffffffffffffffffffffffffff1673ffffffffffffffffffffffffffffffffffffffff163373ffffffffffffffffffffffffffffffffffffffff161415151561163557600080fd5b6000611668611663600460008d81526020019081526020016000206001015442611a8390919063ffffffff16565b6111fe565b9050600061168182600154611a8390919063ffffffff16565b9050600015158a1515141561170857600090506000600460008d815260200190815260200160002060020160006101000a81548160ff021916908360028111156116c757fe5b02179055507f7a46d9c879f6df7defefd4f4e68a71c038944432414f667201560cbe345703e28b6040518082815260200191505060405180910390a161190d565b6001600360003373ffffffffffffffffffffffffffffffffffffffff1673ffffffffffffffffffffffffffffffffffffffff168152602001908152602001600020600501600082825401925050819055503373ffffffffffffffffffffffffffffffffffffffff166108fc829081150290604051600060405180830381858888f1935050505015801561179f573d6000803e3d6000fd5b5080600360003373ffffffffffffffffffffffffffffffffffffffff1673ffffffffffffffffffffffffffffffffffffffff168152602001908152602001600020600301600082825401925050819055507fe0e5873eb9d996d2ab087b071a9a50522121c02b43308c8728c06739f52b3f8733600360003373ffffffffffffffffffffffffffffffffffffffff1673ffffffffffffffffffffffffffffffffffffffff16815260200190815260200160002060030154604051808373ffffffffffffffffffffffffffffffffffffffff1673ffffffffffffffffffffffffffffffffffffffff1681526020018281526020019250505060405180910390a16001600460008d815260200190815260200160002060020160006101000a81548160ff021916908360028111156118d057fe5b02179055507f375f37c1f2f99b1f18d30a4aadd72486ac0db7eb3a05cb6ae1c5dafaab222f178b6040518082815260200191505060405180910390a15b6000600460008d815260200190815260200160002060000160156101000a81548160ff0219169083151502179055506001600360003373ffffffffffffffffffffffffffffffffffffffff1673ffffffffffffffffffffffffffffffffffffffff16815260200190815260200160002060010160006101000a81548160ff0219169083600281111561199b57fe5b02179055507f5fe9ebeb2d32f13f36a82c6c68d5031d31b95db10a1b0dc75367fd42105d40e033604051808273ffffffffffffffffffffffffffffffffffffffff1673ffffffffffffffffffffffffffffffffffffffff16815260200191505060405180910390a160019850505050505050505092915050565b6103e881565b60008082111515611a2b57600080fd5b60008284811515611a3857fe5b0490508091505092915050565b600080831415611a585760009050611a7d565b60008284029050828482811515611a6b57fe5b04141515611a7857600080fd5b809150505b92915050565b6000828211151515611a9457600080fd5b600082840390508091505092915050565b60c0604051908101604052806000815260200160006002811115611ac557fe5b815260200160008152602001600081526020016000815260200160008152509056fea165627a7a723058205594993efb39301d03c5eaa4003d7fc14c4d99be6946cba283d99fa91b2e08590029",
  "source": "pragma solidity >=0.4.22 <0.6.0;\n\nimport \"../node_modules/openzeppelin-solidity/contracts/math/SafeMath.sol\";\n\ncontract BikeSharing {\n\n    using SafeMath for uint256;\n\n    uint256 constant public MAX_BIKE_COUNT = 1000;\n    uint256 constant public BIKE_VALUE = 1 ether;\n    uint256 constant public TIME_LIMIT = 1440; // in minutes\n    uint256 constant public MINUTE_FACTOR = 60;\n    uint256 constant public RENT_FEE = 500 szabo;\n\n    // Hyperparameters\n\n    address bikeAdmin;\n    uint256 requiredDeposit;\n    uint256 fee;\n\n    // Mappings\n    mapping(address => Client) public clientMapping;\n    mapping(uint256 => Bike) bikeMapping; \n    mapping(uint256 => bool) isBikeActive; \n    mapping(address => bool) isBikeClient; \n\n    // ClientLists for count\n\n    address[] public clientList;\n\n    /*\n    ================================================================\n                            Data structures\n    ================================================================\n    */ \n\n    enum BikeState {DEACTIVATED, AVAILABLE, IN_USE}\n    enum ClientState {BANNED, GOOD_TO_GO, IN_RIDE}\n\n    struct Bike {\n        address lastRenter;\n        bool condition;\n        bool currentlyInUse;\n        uint usageTime;\n        BikeState state;\n    }\n    \n    struct Client {\n        uint256 clientListPointer;\n        ClientState state;\n        // For 1 ride, how much received and returned\n        uint256 received;\n        uint256 returned;\n        // Count of number of rides, number of good rides\n        uint256 numberRides;\n        uint256 goodRides;\n    }\n\n    /*\n    ================================================================\n                            Modifiers\n    ================================================================\n    */ \n\n    modifier adminOnly() {\n        require(msg.sender == bikeAdmin);\n        _;\n    }\n\n    modifier adminExcluded() {\n        require(msg.sender != bikeAdmin);\n        _;\n    }\n\n    modifier bikeClientOnly(address clientAddress) {\n        require(isBikeClient[clientAddress] == true);\n        _;\n    }\n\n    modifier validParametersBike(uint256 bikeId) {\n        require(bikeId >= 0 && bikeId < MAX_BIKE_COUNT);\n        _;\n    }\n\n    modifier notNullAddress (address _address) {\n        require(_address != address(0));\n        _;\n    }\n\n    modifier bikeInRide (uint256 bikeId) {\n        require(bikeMapping[bikeId].state == BikeState.IN_USE);\n        _;\n    }\n\n    modifier bikeUser (uint256 bikeId, address clientAdr) {\n        require(bikeMapping[bikeId].lastRenter == clientAdr);\n        _;\n    }\n\n    modifier clientInRide (address clientAdr) {\n        require(clientMapping[clientAdr].state == ClientState.IN_RIDE);\n        _;\n    }\n\n\n    /*\n    ================================================================\n                            Events\n    ================================================================\n    */ \n\n    event LogBikeRent(uint256 bikeId, address renter, bool status);\n    event LogReceivedFunds(address sender, uint256 amount);\n    event LogReturnedFunds(address recipient, uint256 amount);\n\n    // Fallback event\n    event Deposit(address indexed sender, uint256 value);\n\n    // Client creation\n    event ClientCreated(address clientAddress);\n\n    // Change of state events\n    event BikeAvailable(uint256 bikeId);\n    event ClientGoodToGo(address clientAddress);\n\n    event BikeInRide(uint256 bikeId);\n    event ClientInRide(address clientAddress);\n\n    event BikeDeactivated(uint256 bikeId);\n\n    event BikeInitiated(uint256 bikeId);\n    //event CleanSlate(address clientAdr);\n\n    /*\n    ================================================================\n                            Constructor\n    ================================================================\n    */ \n\n    /// @dev Contract constructor sets the bike Admin address, the fee (by minute) and the necessary deposit\n    constructor() public {\n        bikeAdmin = msg.sender;\n        requiredDeposit = BIKE_VALUE;\n        fee = RENT_FEE;\n    }\n\n    /*\n    ================================================================\n                            Bike housekeeping\n    ================================================================\n    */ \n\n    /// @dev Check if the bike is being used for the first time\n    /// @param bikeId the ID of a bike\n    /// @return True if the bike has never been used, False otherwise\n    function isBikeFirstUse(uint256 bikeId) \n        public \n        view \n        returns(bool isFirstTime) \n    {   \n        return isBikeActive[bikeId] == false;\n    }\n\n    /// @dev Count the number of clients \n    /// @return Number of clients\n    function getClientCount() \n        public \n        view \n        returns(uint256 clientCount)\n    {\n        return clientList.length;\n    }\n\n    /// @dev Check if some address is related to a client\n    /// @param clientAdr the address of a client\n    /// @return True if the address is a client address\n\n    function isClient(address clientAdr) \n        public \n        view \n        returns (bool isIndeed)\n    {\n        return isBikeClient[clientAdr] == true;\n    }\n\n    /// @dev Check how much the contract carries value\n    /// @return Contract balance\n    function getBalance() \n        public \n        view\n        adminOnly \n        returns(uint256 balance)\n    {\n        return address(this).balance;\n    }\n\n    /// @dev Check the fee amount for a certain duration (in minutes) for renting the bike\n    /// @param duration length \n    /// @return Fee due \n    function calculateFee(uint256 duration) \n        public \n        view \n        returns (uint256) \n    {\n        uint256 num_minutes = duration.div(MINUTE_FACTOR);\n         \n        if(num_minutes > TIME_LIMIT){\n            return requiredDeposit;\n        }\n        uint256 toPay = num_minutes.mul(fee);\n        return toPay;\n    }\n\n    /* \n    ================================================================\n                        Rent and surrender bikes\n    ================================================================\n    */\n\n    /// @dev Someone can rent a bike\n    /// @param bikeId the client must input the bike id\n    /// @return Did it succeed ? How many rides did the client make ? \n    function rentBike(uint256 bikeId) \n        public \n        payable\n        validParametersBike(bikeId) \n        adminExcluded\n        returns (bool success) \n    {\n\n        // Require that the user pays the right amount for the bike\n        require(msg.value == requiredDeposit);\n\n        // Check if the bike is activated\n        if(isBikeFirstUse(bikeId)) {\n\n            bikeMapping[bikeId] = Bike(\n                {\n                    lastRenter: address(0),\n                    condition: true,\n                    currentlyInUse: false,\n                    usageTime: 0,\n                    state: BikeState.DEACTIVATED\n                }\n            );\n\n            isBikeActive[bikeId] = true;\n            emit BikeInitiated(bikeId);\n\n            bikeMapping[bikeId].state = BikeState.AVAILABLE;\n            emit BikeAvailable(bikeId);\n\n        } else {\n            \n            // The bike must be unused, in good condition, activated, and not in ride already\n            require(bikeMapping[bikeId].currentlyInUse == false);\n            require(bikeMapping[bikeId].condition == true);\n            require(bikeMapping[bikeId].state == BikeState.AVAILABLE);\n        }\n\n        // Check if the address is a client, if not create a struct \n        if(!isClient(msg.sender)){\n\n            clientMapping[msg.sender] = Client(\n                {\n                    clientListPointer: 0,\n                    state: ClientState.GOOD_TO_GO,\n                    received: 0,\n                    returned: 0,\n                    numberRides: 0,\n                    goodRides: 0\n                }\n            );\n\n            clientMapping[msg.sender].clientListPointer = clientList.push(msg.sender) - 1;\n\n            // Finally, the guy is made a client\n            isBikeClient[msg.sender] = true;\n            emit ClientCreated(msg.sender);\n\n        } else {\n            // The client must not be already using a scooter\n            require(clientMapping[msg.sender].state == ClientState.GOOD_TO_GO);\n        }\n\n        // Accounting\n        clientMapping[msg.sender].received += requiredDeposit;\n        emit LogReceivedFunds(msg.sender, msg.value);\n\n        // Change bike situation and state\n        bikeMapping[bikeId].lastRenter = msg.sender;\n        bikeMapping[bikeId].currentlyInUse = true;\n        bikeMapping[bikeId].usageTime = now;\n        bikeMapping[bikeId].state = BikeState.IN_USE;        \n        emit BikeInRide(bikeId);\n\n        // Change client state and number of rides\n        clientMapping[msg.sender].state = ClientState.IN_RIDE;\n        clientMapping[msg.sender].numberRides += 1;\n        emit ClientInRide(msg.sender);\n\n        return bikeMapping[bikeId].currentlyInUse;\n\n    }\n    \n    /// @dev Someone can stop bike usage\n    /// @param bikeId The client must input the bike id \n    /// @return Did it succeed ? \n    function surrenderBike(uint256 bikeId, bool newCondition) \n        public \n        bikeClientOnly(msg.sender)\n        validParametersBike(bikeId)\n        bikeInRide(bikeId)\n        clientInRide(msg.sender)\n        bikeUser(bikeId, msg.sender)\n        adminExcluded\n        returns (bool success)\n    {\n        uint256 feeCharged = calculateFee(now.sub(bikeMapping[bikeId].usageTime));\n        uint256 owedToClient = requiredDeposit.sub(feeCharged);\n\n        if (newCondition == false) {\n            owedToClient = 0;\n            bikeMapping[bikeId].state = BikeState.DEACTIVATED;\n            emit BikeDeactivated(bikeId);\n        } else {\n            clientMapping[msg.sender].goodRides += 1;\n            msg.sender.transfer(owedToClient);\n            clientMapping[msg.sender].returned += owedToClient;\n            emit LogReturnedFunds(msg.sender, clientMapping[msg.sender].returned);                \n            bikeMapping[bikeId].state = BikeState.AVAILABLE;\n            emit BikeAvailable(bikeId);\n        }\n\n        bikeMapping[bikeId].currentlyInUse = false;\n\n        // Make the client good to go\n\n        clientMapping[msg.sender].state = ClientState.GOOD_TO_GO;\n        emit ClientGoodToGo(msg.sender);\n\n        return true;\n    }\n\n    /* \n    ================================================================\n                            Fallback function\n    ================================================================\n    */\n\n    function ()\n        external\n        payable\n    {\n        if (msg.value > 0) {\n            emit Deposit(msg.sender, msg.value);\n        }\n    }\n    \n    /* \n    ================================================================\n                            Getter functions\n    ================================================================\n    */\n\n    function getTotalRides(address clientAdr)\n        public\n        view\n        returns (uint256 totalRidesCount)\n    {\n        Client memory client = clientMapping[clientAdr];\n        return client.numberRides;\n    }\n\n    function getGoodRides(address clientAdr)\n        public\n        view\n        returns (uint256 goodRidesCount)\n    {\n        Client memory client = clientMapping[clientAdr];\n        return client.goodRides;\n    }\n\n    function getReturned(address clientAdr)\n        public \n        view\n        returns (uint256 returnedAmount)\n    {\n        Client memory client = clientMapping[clientAdr];\n        return client.returned;\n    }\n    \n    function getBikeValue()\n        public\n        pure\n        returns (uint256 bikeValue)\n    {\n        return BIKE_VALUE;\n    }\n    \n}",
  "sourcePath": "/Users/HenriYQ/Desktop/final-project-hyqiu/contracts/BikeSharing.sol",
  "compiler": {
    "name": "solc",
    "version": "0.5.0+commit.1d4f565a.Emscripten.clang"
  },
  "schemaVersion": "3.0.0",
  "updatedAt": "2019-01-25T22:25:20.894Z",
  "devdoc": {
    "methods": {
      "calculateFee(uint256)": {
        "details": "Check the fee amount for a certain duration (in minutes) for renting the bike",
        "params": {
          "duration": "length "
        },
        "return": "Fee due "
      },
      "constructor": {
        "details": "Contract constructor sets the bike Admin address, the fee (by minute) and the necessary deposit"
      },
      "getBalance()": {
        "details": "Check how much the contract carries value",
        "return": "Contract balance"
      },
      "getClientCount()": {
        "details": "Count the number of clients ",
        "return": "Number of clients"
      },
      "isBikeFirstUse(uint256)": {
        "details": "Check if the bike is being used for the first time",
        "params": {
          "bikeId": "the ID of a bike"
        },
        "return": "True if the bike has never been used, False otherwise"
      },
      "isClient(address)": {
        "details": "Check if some address is related to a client",
        "params": {
          "clientAdr": "the address of a client"
        },
        "return": "True if the address is a client address"
      },
      "rentBike(uint256)": {
        "details": "Someone can rent a bike",
        "params": {
          "bikeId": "the client must input the bike id"
        },
        "return": "Did it succeed ? How many rides did the client make ? "
      },
      "surrenderBike(uint256,bool)": {
        "details": "Someone can stop bike usage",
        "params": {
          "bikeId": "The client must input the bike id "
        },
        "return": "Did it succeed ? "
      }
    }
  },
  "userdoc": {
    "methods": {}
  }
}