{
  "contractName": "BikeSharing",
  "abi": [
    {
      "constant": true,
      "inputs": [],
      "name": "MINUTE_FACTOR",
      "outputs": [
        {
          "name": "",
          "type": "uint256"
        }
      ],
      "payable": false,
      "stateMutability": "view",
      "type": "function",
      "signature": "0x1f792e8a"
    },
    {
      "constant": true,
      "inputs": [],
      "name": "RENT_FEE",
      "outputs": [
        {
          "name": "",
          "type": "uint256"
        }
      ],
      "payable": false,
      "stateMutability": "view",
      "type": "function",
      "signature": "0x4c3ff289"
    },
    {
      "constant": true,
      "inputs": [],
      "name": "TIME_LIMIT",
      "outputs": [
        {
          "name": "",
          "type": "uint256"
        }
      ],
      "payable": false,
      "stateMutability": "view",
      "type": "function",
      "signature": "0x698224ae"
    },
    {
      "constant": false,
      "inputs": [],
      "name": "renounceOwnership",
      "outputs": [],
      "payable": false,
      "stateMutability": "nonpayable",
      "type": "function",
      "signature": "0x715018a6"
    },
    {
      "constant": true,
      "inputs": [],
      "name": "owner",
      "outputs": [
        {
          "name": "",
          "type": "address"
        }
      ],
      "payable": false,
      "stateMutability": "view",
      "type": "function",
      "signature": "0x8da5cb5b"
    },
    {
      "constant": true,
      "inputs": [],
      "name": "isOwner",
      "outputs": [
        {
          "name": "",
          "type": "bool"
        }
      ],
      "payable": false,
      "stateMutability": "view",
      "type": "function",
      "signature": "0x8f32d59b"
    },
    {
      "constant": true,
      "inputs": [
        {
          "name": "",
          "type": "address"
        }
      ],
      "name": "clientMapping",
      "outputs": [
        {
          "name": "clientListPointer",
          "type": "uint256"
        },
        {
          "name": "state",
          "type": "uint8"
        },
        {
          "name": "received",
          "type": "uint256"
        },
        {
          "name": "returned",
          "type": "uint256"
        },
        {
          "name": "numberRides",
          "type": "uint256"
        },
        {
          "name": "goodRides",
          "type": "uint256"
        }
      ],
      "payable": false,
      "stateMutability": "view",
      "type": "function",
      "signature": "0xa04319bc"
    },
    {
      "constant": true,
      "inputs": [],
      "name": "BIKE_VALUE",
      "outputs": [
        {
          "name": "",
          "type": "uint256"
        }
      ],
      "payable": false,
      "stateMutability": "view",
      "type": "function",
      "signature": "0xcb6dee3c"
    },
    {
      "constant": false,
      "inputs": [
        {
          "name": "newOwner",
          "type": "address"
        }
      ],
      "name": "transferOwnership",
      "outputs": [],
      "payable": false,
      "stateMutability": "nonpayable",
      "type": "function",
      "signature": "0xf2fde38b"
    },
    {
      "constant": true,
      "inputs": [],
      "name": "MAX_BIKE_COUNT",
      "outputs": [
        {
          "name": "",
          "type": "uint256"
        }
      ],
      "payable": false,
      "stateMutability": "view",
      "type": "function",
      "signature": "0xf4bb7413"
    },
    {
      "inputs": [],
      "payable": false,
      "stateMutability": "nonpayable",
      "type": "constructor",
      "signature": "constructor"
    },
    {
      "payable": true,
      "stateMutability": "payable",
      "type": "fallback"
    },
    {
      "anonymous": false,
      "inputs": [
        {
          "indexed": false,
          "name": "bikeId",
          "type": "uint256"
        },
        {
          "indexed": true,
          "name": "renter",
          "type": "address"
        },
        {
          "indexed": false,
          "name": "status",
          "type": "bool"
        }
      ],
      "name": "LogBikeRent",
      "type": "event",
      "signature": "0xcd77a878eade216fb4b5fe5434897088409c92ce8ce1296f5f6dffb6c32562d8"
    },
    {
      "anonymous": false,
      "inputs": [
        {
          "indexed": true,
          "name": "sender",
          "type": "address"
        },
        {
          "indexed": false,
          "name": "amount",
          "type": "uint256"
        }
      ],
      "name": "LogReceivedFunds",
      "type": "event",
      "signature": "0x81d2c188629cc4a1c694d285150cb5fa3dde3157a2684460d3ac7a1e331f6164"
    },
    {
      "anonymous": false,
      "inputs": [
        {
          "indexed": true,
          "name": "recipient",
          "type": "address"
        },
        {
          "indexed": false,
          "name": "amount",
          "type": "uint256"
        }
      ],
      "name": "LogReturnedFunds",
      "type": "event",
      "signature": "0xe0e5873eb9d996d2ab087b071a9a50522121c02b43308c8728c06739f52b3f87"
    },
    {
      "anonymous": false,
      "inputs": [
        {
          "indexed": true,
          "name": "sender",
          "type": "address"
        },
        {
          "indexed": false,
          "name": "value",
          "type": "uint256"
        }
      ],
      "name": "Deposit",
      "type": "event",
      "signature": "0xe1fffcc4923d04b559f4d29a8bfc6cda04eb5b0d3c460751c2402c5c5cc9109c"
    },
    {
      "anonymous": false,
      "inputs": [
        {
          "indexed": true,
          "name": "clientAddress",
          "type": "address"
        }
      ],
      "name": "ClientCreated",
      "type": "event",
      "signature": "0xbac77b32f9eac52b557987e1084037afcfe4d478ef2fc4c8cdae1eb5f86d40a3"
    },
    {
      "anonymous": false,
      "inputs": [
        {
          "indexed": false,
          "name": "bikeId",
          "type": "uint256"
        }
      ],
      "name": "BikeInitiated",
      "type": "event",
      "signature": "0x4986b064b569c6fa049687ef20f2083e297cbd4b1166eab7b06a9cb410bb6529"
    },
    {
      "anonymous": false,
      "inputs": [
        {
          "indexed": false,
          "name": "bikeId",
          "type": "uint256"
        }
      ],
      "name": "BikeDeactivated",
      "type": "event",
      "signature": "0x7a46d9c879f6df7defefd4f4e68a71c038944432414f667201560cbe345703e2"
    },
    {
      "anonymous": false,
      "inputs": [
        {
          "indexed": false,
          "name": "bikeId",
          "type": "uint256"
        }
      ],
      "name": "BikeAvailable",
      "type": "event",
      "signature": "0x375f37c1f2f99b1f18d30a4aadd72486ac0db7eb3a05cb6ae1c5dafaab222f17"
    },
    {
      "anonymous": false,
      "inputs": [
        {
          "indexed": true,
          "name": "clientAddress",
          "type": "address"
        }
      ],
      "name": "ClientGoodToGo",
      "type": "event",
      "signature": "0x5fe9ebeb2d32f13f36a82c6c68d5031d31b95db10a1b0dc75367fd42105d40e0"
    },
    {
      "anonymous": false,
      "inputs": [
        {
          "indexed": true,
          "name": "clientAddress",
          "type": "address"
        },
        {
          "indexed": false,
          "name": "bikeId",
          "type": "uint256"
        },
        {
          "indexed": false,
          "name": "time",
          "type": "uint256"
        }
      ],
      "name": "TripStarted",
      "type": "event",
      "signature": "0x8b848cd29492de96ebd7b7dcd7e4a54c072464876f6507ef2a8193044832eb44"
    },
    {
      "anonymous": false,
      "inputs": [
        {
          "indexed": true,
          "name": "clientAddress",
          "type": "address"
        },
        {
          "indexed": false,
          "name": "bikeId",
          "type": "uint256"
        },
        {
          "indexed": false,
          "name": "time",
          "type": "uint256"
        }
      ],
      "name": "TripFinished",
      "type": "event",
      "signature": "0x76893845517b4c4d36c69621dd4f1a185de6e4fc3ae28967d16357fc4bfe00d8"
    },
    {
      "anonymous": false,
      "inputs": [
        {
          "indexed": false,
          "name": "currentStatus",
          "type": "bool"
        }
      ],
      "name": "StopSwitchChanged",
      "type": "event",
      "signature": "0x67e1f06c646cd0258df4917ba95be6924b550249a7c45eeb41dfd6b8130fd588"
    },
    {
      "anonymous": false,
      "inputs": [
        {
          "indexed": true,
          "name": "previousOwner",
          "type": "address"
        },
        {
          "indexed": true,
          "name": "newOwner",
          "type": "address"
        }
      ],
      "name": "OwnershipTransferred",
      "type": "event",
      "signature": "0x8be0079c531659141344cd1fd0a4f28419497f9722a3daafe3b4186f6b6457e0"
    },
    {
      "constant": true,
      "inputs": [
        {
          "name": "bikeId",
          "type": "uint256"
        }
      ],
      "name": "isBikeFirstUse",
      "outputs": [
        {
          "name": "isFirstTime",
          "type": "bool"
        }
      ],
      "payable": false,
      "stateMutability": "view",
      "type": "function",
      "signature": "0x21404d3e"
    },
    {
      "constant": true,
      "inputs": [],
      "name": "getClientCount",
      "outputs": [
        {
          "name": "clientCount",
          "type": "uint256"
        }
      ],
      "payable": false,
      "stateMutability": "view",
      "type": "function",
      "signature": "0x5a81018a"
    },
    {
      "constant": true,
      "inputs": [
        {
          "name": "clientAdr",
          "type": "address"
        }
      ],
      "name": "isClient",
      "outputs": [
        {
          "name": "isIndeed",
          "type": "bool"
        }
      ],
      "payable": false,
      "stateMutability": "view",
      "type": "function",
      "signature": "0x84b7964f"
    },
    {
      "constant": true,
      "inputs": [
        {
          "name": "duration",
          "type": "uint256"
        }
      ],
      "name": "calculateFee",
      "outputs": [
        {
          "name": "",
          "type": "uint256"
        }
      ],
      "payable": false,
      "stateMutability": "view",
      "type": "function",
      "signature": "0x99a5d747"
    },
    {
      "constant": false,
      "inputs": [
        {
          "name": "bikeId",
          "type": "uint256"
        }
      ],
      "name": "rentBike",
      "outputs": [
        {
          "name": "success",
          "type": "bool"
        }
      ],
      "payable": true,
      "stateMutability": "payable",
      "type": "function",
      "signature": "0x7ad8f224"
    },
    {
      "constant": false,
      "inputs": [
        {
          "name": "bikeId",
          "type": "uint256"
        },
        {
          "name": "newCondition",
          "type": "bool"
        }
      ],
      "name": "surrenderBike",
      "outputs": [
        {
          "name": "success",
          "type": "bool"
        }
      ],
      "payable": false,
      "stateMutability": "nonpayable",
      "type": "function",
      "signature": "0xed6287ba"
    },
    {
      "constant": true,
      "inputs": [
        {
          "name": "clientAdr",
          "type": "address"
        }
      ],
      "name": "getTotalRides",
      "outputs": [
        {
          "name": "totalRidesCount",
          "type": "uint256"
        }
      ],
      "payable": false,
      "stateMutability": "view",
      "type": "function",
      "signature": "0x43a8980b"
    },
    {
      "constant": true,
      "inputs": [
        {
          "name": "clientAdr",
          "type": "address"
        }
      ],
      "name": "getGoodRides",
      "outputs": [
        {
          "name": "goodRidesCount",
          "type": "uint256"
        }
      ],
      "payable": false,
      "stateMutability": "view",
      "type": "function",
      "signature": "0xdc051b7b"
    },
    {
      "constant": true,
      "inputs": [
        {
          "name": "clientAdr",
          "type": "address"
        }
      ],
      "name": "getReturned",
      "outputs": [
        {
          "name": "returnedAmount",
          "type": "uint256"
        }
      ],
      "payable": false,
      "stateMutability": "view",
      "type": "function",
      "signature": "0xce00b67b"
    },
    {
      "constant": true,
      "inputs": [],
      "name": "getBikeValue",
      "outputs": [
        {
          "name": "bikeValue",
          "type": "uint256"
        }
      ],
      "payable": false,
      "stateMutability": "view",
      "type": "function",
      "signature": "0x467519b8"
    },
    {
      "constant": true,
      "inputs": [
        {
          "name": "bikeId",
          "type": "uint256"
        }
      ],
      "name": "checkBikeStatus",
      "outputs": [
        {
          "name": "inUse",
          "type": "bool"
        }
      ],
      "payable": false,
      "stateMutability": "view",
      "type": "function",
      "signature": "0x73c4b27f"
    },
    {
      "constant": true,
      "inputs": [
        {
          "name": "bikeId",
          "type": "uint256"
        }
      ],
      "name": "checkBike",
      "outputs": [
        {
          "name": "lastRenter",
          "type": "address"
        },
        {
          "name": "condition",
          "type": "bool"
        },
        {
          "name": "currentlyInUse",
          "type": "bool"
        },
        {
          "name": "usageTime",
          "type": "uint256"
        },
        {
          "name": "state",
          "type": "uint8"
        }
      ],
      "payable": false,
      "stateMutability": "view",
      "type": "function",
      "signature": "0x8910676f"
    },
    {
      "constant": true,
      "inputs": [
        {
          "name": "clientAdr",
          "type": "address"
        }
      ],
      "name": "checkUser",
      "outputs": [
        {
          "name": "state",
          "type": "uint8"
        },
        {
          "name": "received",
          "type": "uint256"
        },
        {
          "name": "returned",
          "type": "uint256"
        },
        {
          "name": "numberRides",
          "type": "uint256"
        },
        {
          "name": "goodRides",
          "type": "uint256"
        }
      ],
      "payable": false,
      "stateMutability": "view",
      "type": "function",
      "signature": "0x1e9d48cf"
    },
    {
      "constant": false,
      "inputs": [],
      "name": "emergencySwitch",
      "outputs": [
        {
          "name": "alarmOn",
          "type": "bool"
        }
      ],
      "payable": false,
      "stateMutability": "nonpayable",
      "type": "function",
      "signature": "0x7c51e311"
    }
  ],
  "bytecode": "0x608060405234801561001057600080fd5b50336000806101000a81548173ffffffffffffffffffffffffffffffffffffffff021916908373ffffffffffffffffffffffffffffffffffffffff1602179055506000809054906101000a900473ffffffffffffffffffffffffffffffffffffffff1673ffffffffffffffffffffffffffffffffffffffff16600073ffffffffffffffffffffffffffffffffffffffff167f8be0079c531659141344cd1fd0a4f28419497f9722a3daafe3b4186f6b6457e060405160405180910390a333600160006101000a81548173ffffffffffffffffffffffffffffffffffffffff021916908373ffffffffffffffffffffffffffffffffffffffff160217905550670de0b6b3a76400006002819055506601c6bf526340006003819055506122f78061013a6000396000f3fe60806040526004361061013e576000357c0100000000000000000000000000000000000000000000000000000000900463ffffffff1680631e9d48cf146101ab5780631f792e8a1461023a57806321404d3e1461026557806343a8980b146102b8578063467519b81461031d5780634c3ff289146103485780635a81018a14610373578063698224ae1461039e578063715018a6146103c957806373c4b27f146103e05780637ad8f224146104335780637c51e3111461047957806384b7964f146104a85780638910676f146105115780638da5cb5b146105be5780638f32d59b1461061557806399a5d74714610644578063a04319bc14610693578063cb6dee3c14610729578063ce00b67b14610754578063dc051b7b146107b9578063ed6287ba1461081e578063f2fde38b1461087d578063f4bb7413146108ce575b6101466108f9565b151561015157600080fd5b60003411156101a9573373ffffffffffffffffffffffffffffffffffffffff167fe1fffcc4923d04b559f4d29a8bfc6cda04eb5b0d3c460751c2402c5c5cc9109c346040518082815260200191505060405180910390a25b005b3480156101b757600080fd5b506101fa600480360360208110156101ce57600080fd5b81019080803573ffffffffffffffffffffffffffffffffffffffff169060200190929190505050610950565b6040518086600181111561020a57fe5b60ff1681526020018581526020018481526020018381526020018281526020019550505050505060405180910390f35b34801561024657600080fd5b5061024f610a39565b6040518082815260200191505060405180910390f35b34801561027157600080fd5b5061029e6004803603602081101561028857600080fd5b8101908080359060200190929190505050610a3e565b604051808215151515815260200191505060405180910390f35b3480156102c457600080fd5b50610307600480360360208110156102db57600080fd5b81019080803573ffffffffffffffffffffffffffffffffffffffff169060200190929190505050610a6e565b6040518082815260200191505060405180910390f35b34801561032957600080fd5b50610332610b31565b6040518082815260200191505060405180910390f35b34801561035457600080fd5b5061035d610b3b565b6040518082815260200191505060405180910390f35b34801561037f57600080fd5b50610388610b46565b6040518082815260200191505060405180910390f35b3480156103aa57600080fd5b506103b3610b53565b6040518082815260200191505060405180910390f35b3480156103d557600080fd5b506103de610b59565b005b3480156103ec57600080fd5b506104196004803603602081101561040357600080fd5b8101908080359060200190929190505050610c2b565b604051808215151515815260200191505060405180910390f35b61045f6004803603602081101561044957600080fd5b8101908080359060200190929190505050610d26565b604051808215151515815260200191505060405180910390f35b34801561048557600080fd5b5061048e6115e8565b604051808215151515815260200191505060405180910390f35b3480156104b457600080fd5b506104f7600480360360208110156104cb57600080fd5b81019080803573ffffffffffffffffffffffffffffffffffffffff1690602001909291905050506116b4565b604051808215151515815260200191505060405180910390f35b34801561051d57600080fd5b5061054a6004803603602081101561053457600080fd5b8101908080359060200190929190505050611711565b604051808673ffffffffffffffffffffffffffffffffffffffff1673ffffffffffffffffffffffffffffffffffffffff16815260200185151515158152602001841515151581526020018381526020018260028111156105a657fe5b60ff1681526020019550505050505060405180910390f35b3480156105ca57600080fd5b506105d3611832565b604051808273ffffffffffffffffffffffffffffffffffffffff1673ffffffffffffffffffffffffffffffffffffffff16815260200191505060405180910390f35b34801561062157600080fd5b5061062a6108f9565b604051808215151515815260200191505060405180910390f35b34801561065057600080fd5b5061067d6004803603602081101561066757600080fd5b810190808035906020019092919050505061185b565b6040518082815260200191505060405180910390f35b34801561069f57600080fd5b506106e2600480360360208110156106b657600080fd5b81019080803573ffffffffffffffffffffffffffffffffffffffff1690602001909291905050506118ad565b604051808781526020018660018111156106f857fe5b60ff168152602001858152602001848152602001838152602001828152602001965050505050505060405180910390f35b34801561073557600080fd5b5061073e6118f6565b6040518082815260200191505060405180910390f35b34801561076057600080fd5b506107a36004803603602081101561077757600080fd5b81019080803573ffffffffffffffffffffffffffffffffffffffff169060200190929190505050611902565b6040518082815260200191505060405180910390f35b3480156107c557600080fd5b50610808600480360360208110156107dc57600080fd5b81019080803573ffffffffffffffffffffffffffffffffffffffff1690602001909291905050506119c5565b6040518082815260200191505060405180910390f35b34801561082a57600080fd5b506108636004803603604081101561084157600080fd5b8101908080359060200190929190803515159060200190929190505050611a88565b604051808215151515815260200191505060405180910390f35b34801561088957600080fd5b506108cc600480360360208110156108a057600080fd5b81019080803573ffffffffffffffffffffffffffffffffffffffff16906020019092919050505061208b565b005b3480156108da57600080fd5b506108e36120aa565b6040518082815260200191505060405180910390f35b60008060009054906101000a900473ffffffffffffffffffffffffffffffffffffffff1673ffffffffffffffffffffffffffffffffffffffff163373ffffffffffffffffffffffffffffffffffffffff1614905090565b6000806000806000610960612234565b600560008873ffffffffffffffffffffffffffffffffffffffff1673ffffffffffffffffffffffffffffffffffffffff16815260200190815260200160002060c06040519081016040529081600082015481526020016001820160009054906101000a900460ff1660018111156109d357fe5b60018111156109de57fe5b8152602001600282015481526020016003820154815260200160048201548152602001600582015481525050905080602001518160400151826060015183608001518460a00151955095509550955095505091939590929450565b603c81565b60008015156007600084815260200190815260200160002060009054906101000a900460ff161515149050919050565b6000610a78612234565b600560008473ffffffffffffffffffffffffffffffffffffffff1673ffffffffffffffffffffffffffffffffffffffff16815260200190815260200160002060c06040519081016040529081600082015481526020016001820160009054906101000a900460ff166001811115610aeb57fe5b6001811115610af657fe5b815260200160028201548152602001600382015481526020016004820154815260200160058201548152505090508060800151915050919050565b6000600254905090565b6601c6bf5263400081565b6000600980549050905090565b6105a081565b610b616108f9565b1515610b6c57600080fd5b600073ffffffffffffffffffffffffffffffffffffffff166000809054906101000a900473ffffffffffffffffffffffffffffffffffffffff1673ffffffffffffffffffffffffffffffffffffffff167f8be0079c531659141344cd1fd0a4f28419497f9722a3daafe3b4186f6b6457e060405160405180910390a360008060006101000a81548173ffffffffffffffffffffffffffffffffffffffff021916908373ffffffffffffffffffffffffffffffffffffffff160217905550565b6000610c35612276565b6006600084815260200190815260200160002060a060405190810160405290816000820160009054906101000a900473ffffffffffffffffffffffffffffffffffffffff1673ffffffffffffffffffffffffffffffffffffffff1673ffffffffffffffffffffffffffffffffffffffff1681526020016000820160149054906101000a900460ff161515151581526020016000820160159054906101000a900460ff16151515158152602001600182015481526020016002820160009054906101000a900460ff166002811115610d0857fe5b6002811115610d1357fe5b8152505090508060400151915050919050565b60008160008110158015610d3b57506103e881105b1515610d4657600080fd5b600460009054906101000a900460ff16151515610d6257600080fd5b60025434141515610d7257600080fd5b610d7b83610a3e565b15610f795760a060405190810160405280600073ffffffffffffffffffffffffffffffffffffffff1681526020016001151581526020016000151581526020016000815260200160006002811115610dcf57fe5b8152506006600085815260200190815260200160002060008201518160000160006101000a81548173ffffffffffffffffffffffffffffffffffffffff021916908373ffffffffffffffffffffffffffffffffffffffff16021790555060208201518160000160146101000a81548160ff02191690831515021790555060408201518160000160156101000a81548160ff0219169083151502179055506060820151816001015560808201518160020160006101000a81548160ff02191690836002811115610e9a57fe5b021790555090505060016007600085815260200190815260200160002060006101000a81548160ff0219169083151502179055507f4986b064b569c6fa049687ef20f2083e297cbd4b1166eab7b06a9cb410bb6529836040518082815260200191505060405180910390a160016006600085815260200190815260200160002060020160006101000a81548160ff02191690836002811115610f3857fe5b02179055507f375f37c1f2f99b1f18d30a4aadd72486ac0db7eb3a05cb6ae1c5dafaab222f17836040518082815260200191505060405180910390a161102e565b600015156006600085815260200190815260200160002060000160159054906101000a900460ff161515141515610faf57600080fd5b600115156006600085815260200190815260200160002060000160149054906101000a900460ff161515141515610fe557600080fd5b60016002811115610ff257fe5b6006600085815260200190815260200160002060020160009054906101000a900460ff16600281111561102157fe5b14151561102d57600080fd5b5b611037336116b4565b151561121f5760c060405190810160405280600160093390806001815401808255809150509060018203906000526020600020016000909192909190916101000a81548173ffffffffffffffffffffffffffffffffffffffff021916908373ffffffffffffffffffffffffffffffffffffffff160217905550038152602001600060018111156110c357fe5b81526020016000815260200160008152602001600081526020016000815250600560003373ffffffffffffffffffffffffffffffffffffffff1673ffffffffffffffffffffffffffffffffffffffff1681526020019081526020016000206000820151816000015560208201518160010160006101000a81548160ff0219169083600181111561114f57fe5b021790555060408201518160020155606082015181600301556080820151816004015560a082015181600501559050506001600860003373ffffffffffffffffffffffffffffffffffffffff1673ffffffffffffffffffffffffffffffffffffffff16815260200190815260200160002060006101000a81548160ff0219169083151502179055503373ffffffffffffffffffffffffffffffffffffffff167fbac77b32f9eac52b557987e1084037afcfe4d478ef2fc4c8cdae1eb5f86d40a360405160405180910390a2611324565b6000600181111561122c57fe5b600560003373ffffffffffffffffffffffffffffffffffffffff1673ffffffffffffffffffffffffffffffffffffffff16815260200190815260200160002060010160009054906101000a900460ff16600181111561128757fe5b14151561129357600080fd5b6000600560003373ffffffffffffffffffffffffffffffffffffffff1673ffffffffffffffffffffffffffffffffffffffff168152602001908152602001600020600201819055506000600560003373ffffffffffffffffffffffffffffffffffffffff1673ffffffffffffffffffffffffffffffffffffffff168152602001908152602001600020600301819055505b600254600560003373ffffffffffffffffffffffffffffffffffffffff1673ffffffffffffffffffffffffffffffffffffffff168152602001908152602001600020600201600082825401925050819055503373ffffffffffffffffffffffffffffffffffffffff167f81d2c188629cc4a1c694d285150cb5fa3dde3157a2684460d3ac7a1e331f6164346040518082815260200191505060405180910390a2336006600085815260200190815260200160002060000160006101000a81548173ffffffffffffffffffffffffffffffffffffffff021916908373ffffffffffffffffffffffffffffffffffffffff16021790555060016006600085815260200190815260200160002060000160156101000a81548160ff02191690831515021790555042600660008581526020019081526020016000206001018190555060026006600085815260200190815260200160002060020160006101000a81548160ff0219169083600281111561149657fe5b02179055506001600560003373ffffffffffffffffffffffffffffffffffffffff1673ffffffffffffffffffffffffffffffffffffffff16815260200190815260200160002060010160006101000a81548160ff021916908360018111156114fa57fe5b02179055506001600560003373ffffffffffffffffffffffffffffffffffffffff1673ffffffffffffffffffffffffffffffffffffffff168152602001908152602001600020600401600082825401925050819055503373ffffffffffffffffffffffffffffffffffffffff167f8b848cd29492de96ebd7b7dcd7e4a54c072464876f6507ef2a8193044832eb44846006600087815260200190815260200160002060010154604051808381526020018281526020019250505060405180910390a26006600084815260200190815260200160002060000160159054906101000a900460ff16915050919050565b60006115f26108f9565b15156115fd57600080fd5b60001515600460009054906101000a900460ff1615151415611639576001600460006101000a81548160ff021916908315150217905550611655565b6000600460006101000a81548160ff0219169083151502179055505b7f67e1f06c646cd0258df4917ba95be6924b550249a7c45eeb41dfd6b8130fd588600460009054906101000a900460ff16604051808215151515815260200191505060405180910390a1600460009054906101000a900460ff16905090565b600060011515600860008473ffffffffffffffffffffffffffffffffffffffff1673ffffffffffffffffffffffffffffffffffffffff16815260200190815260200160002060009054906101000a900460ff161515149050919050565b6000806000806000611721612276565b6006600088815260200190815260200160002060a060405190810160405290816000820160009054906101000a900473ffffffffffffffffffffffffffffffffffffffff1673ffffffffffffffffffffffffffffffffffffffff1673ffffffffffffffffffffffffffffffffffffffff1681526020016000820160149054906101000a900460ff161515151581526020016000820160159054906101000a900460ff16151515158152602001600182015481526020016002820160009054906101000a900460ff1660028111156117f457fe5b60028111156117ff57fe5b81525050905080600001518160200151826040015183606001518460800151955095509550955095505091939590929450565b60008060009054906101000a900473ffffffffffffffffffffffffffffffffffffffff16905090565b600080611872603c846120b090919063ffffffff16565b90506105a0811115611889576002549150506118a8565b60006118a0600354836120da90919063ffffffff16565b905080925050505b919050565b60056020528060005260406000206000915090508060000154908060010160009054906101000a900460ff16908060020154908060030154908060040154908060050154905086565b670de0b6b3a764000081565b600061190c612234565b600560008473ffffffffffffffffffffffffffffffffffffffff1673ffffffffffffffffffffffffffffffffffffffff16815260200190815260200160002060c06040519081016040529081600082015481526020016001820160009054906101000a900460ff16600181111561197f57fe5b600181111561198a57fe5b815260200160028201548152602001600382015481526020016004820154815260200160058201548152505090508060600151915050919050565b60006119cf612234565b600560008473ffffffffffffffffffffffffffffffffffffffff1673ffffffffffffffffffffffffffffffffffffffff16815260200190815260200160002060c06040519081016040529081600082015481526020016001820160009054906101000a900460ff166001811115611a4257fe5b6001811115611a4d57fe5b815260200160028201548152602001600382015481526020016004820154815260200160058201548152505090508060a00151915050919050565b60003360011515600860008373ffffffffffffffffffffffffffffffffffffffff1673ffffffffffffffffffffffffffffffffffffffff16815260200190815260200160002060009054906101000a900460ff161515141515611aea57600080fd5b8360008110158015611afd57506103e881105b1515611b0857600080fd5b84600280811115611b1557fe5b6006600083815260200190815260200160002060020160009054906101000a900460ff166002811115611b4457fe5b141515611b5057600080fd5b33600180811115611b5d57fe5b600560008373ffffffffffffffffffffffffffffffffffffffff1673ffffffffffffffffffffffffffffffffffffffff16815260200190815260200160002060010160009054906101000a900460ff166001811115611bb857fe5b141515611bc457600080fd5b86338073ffffffffffffffffffffffffffffffffffffffff166006600084815260200190815260200160002060000160009054906101000a900473ffffffffffffffffffffffffffffffffffffffff1673ffffffffffffffffffffffffffffffffffffffff16141515611c3657600080fd5b600460009054906101000a900460ff16151515611c5257600080fd5b3373ffffffffffffffffffffffffffffffffffffffff167f76893845517b4c4d36c69621dd4f1a185de6e4fc3ae28967d16357fc4bfe00d88a42604051808381526020018281526020019250505060405180910390a26000611cdb611cd6600660008d8152602001908152602001600020600101544261211890919063ffffffff16565b61185b565b90506000611d3482600560003373ffffffffffffffffffffffffffffffffffffffff1673ffffffffffffffffffffffffffffffffffffffff1681526020019081526020016000206002015461211890919063ffffffff16565b9050600015158a15151415611dbb57600090506000600660008d815260200190815260200160002060020160006101000a81548160ff02191690836002811115611d7a57fe5b02179055507f7a46d9c879f6df7defefd4f4e68a71c038944432414f667201560cbe345703e28b6040518082815260200191505060405180910390a1611fa3565b6001600560003373ffffffffffffffffffffffffffffffffffffffff1673ffffffffffffffffffffffffffffffffffffffff1681526020019081526020016000206005016000828254019250508190555080600560003373ffffffffffffffffffffffffffffffffffffffff1673ffffffffffffffffffffffffffffffffffffffff168152602001908152602001600020600301600082825401925050819055503373ffffffffffffffffffffffffffffffffffffffff166108fc829081150290604051600060405180830381858888f19350505050158015611ea2573d6000803e3d6000fd5b503373ffffffffffffffffffffffffffffffffffffffff167fe0e5873eb9d996d2ab087b071a9a50522121c02b43308c8728c06739f52b3f87600560003373ffffffffffffffffffffffffffffffffffffffff1673ffffffffffffffffffffffffffffffffffffffff168152602001908152602001600020600301546040518082815260200191505060405180910390a26001600660008d815260200190815260200160002060020160006101000a81548160ff02191690836002811115611f6657fe5b02179055507f375f37c1f2f99b1f18d30a4aadd72486ac0db7eb3a05cb6ae1c5dafaab222f178b6040518082815260200191505060405180910390a15b6000600660008d815260200190815260200160002060000160156101000a81548160ff0219169083151502179055506000600560003373ffffffffffffffffffffffffffffffffffffffff1673ffffffffffffffffffffffffffffffffffffffff16815260200190815260200160002060010160006101000a81548160ff0219169083600181111561203157fe5b02179055503373ffffffffffffffffffffffffffffffffffffffff167f5fe9ebeb2d32f13f36a82c6c68d5031d31b95db10a1b0dc75367fd42105d40e060405160405180910390a260019850505050505050505092915050565b6120936108f9565b151561209e57600080fd5b6120a78161213a565b50565b6103e881565b600080821115156120c057600080fd5b600082848115156120cd57fe5b0490508091505092915050565b6000808314156120ed5760009050612112565b6000828402905082848281151561210057fe5b0414151561210d57600080fd5b809150505b92915050565b600082821115151561212957600080fd5b600082840390508091505092915050565b600073ffffffffffffffffffffffffffffffffffffffff168173ffffffffffffffffffffffffffffffffffffffff161415151561217657600080fd5b8073ffffffffffffffffffffffffffffffffffffffff166000809054906101000a900473ffffffffffffffffffffffffffffffffffffffff1673ffffffffffffffffffffffffffffffffffffffff167f8be0079c531659141344cd1fd0a4f28419497f9722a3daafe3b4186f6b6457e060405160405180910390a3806000806101000a81548173ffffffffffffffffffffffffffffffffffffffff021916908373ffffffffffffffffffffffffffffffffffffffff16021790555050565b60c060405190810160405280600081526020016000600181111561225457fe5b8152602001600081526020016000815260200160008152602001600081525090565b60a060405190810160405280600073ffffffffffffffffffffffffffffffffffffffff16815260200160001515815260200160001515815260200160008152602001600060028111156122c557fe5b8152509056fea165627a7a72305820ecb2f86899098fad43ba2c1824073d527b6542d7e79621ea43f9a099b39d65a70029",
  "source": "pragma solidity >=0.4.22 <0.6.0;\n\nimport \"../node_modules/openzeppelin-solidity/contracts/math/SafeMath.sol\";\nimport \"../node_modules/openzeppelin-solidity/contracts/ownership/Ownable.sol\";\n\n/** @title The Bike rental Shop contract */\n\ncontract BikeSharing is Ownable {\n\n    using SafeMath for uint256;\n\n    /*\n                Constants regarding the Bike shop \n            \n    MAX_BIKE_COUNT = the number of bikes that the shop owns. A bike Id cannot be greater than this value\n    BIKE_VALUE = the value of a bike, that will be asked as deposit at renting inception\n    TIME_LIMIT = number of minutes in a day. If the renting time goes above this limit, the user's deposit won't be reimbursed\n    MINUTE_FACTOR = convert into seconds (default time unit in Solidity)\n    RENT_FEE = How much does a minute of riding cost ? \n    */ \n\n    uint256 constant public MAX_BIKE_COUNT = 1000;\n    uint256 constant public BIKE_VALUE = 1 ether;\n    uint256 constant public TIME_LIMIT = 1440; // in minutes\n    uint256 constant public MINUTE_FACTOR = 60;\n    uint256 constant public RENT_FEE = 500 szabo;\n\n    /* Global Storage Variables */ \n\n    address bikeAdmin;                                  // The bike shop's admin\n    uint256 requiredDeposit;                            // The required deposit when renting\n    uint256 fee;                                        // The minute fee asked\n    bool internal stopSwitch;                           // The emergency stop variable\n\n    // Mappings\n    mapping(address => Client) public clientMapping;    // Mapping from address to client data storage\n    mapping(uint256 => Bike) bikeMapping;               // Mapping from bike index to bike data\n    mapping(uint256 => bool) isBikeActive;              // Mapping to check if bike has been activated for the 1st time\n    mapping(address => bool) isBikeClient;              // Mapping to check if a user is client of the bike shop\n\n    // ClientLists for counting \n    address[] clientList;\n\n    /*\n    ================================================================\n                            Data structures\n    ================================================================\n    */ \n\n    enum BikeState {DEACTIVATED, AVAILABLE, IN_USE}\n    enum ClientState {GOOD_TO_GO, IN_RIDE}\n\n    struct Bike {\n        address lastRenter;                             // Keep address of the last renter\n        bool condition;                                 // Bike's condition : true = good, false = bad\n        bool currentlyInUse;                            // Boolean acting as a quick-verifier (is the bike being used currently)\n        uint256 usageTime;                              // Unix timestamp (to calculate the duration of a ride)\n        BikeState state;                                // One of the 3 states enumerated\n    }\n    \n    struct Client {\n        uint256 clientListPointer;                      // The order in which the clients became client of the shop\n        ClientState state;                              // One of the 2 states : in ride or good to go\n        uint256 received;                               // For the last ride, how much received (normally = deposit)\n        uint256 returned;                               // For the last ride, how much was returned\n        uint256 numberRides;                            // Count of total number of rides\n        uint256 goodRides;                              // Count of total number of good rides (bike was returned in good condition)\n    }\n\n    /*\n    ================================================================\n                            Modifiers\n    ================================================================\n    */ \n\n    /// @dev Only a person who is client of the bike shop can access\n    modifier bikeClientOnly(address clientAddress) {\n        require(isBikeClient[clientAddress] == true);\n        _;\n    }\n\n    /// @dev Is the bike identifier within the bounds of bike inventory\n    modifier validParametersBike(uint256 bikeId) {\n        require(bikeId >= 0 && bikeId < MAX_BIKE_COUNT);\n        _;\n    }\n\n    /// @dev Is bike during a ride\n    modifier bikeInRide (uint256 bikeId) {\n        require(bikeMapping[bikeId].state == BikeState.IN_USE);\n        _;\n    }\n\n    /// @dev Does the bike belong to the one who rented it\n    modifier bikeUser (uint256 bikeId, address clientAdr) {\n        require(bikeMapping[bikeId].lastRenter == clientAdr);\n        _;\n    }\n\n    /// @dev Is the client during a trip\n    modifier clientInRide (address clientAdr) {\n        require(clientMapping[clientAdr].state == ClientState.IN_RIDE);\n        _;\n    }\n\n    /// @dev emergency stop\n    modifier emergencyStop() {\n        require(!stopSwitch);\n        _;\n    }\n\n    /*\n    ================================================================\n                            Events\n    ================================================================\n    */ \n\n    /// @dev A bike has been rent, by a renter\n    event LogBikeRent(uint256 bikeId, address indexed renter, bool status);\n    /// @dev Deposit was received by the contract\n    event LogReceivedFunds(address indexed sender, uint256 amount);\n    /// @dev Funds were paid back to the user\n    event LogReturnedFunds(address indexed recipient, uint256 amount);\n\n    /// @dev Fallback event (value was sent to the contract)\n    event Deposit(address indexed sender, uint256 value);\n\n    /// @dev Client creation\n    event ClientCreated(address indexed clientAddress);\n\n    /// @dev Bike is initiated / deactivated\n    event BikeInitiated(uint256 bikeId);\n    event BikeDeactivated(uint256 bikeId);\n\n    /// @dev The Bike / the client is good to go\n    event BikeAvailable(uint256 bikeId);\n    event ClientGoodToGo(address indexed clientAddress);\n\n    /// @dev Record the start/stop time of the trip\n    event TripStarted(address indexed clientAddress, uint256 bikeId, uint256 time);\n    event TripFinished(address indexed clientAddress, uint256 bikeId, uint256 time);\n\n    /// @dev the Stop switch is activated / deactivated\n    event StopSwitchChanged(bool currentStatus);\n\n    /*\n    ================================================================\n                            Constructor\n    ================================================================\n    */ \n\n    /// @dev Contract constructor sets the bike Admin address, the fee (by minute) and the necessary deposit\n    constructor() public Ownable() {\n        bikeAdmin = msg.sender;\n        requiredDeposit = BIKE_VALUE;\n        fee = RENT_FEE;\n    }\n\n    /*\n    ================================================================\n                            Bike housekeeping\n    ================================================================\n    */ \n\n    /// @dev Check if the bike is being used for the first time\n    /// @param bikeId the ID of a bike\n    /// @return isFirstTime True if the bike has never been used, False otherwise\n    function isBikeFirstUse(uint256 bikeId) \n        public \n        view \n        returns(bool isFirstTime) \n    {   \n        return isBikeActive[bikeId] == false;\n    }\n\n    /// @dev Count the number of clients \n    /// @return Number of clients\n    function getClientCount()\n        public \n        view \n        returns(uint256 clientCount)\n    {\n        return clientList.length;\n    }\n\n    /// @dev Check if some address is related to a client\n    /// @param clientAdr the address of a client\n    /// @return True if the address is a client address\n    function isClient(address clientAdr) \n        public \n        view \n        returns (bool isIndeed)\n    {\n        return isBikeClient[clientAdr] == true;\n    }\n\n    /// @dev Check the fee amount for a certain duration (in minutes) for renting the bike\n    /// @param duration length \n    /// @return Fee due \n    function calculateFee(uint256 duration) \n        public \n        view \n        returns (uint256) \n    {\n        uint256 num_minutes = duration.div(MINUTE_FACTOR);\n         \n        if(num_minutes > TIME_LIMIT){\n            return requiredDeposit;\n        }\n        uint256 toPay = num_minutes.mul(fee);\n        return toPay;\n    }\n\n    /* \n    ================================================================\n                        Rent and surrender bikes\n    ================================================================\n    */\n\n    /// @dev Someone can rent a bike\n    /// @param bikeId The client must input the bike id\n    /// @return success Did the renting process succeed ? \n    function rentBike(uint256 bikeId) \n        external \n        payable\n        validParametersBike(bikeId)\n        emergencyStop\n        returns (bool success) \n    {\n\n        // Require that the user pays the right amount for the bike\n        require(msg.value == requiredDeposit);\n\n        // Check if the bike is activated\n        if(isBikeFirstUse(bikeId)) {\n            // If it's the first use, create the data struct\n            bikeMapping[bikeId] = Bike(\n                {\n                    lastRenter: address(0),\n                    condition: true,\n                    currentlyInUse: false,\n                    usageTime: 0,\n                    state: BikeState.DEACTIVATED\n                }\n            );\n\n            isBikeActive[bikeId] = true;\n            emit BikeInitiated(bikeId);\n\n            bikeMapping[bikeId].state = BikeState.AVAILABLE;\n            emit BikeAvailable(bikeId);\n\n        } else {\n            // The bike must be unused, in good condition, activated, and not in ride already\n            require(bikeMapping[bikeId].currentlyInUse == false);\n            require(bikeMapping[bikeId].condition == true);\n            require(bikeMapping[bikeId].state == BikeState.AVAILABLE);\n        }\n\n        // Check if the address is a client, if not create a struct \n        if(!isClient(msg.sender)){\n\n            clientMapping[msg.sender] = Client(\n                {\n                    clientListPointer: clientList.push(msg.sender) - 1,\n                    state: ClientState.GOOD_TO_GO,\n                    received: 0,\n                    returned: 0,\n                    numberRides: 0,\n                    goodRides: 0\n                }\n            );\n\n            // The client profile is created    \n            isBikeClient[msg.sender] = true;\n            emit ClientCreated(msg.sender);\n\n        } else {\n            // The client must not be already using a bike\n            require(clientMapping[msg.sender].state == ClientState.GOOD_TO_GO);\n            // Reset the count for how much the user received and returned (as a trip is starting)\n            clientMapping[msg.sender].received = 0;\n            clientMapping[msg.sender].returned = 0;\n        }\n\n        // Account for the transfer being made\n        clientMapping[msg.sender].received += requiredDeposit;\n        emit LogReceivedFunds(msg.sender, msg.value);\n\n        // Change bike situation and state\n        bikeMapping[bikeId].lastRenter = msg.sender;\n        bikeMapping[bikeId].currentlyInUse = true;\n        bikeMapping[bikeId].usageTime = now;\n        bikeMapping[bikeId].state = BikeState.IN_USE;        \n\n        // Change client state and number of rides\n        clientMapping[msg.sender].state = ClientState.IN_RIDE;\n        clientMapping[msg.sender].numberRides += 1;\n\n        emit TripStarted(msg.sender, bikeId, bikeMapping[bikeId].usageTime);\n\n        return bikeMapping[bikeId].currentlyInUse;\n\n    }\n    \n    /// @dev Someone can stop bike usage\n    /// @param bikeId The client must input the bike id \n    /// @return Did it succeed ? \n    function surrenderBike(uint256 bikeId, bool newCondition) \n        external \n        bikeClientOnly(msg.sender)\n        validParametersBike(bikeId)\n        bikeInRide(bikeId)\n        clientInRide(msg.sender)\n        bikeUser(bikeId, msg.sender)\n        emergencyStop\n        returns (bool success)\n    {\n        emit TripFinished(msg.sender, bikeId, now);\n        uint256 feeCharged = calculateFee(now.sub(bikeMapping[bikeId].usageTime));\n        uint256 owedToClient = clientMapping[msg.sender].received.sub(feeCharged);\n\n        if (newCondition == false) {\n            owedToClient = 0;\n            bikeMapping[bikeId].state = BikeState.DEACTIVATED;\n            emit BikeDeactivated(bikeId);\n        } else {\n            clientMapping[msg.sender].goodRides += 1;\n            clientMapping[msg.sender].returned += owedToClient;\n            msg.sender.transfer(owedToClient);\n            emit LogReturnedFunds(msg.sender, clientMapping[msg.sender].returned);                \n            bikeMapping[bikeId].state = BikeState.AVAILABLE;\n            emit BikeAvailable(bikeId);\n        }\n\n        // Make the client good to go and the bike not in use\n        bikeMapping[bikeId].currentlyInUse = false;\n        clientMapping[msg.sender].state = ClientState.GOOD_TO_GO;\n        emit ClientGoodToGo(msg.sender);\n\n        return true;\n    }\n\n\n    /* \n    ================================================================\n                            Getter functions\n    ================================================================\n    */\n\n    /// @dev Get the total rides of a client\n    /// @param clientAdr The client's address\n    /// @return totalRidesCount The client's ride count\n    function getTotalRides(address clientAdr)\n        external\n        view\n        returns (uint256 totalRidesCount)\n    {\n        Client memory client = clientMapping[clientAdr];\n        return client.numberRides;\n    }\n\n    /// @dev Get the rides after which the bike was in good condition\n    /// @param clientAdr The client's address\n    /// @return goodRidesCount The client's good rides count\n    function getGoodRides(address clientAdr)\n        external\n        view\n        returns (uint256 goodRidesCount)\n    {\n        Client memory client = clientMapping[clientAdr];\n        return client.goodRides;\n    }\n\n    /// @dev Get the total value returned to the client \n    /// @param clientAdr The client's address\n    /// @return returnedAmount The client's total returned amount\n    function getReturned(address clientAdr)\n        external \n        view\n        returns (uint256 returnedAmount)\n    {\n        Client memory client = clientMapping[clientAdr];\n        return client.returned;\n    }\n\n    /// @dev Get the bike's value\n    /// @return bikeValue The deposit's bike value\n    function getBikeValue()\n        external\n        view\n        returns (uint256 bikeValue)\n    {\n        return requiredDeposit;\n    }\n\n    /// @dev Get the bike's usage status\n    /// @param bikeId The bike's identifier\n    /// @return inUse Boolean to tell if the bike is being used or not\n   function checkBikeStatus (uint256 bikeId)\n        external\n        view\n        returns (bool inUse)\n    {\n        Bike memory bike = bikeMapping[bikeId];\n        return bike.currentlyInUse;\n    }\n\n    /// @dev Function to check on a bike's data\n    /// @param bikeId The bike's identifier\n    /// @return lastRenter The last user to have used the bike\n    /// @return condition The condition of the bike\n    /// @return currentlyInUse The usage status of the bike\n    /// @return usageTime The timestamp of last usage start\n    /// @return state The bike's state \n    function checkBike (uint256 bikeId)\n        external\n        view\n        returns (address lastRenter, bool condition, bool currentlyInUse, uint256 usageTime, BikeState state)\n    {\n        Bike memory bike = bikeMapping[bikeId];\n        return (bike.lastRenter, bike.condition, bike.currentlyInUse, bike.usageTime, bike.state);\n    }\n\n    /// @dev Function to check on a client's data\n    /// @param clientAdr The client's address\n    /// @return state The client's state (in ride or else)\n    /// @return received The amount the client deposited during his last trip\n    /// @return returned The amount the client received back after his last trip\n    /// @return numberRides Trips count \n    /// @return goodRides Good trips count\n    function checkUser (address clientAdr)\n        external\n        view\n        returns (ClientState state, uint256 received, uint256 returned, uint256 numberRides, uint256 goodRides)\n    {\n        Client memory client = clientMapping[clientAdr];\n        return (client.state, client.received, client.returned, client.numberRides, client.goodRides);\n    }\n\n    /* \n    ================================================================\n                            Fallback function\n    ================================================================\n    */\n\n    /// @dev Fallback function - only the owner can deposit value on it.\n    function ()\n        external\n        onlyOwner\n        payable\n    {\n        if (msg.value > 0) {\n            emit Deposit(msg.sender, msg.value);\n        }\n    }\n    \n    /* \n    ================================================================\n                            Emergency switch\n    ================================================================\n    */\n\n   /** @dev Emergency switch\n    * @return alarmOn A boolean that blocks function execution if true.\n    */ \n    function emergencySwitch()\n        external\n        onlyOwner()\n        returns (bool alarmOn)\n    {\n        if (stopSwitch == false) {\n            stopSwitch = true;\n        } else {\n            stopSwitch = false;\n        }\n        \n        emit StopSwitchChanged(stopSwitch);\n        \n        return stopSwitch;\n    }\n\n    \n}",
  "sourcePath": "/Users/HenriYQ/Desktop/final-project-hyqiu/contracts/BikeSharing.sol",
  "compiler": {
    "name": "solc",
    "version": "0.5.0+commit.1d4f565a.Emscripten.clang"
  },
  "schemaVersion": "3.0.0",
  "updatedAt": "2019-01-28T06:23:59.951Z",
  "devdoc": {
    "methods": {
      "calculateFee(uint256)": {
        "details": "Check the fee amount for a certain duration (in minutes) for renting the bike",
        "params": {
          "duration": "length "
        },
        "return": "Fee due "
      },
      "checkBike(uint256)": {
        "details": "Function to check on a bike's data",
        "params": {
          "bikeId": "The bike's identifier"
        },
        "return": "lastRenter The last user to have used the bikecondition The condition of the bikecurrentlyInUse The usage status of the bikeusageTime The timestamp of last usage startstate The bike's state "
      },
      "checkBikeStatus(uint256)": {
        "details": "Get the bike's usage status",
        "params": {
          "bikeId": "The bike's identifier"
        },
        "return": "inUse Boolean to tell if the bike is being used or not"
      },
      "checkUser(address)": {
        "details": "Function to check on a client's data",
        "params": {
          "clientAdr": "The client's address"
        },
        "return": "state The client's state (in ride or else)received The amount the client deposited during his last tripreturned The amount the client received back after his last tripnumberRides Trips count goodRides Good trips count"
      },
      "constructor": {
        "details": "Contract constructor sets the bike Admin address, the fee (by minute) and the necessary deposit"
      },
      "emergencySwitch()": {
        "details": "Emergency switch",
        "return": "alarmOn A boolean that blocks function execution if true."
      },
      "getBikeValue()": {
        "details": "Get the bike's value",
        "return": "bikeValue The deposit's bike value"
      },
      "getClientCount()": {
        "details": "Count the number of clients ",
        "return": "Number of clients"
      },
      "getGoodRides(address)": {
        "details": "Get the rides after which the bike was in good condition",
        "params": {
          "clientAdr": "The client's address"
        },
        "return": "goodRidesCount The client's good rides count"
      },
      "getReturned(address)": {
        "details": "Get the total value returned to the client ",
        "params": {
          "clientAdr": "The client's address"
        },
        "return": "returnedAmount The client's total returned amount"
      },
      "getTotalRides(address)": {
        "details": "Get the total rides of a client",
        "params": {
          "clientAdr": "The client's address"
        },
        "return": "totalRidesCount The client's ride count"
      },
      "isBikeFirstUse(uint256)": {
        "details": "Check if the bike is being used for the first time",
        "params": {
          "bikeId": "the ID of a bike"
        },
        "return": "isFirstTime True if the bike has never been used, False otherwise"
      },
      "isClient(address)": {
        "details": "Check if some address is related to a client",
        "params": {
          "clientAdr": "the address of a client"
        },
        "return": "True if the address is a client address"
      },
      "isOwner()": {
        "return": "true if `msg.sender` is the owner of the contract."
      },
      "owner()": {
        "return": "the address of the owner."
      },
      "renounceOwnership()": {
        "details": "Allows the current owner to relinquish control of the contract."
      },
      "rentBike(uint256)": {
        "details": "Someone can rent a bike",
        "params": {
          "bikeId": "The client must input the bike id"
        },
        "return": "success Did the renting process succeed ? "
      },
      "surrenderBike(uint256,bool)": {
        "details": "Someone can stop bike usage",
        "params": {
          "bikeId": "The client must input the bike id "
        },
        "return": "Did it succeed ? "
      },
      "transferOwnership(address)": {
        "details": "Allows the current owner to transfer control of the contract to a newOwner.",
        "params": {
          "newOwner": "The address to transfer ownership to."
        }
      }
    },
    "title": "The Bike rental Shop contract "
  },
  "userdoc": {
    "methods": {
      "renounceOwnership()": {
        "notice": "Renouncing to ownership will leave the contract without an owner. It will not be possible to call the functions with the `onlyOwner` modifier anymore."
      }
    }
  }
}