{
  "contractName": "BikeSharing",
  "abi": [
    {
      "constant": true,
      "inputs": [],
      "name": "MINUTE_FACTOR",
      "outputs": [
        {
          "name": "",
          "type": "uint256"
        }
      ],
      "payable": false,
      "stateMutability": "view",
      "type": "function",
      "signature": "0x1f792e8a"
    },
    {
      "constant": true,
      "inputs": [],
      "name": "RENT_FEE",
      "outputs": [
        {
          "name": "",
          "type": "uint256"
        }
      ],
      "payable": false,
      "stateMutability": "view",
      "type": "function",
      "signature": "0x4c3ff289"
    },
    {
      "constant": true,
      "inputs": [],
      "name": "TIME_LIMIT",
      "outputs": [
        {
          "name": "",
          "type": "uint256"
        }
      ],
      "payable": false,
      "stateMutability": "view",
      "type": "function",
      "signature": "0x698224ae"
    },
    {
      "constant": false,
      "inputs": [],
      "name": "renounceOwnership",
      "outputs": [],
      "payable": false,
      "stateMutability": "nonpayable",
      "type": "function",
      "signature": "0x715018a6"
    },
    {
      "constant": true,
      "inputs": [],
      "name": "owner",
      "outputs": [
        {
          "name": "",
          "type": "address"
        }
      ],
      "payable": false,
      "stateMutability": "view",
      "type": "function",
      "signature": "0x8da5cb5b"
    },
    {
      "constant": true,
      "inputs": [],
      "name": "isOwner",
      "outputs": [
        {
          "name": "",
          "type": "bool"
        }
      ],
      "payable": false,
      "stateMutability": "view",
      "type": "function",
      "signature": "0x8f32d59b"
    },
    {
      "constant": true,
      "inputs": [
        {
          "name": "",
          "type": "address"
        }
      ],
      "name": "clientMapping",
      "outputs": [
        {
          "name": "clientListPointer",
          "type": "uint256"
        },
        {
          "name": "state",
          "type": "uint8"
        },
        {
          "name": "received",
          "type": "uint256"
        },
        {
          "name": "returned",
          "type": "uint256"
        },
        {
          "name": "numberRides",
          "type": "uint256"
        },
        {
          "name": "goodRides",
          "type": "uint256"
        }
      ],
      "payable": false,
      "stateMutability": "view",
      "type": "function",
      "signature": "0xa04319bc"
    },
    {
      "constant": true,
      "inputs": [],
      "name": "BIKE_VALUE",
      "outputs": [
        {
          "name": "",
          "type": "uint256"
        }
      ],
      "payable": false,
      "stateMutability": "view",
      "type": "function",
      "signature": "0xcb6dee3c"
    },
    {
      "constant": false,
      "inputs": [
        {
          "name": "newOwner",
          "type": "address"
        }
      ],
      "name": "transferOwnership",
      "outputs": [],
      "payable": false,
      "stateMutability": "nonpayable",
      "type": "function",
      "signature": "0xf2fde38b"
    },
    {
      "constant": true,
      "inputs": [],
      "name": "MAX_BIKE_COUNT",
      "outputs": [
        {
          "name": "",
          "type": "uint256"
        }
      ],
      "payable": false,
      "stateMutability": "view",
      "type": "function",
      "signature": "0xf4bb7413"
    },
    {
      "inputs": [],
      "payable": false,
      "stateMutability": "nonpayable",
      "type": "constructor",
      "signature": "constructor"
    },
    {
      "payable": true,
      "stateMutability": "payable",
      "type": "fallback"
    },
    {
      "anonymous": false,
      "inputs": [
        {
          "indexed": false,
          "name": "bikeId",
          "type": "uint256"
        },
        {
          "indexed": true,
          "name": "renter",
          "type": "address"
        },
        {
          "indexed": false,
          "name": "status",
          "type": "bool"
        }
      ],
      "name": "LogBikeRent",
      "type": "event",
      "signature": "0xcd77a878eade216fb4b5fe5434897088409c92ce8ce1296f5f6dffb6c32562d8"
    },
    {
      "anonymous": false,
      "inputs": [
        {
          "indexed": true,
          "name": "sender",
          "type": "address"
        },
        {
          "indexed": false,
          "name": "amount",
          "type": "uint256"
        }
      ],
      "name": "LogReceivedFunds",
      "type": "event",
      "signature": "0x81d2c188629cc4a1c694d285150cb5fa3dde3157a2684460d3ac7a1e331f6164"
    },
    {
      "anonymous": false,
      "inputs": [
        {
          "indexed": true,
          "name": "recipient",
          "type": "address"
        },
        {
          "indexed": false,
          "name": "amount",
          "type": "uint256"
        }
      ],
      "name": "LogReturnedFunds",
      "type": "event",
      "signature": "0xe0e5873eb9d996d2ab087b071a9a50522121c02b43308c8728c06739f52b3f87"
    },
    {
      "anonymous": false,
      "inputs": [
        {
          "indexed": true,
          "name": "sender",
          "type": "address"
        },
        {
          "indexed": false,
          "name": "value",
          "type": "uint256"
        }
      ],
      "name": "Deposit",
      "type": "event",
      "signature": "0xe1fffcc4923d04b559f4d29a8bfc6cda04eb5b0d3c460751c2402c5c5cc9109c"
    },
    {
      "anonymous": false,
      "inputs": [
        {
          "indexed": true,
          "name": "clientAddress",
          "type": "address"
        }
      ],
      "name": "ClientCreated",
      "type": "event",
      "signature": "0xbac77b32f9eac52b557987e1084037afcfe4d478ef2fc4c8cdae1eb5f86d40a3"
    },
    {
      "anonymous": false,
      "inputs": [
        {
          "indexed": false,
          "name": "bikeId",
          "type": "uint256"
        }
      ],
      "name": "BikeAvailable",
      "type": "event",
      "signature": "0x375f37c1f2f99b1f18d30a4aadd72486ac0db7eb3a05cb6ae1c5dafaab222f17"
    },
    {
      "anonymous": false,
      "inputs": [
        {
          "indexed": true,
          "name": "clientAddress",
          "type": "address"
        }
      ],
      "name": "ClientGoodToGo",
      "type": "event",
      "signature": "0x5fe9ebeb2d32f13f36a82c6c68d5031d31b95db10a1b0dc75367fd42105d40e0"
    },
    {
      "anonymous": false,
      "inputs": [
        {
          "indexed": false,
          "name": "bikeId",
          "type": "uint256"
        }
      ],
      "name": "BikeInRide",
      "type": "event",
      "signature": "0x3a9700c17404a9ebb47f8e8763496790b26dde6f5d4b715ea94122cb18ad24cb"
    },
    {
      "anonymous": false,
      "inputs": [
        {
          "indexed": true,
          "name": "clientAddress",
          "type": "address"
        }
      ],
      "name": "ClientInRide",
      "type": "event",
      "signature": "0x3a6c7957e723fac1b5307315dfa06e7359f36af3e5e447098cc25c40a51a935d"
    },
    {
      "anonymous": false,
      "inputs": [
        {
          "indexed": false,
          "name": "bikeId",
          "type": "uint256"
        }
      ],
      "name": "BikeDeactivated",
      "type": "event",
      "signature": "0x7a46d9c879f6df7defefd4f4e68a71c038944432414f667201560cbe345703e2"
    },
    {
      "anonymous": false,
      "inputs": [
        {
          "indexed": false,
          "name": "bikeId",
          "type": "uint256"
        }
      ],
      "name": "BikeInitiated",
      "type": "event",
      "signature": "0x4986b064b569c6fa049687ef20f2083e297cbd4b1166eab7b06a9cb410bb6529"
    },
    {
      "anonymous": false,
      "inputs": [
        {
          "indexed": false,
          "name": "currentStatus",
          "type": "bool"
        }
      ],
      "name": "StopSwitchChanged",
      "type": "event",
      "signature": "0x67e1f06c646cd0258df4917ba95be6924b550249a7c45eeb41dfd6b8130fd588"
    },
    {
      "anonymous": false,
      "inputs": [
        {
          "indexed": true,
          "name": "previousOwner",
          "type": "address"
        },
        {
          "indexed": true,
          "name": "newOwner",
          "type": "address"
        }
      ],
      "name": "OwnershipTransferred",
      "type": "event",
      "signature": "0x8be0079c531659141344cd1fd0a4f28419497f9722a3daafe3b4186f6b6457e0"
    },
    {
      "constant": true,
      "inputs": [
        {
          "name": "bikeId",
          "type": "uint256"
        }
      ],
      "name": "isBikeFirstUse",
      "outputs": [
        {
          "name": "isFirstTime",
          "type": "bool"
        }
      ],
      "payable": false,
      "stateMutability": "view",
      "type": "function",
      "signature": "0x21404d3e"
    },
    {
      "constant": true,
      "inputs": [],
      "name": "getClientCount",
      "outputs": [
        {
          "name": "clientCount",
          "type": "uint256"
        }
      ],
      "payable": false,
      "stateMutability": "view",
      "type": "function",
      "signature": "0x5a81018a"
    },
    {
      "constant": true,
      "inputs": [
        {
          "name": "clientAdr",
          "type": "address"
        }
      ],
      "name": "isClient",
      "outputs": [
        {
          "name": "isIndeed",
          "type": "bool"
        }
      ],
      "payable": false,
      "stateMutability": "view",
      "type": "function",
      "signature": "0x84b7964f"
    },
    {
      "constant": true,
      "inputs": [],
      "name": "getBalance",
      "outputs": [
        {
          "name": "balance",
          "type": "uint256"
        }
      ],
      "payable": false,
      "stateMutability": "view",
      "type": "function",
      "signature": "0x12065fe0"
    },
    {
      "constant": true,
      "inputs": [
        {
          "name": "duration",
          "type": "uint256"
        }
      ],
      "name": "calculateFee",
      "outputs": [
        {
          "name": "",
          "type": "uint256"
        }
      ],
      "payable": false,
      "stateMutability": "view",
      "type": "function",
      "signature": "0x99a5d747"
    },
    {
      "constant": false,
      "inputs": [
        {
          "name": "bikeId",
          "type": "uint256"
        }
      ],
      "name": "rentBike",
      "outputs": [
        {
          "name": "success",
          "type": "bool"
        }
      ],
      "payable": true,
      "stateMutability": "payable",
      "type": "function",
      "signature": "0x7ad8f224"
    },
    {
      "constant": false,
      "inputs": [
        {
          "name": "bikeId",
          "type": "uint256"
        },
        {
          "name": "newCondition",
          "type": "bool"
        }
      ],
      "name": "surrenderBike",
      "outputs": [
        {
          "name": "success",
          "type": "bool"
        }
      ],
      "payable": false,
      "stateMutability": "nonpayable",
      "type": "function",
      "signature": "0xed6287ba"
    },
    {
      "constant": false,
      "inputs": [],
      "name": "emergencySwitch",
      "outputs": [
        {
          "name": "alarmOn",
          "type": "bool"
        }
      ],
      "payable": false,
      "stateMutability": "nonpayable",
      "type": "function",
      "signature": "0x7c51e311"
    },
    {
      "constant": true,
      "inputs": [
        {
          "name": "clientAdr",
          "type": "address"
        }
      ],
      "name": "getTotalRides",
      "outputs": [
        {
          "name": "totalRidesCount",
          "type": "uint256"
        }
      ],
      "payable": false,
      "stateMutability": "view",
      "type": "function",
      "signature": "0x43a8980b"
    },
    {
      "constant": true,
      "inputs": [
        {
          "name": "clientAdr",
          "type": "address"
        }
      ],
      "name": "getGoodRides",
      "outputs": [
        {
          "name": "goodRidesCount",
          "type": "uint256"
        }
      ],
      "payable": false,
      "stateMutability": "view",
      "type": "function",
      "signature": "0xdc051b7b"
    },
    {
      "constant": true,
      "inputs": [
        {
          "name": "clientAdr",
          "type": "address"
        }
      ],
      "name": "getReturned",
      "outputs": [
        {
          "name": "returnedAmount",
          "type": "uint256"
        }
      ],
      "payable": false,
      "stateMutability": "view",
      "type": "function",
      "signature": "0xce00b67b"
    },
    {
      "constant": true,
      "inputs": [],
      "name": "getBikeValue",
      "outputs": [
        {
          "name": "bikeValue",
          "type": "uint256"
        }
      ],
      "payable": false,
      "stateMutability": "view",
      "type": "function",
      "signature": "0x467519b8"
    },
    {
      "constant": true,
      "inputs": [
        {
          "name": "bikeId",
          "type": "uint256"
        }
      ],
      "name": "checkBikeStatus",
      "outputs": [
        {
          "name": "inUse",
          "type": "bool"
        }
      ],
      "payable": false,
      "stateMutability": "view",
      "type": "function",
      "signature": "0x73c4b27f"
    },
    {
      "constant": true,
      "inputs": [
        {
          "name": "bikeId",
          "type": "uint256"
        }
      ],
      "name": "checkBike",
      "outputs": [
        {
          "name": "lastRenter",
          "type": "address"
        },
        {
          "name": "condition",
          "type": "bool"
        },
        {
          "name": "currentlyInUse",
          "type": "bool"
        },
        {
          "name": "usageTime",
          "type": "uint256"
        },
        {
          "name": "state",
          "type": "uint8"
        }
      ],
      "payable": false,
      "stateMutability": "view",
      "type": "function",
      "signature": "0x8910676f"
    }
  ],
  "bytecode": "0x608060405234801561001057600080fd5b50336000806101000a81548173ffffffffffffffffffffffffffffffffffffffff021916908373ffffffffffffffffffffffffffffffffffffffff1602179055506000809054906101000a900473ffffffffffffffffffffffffffffffffffffffff1673ffffffffffffffffffffffffffffffffffffffff16600073ffffffffffffffffffffffffffffffffffffffff167f8be0079c531659141344cd1fd0a4f28419497f9722a3daafe3b4186f6b6457e060405160405180910390a333600160006101000a81548173ffffffffffffffffffffffffffffffffffffffff021916908373ffffffffffffffffffffffffffffffffffffffff160217905550670de0b6b3a76400006002819055506601c6bf526340006003819055506121ca8061013a6000396000f3fe60806040526004361061013e576000357c0100000000000000000000000000000000000000000000000000000000900463ffffffff16806312065fe0146101985780631f792e8a146101c357806321404d3e146101ee57806343a8980b14610241578063467519b8146102a65780634c3ff289146102d15780635a81018a146102fc578063698224ae14610327578063715018a61461035257806373c4b27f146103695780637ad8f224146103bc5780637c51e3111461040257806384b7964f146104315780638910676f1461049a5780638da5cb5b146105475780638f32d59b1461059e57806399a5d747146105cd578063a04319bc1461061c578063cb6dee3c146106b2578063ce00b67b146106dd578063dc051b7b14610742578063ed6287ba146107a7578063f2fde38b14610806578063f4bb741314610857575b6000341115610196573373ffffffffffffffffffffffffffffffffffffffff167fe1fffcc4923d04b559f4d29a8bfc6cda04eb5b0d3c460751c2402c5c5cc9109c346040518082815260200191505060405180910390a25b005b3480156101a457600080fd5b506101ad610882565b6040518082815260200191505060405180910390f35b3480156101cf57600080fd5b506101d86108fd565b6040518082815260200191505060405180910390f35b3480156101fa57600080fd5b506102276004803603602081101561021157600080fd5b8101908080359060200190929190505050610902565b604051808215151515815260200191505060405180910390f35b34801561024d57600080fd5b506102906004803603602081101561026457600080fd5b81019080803573ffffffffffffffffffffffffffffffffffffffff169060200190929190505050610932565b6040518082815260200191505060405180910390f35b3480156102b257600080fd5b506102bb6109f5565b6040518082815260200191505060405180910390f35b3480156102dd57600080fd5b506102e66109ff565b6040518082815260200191505060405180910390f35b34801561030857600080fd5b50610311610a0a565b6040518082815260200191505060405180910390f35b34801561033357600080fd5b5061033c610a17565b6040518082815260200191505060405180910390f35b34801561035e57600080fd5b50610367610a1d565b005b34801561037557600080fd5b506103a26004803603602081101561038c57600080fd5b8101908080359060200190929190505050610aef565b604051808215151515815260200191505060405180910390f35b6103e8600480360360208110156103d257600080fd5b8101908080359060200190929190505050610bea565b604051808215151515815260200191505060405180910390f35b34801561040e57600080fd5b506104176114ba565b604051808215151515815260200191505060405180910390f35b34801561043d57600080fd5b506104806004803603602081101561045457600080fd5b81019080803573ffffffffffffffffffffffffffffffffffffffff169060200190929190505050611586565b604051808215151515815260200191505060405180910390f35b3480156104a657600080fd5b506104d3600480360360208110156104bd57600080fd5b81019080803590602001909291905050506115e3565b604051808673ffffffffffffffffffffffffffffffffffffffff1673ffffffffffffffffffffffffffffffffffffffff168152602001851515151581526020018415151515815260200183815260200182600281111561052f57fe5b60ff1681526020019550505050505060405180910390f35b34801561055357600080fd5b5061055c611704565b604051808273ffffffffffffffffffffffffffffffffffffffff1673ffffffffffffffffffffffffffffffffffffffff16815260200191505060405180910390f35b3480156105aa57600080fd5b506105b361172d565b604051808215151515815260200191505060405180910390f35b3480156105d957600080fd5b50610606600480360360208110156105f057600080fd5b8101908080359060200190929190505050611784565b6040518082815260200191505060405180910390f35b34801561062857600080fd5b5061066b6004803603602081101561063f57600080fd5b81019080803573ffffffffffffffffffffffffffffffffffffffff1690602001909291905050506117d6565b6040518087815260200186600181111561068157fe5b60ff168152602001858152602001848152602001838152602001828152602001965050505050505060405180910390f35b3480156106be57600080fd5b506106c761181f565b6040518082815260200191505060405180910390f35b3480156106e957600080fd5b5061072c6004803603602081101561070057600080fd5b81019080803573ffffffffffffffffffffffffffffffffffffffff16906020019092919050505061182b565b6040518082815260200191505060405180910390f35b34801561074e57600080fd5b506107916004803603602081101561076557600080fd5b81019080803573ffffffffffffffffffffffffffffffffffffffff1690602001909291905050506118ee565b6040518082815260200191505060405180910390f35b3480156107b357600080fd5b506107ec600480360360408110156107ca57600080fd5b81019080803590602001909291908035151590602001909291905050506119b1565b604051808215151515815260200191505060405180910390f35b34801561081257600080fd5b506108556004803603602081101561082957600080fd5b81019080803573ffffffffffffffffffffffffffffffffffffffff169060200190929190505050611f5e565b005b34801561086357600080fd5b5061086c611f7d565b6040518082815260200191505060405180910390f35b6000600160009054906101000a900473ffffffffffffffffffffffffffffffffffffffff1673ffffffffffffffffffffffffffffffffffffffff163373ffffffffffffffffffffffffffffffffffffffff161415156108e057600080fd5b3073ffffffffffffffffffffffffffffffffffffffff1631905090565b603c81565b60008015156007600084815260200190815260200160002060009054906101000a900460ff161515149050919050565b600061093c612107565b600560008473ffffffffffffffffffffffffffffffffffffffff1673ffffffffffffffffffffffffffffffffffffffff16815260200190815260200160002060c06040519081016040529081600082015481526020016001820160009054906101000a900460ff1660018111156109af57fe5b60018111156109ba57fe5b815260200160028201548152602001600382015481526020016004820154815260200160058201548152505090508060800151915050919050565b6000600254905090565b6601c6bf5263400081565b6000600980549050905090565b6105a081565b610a2561172d565b1515610a3057600080fd5b600073ffffffffffffffffffffffffffffffffffffffff166000809054906101000a900473ffffffffffffffffffffffffffffffffffffffff1673ffffffffffffffffffffffffffffffffffffffff167f8be0079c531659141344cd1fd0a4f28419497f9722a3daafe3b4186f6b6457e060405160405180910390a360008060006101000a81548173ffffffffffffffffffffffffffffffffffffffff021916908373ffffffffffffffffffffffffffffffffffffffff160217905550565b6000610af9612149565b6006600084815260200190815260200160002060a060405190810160405290816000820160009054906101000a900473ffffffffffffffffffffffffffffffffffffffff1673ffffffffffffffffffffffffffffffffffffffff1673ffffffffffffffffffffffffffffffffffffffff1681526020016000820160149054906101000a900460ff161515151581526020016000820160159054906101000a900460ff16151515158152602001600182015481526020016002820160009054906101000a900460ff166002811115610bcc57fe5b6002811115610bd757fe5b8152505090508060400151915050919050565b60008160008110158015610bff57506103e881105b1515610c0a57600080fd5b600460009054906101000a900460ff16151515610c2657600080fd5b60025434141515610c3657600080fd5b610c3f83610902565b15610e3d5760a060405190810160405280600073ffffffffffffffffffffffffffffffffffffffff1681526020016001151581526020016000151581526020016000815260200160006002811115610c9357fe5b8152506006600085815260200190815260200160002060008201518160000160006101000a81548173ffffffffffffffffffffffffffffffffffffffff021916908373ffffffffffffffffffffffffffffffffffffffff16021790555060208201518160000160146101000a81548160ff02191690831515021790555060408201518160000160156101000a81548160ff0219169083151502179055506060820151816001015560808201518160020160006101000a81548160ff02191690836002811115610d5e57fe5b021790555090505060016007600085815260200190815260200160002060006101000a81548160ff0219169083151502179055507f4986b064b569c6fa049687ef20f2083e297cbd4b1166eab7b06a9cb410bb6529836040518082815260200191505060405180910390a160016006600085815260200190815260200160002060020160006101000a81548160ff02191690836002811115610dfc57fe5b02179055507f375f37c1f2f99b1f18d30a4aadd72486ac0db7eb3a05cb6ae1c5dafaab222f17836040518082815260200191505060405180910390a1610ef2565b600015156006600085815260200190815260200160002060000160159054906101000a900460ff161515141515610e7357600080fd5b600115156006600085815260200190815260200160002060000160149054906101000a900460ff161515141515610ea957600080fd5b60016002811115610eb657fe5b6006600085815260200190815260200160002060020160009054906101000a900460ff166002811115610ee557fe5b141515610ef157600080fd5b5b610efb33611586565b15156110e35760c060405190810160405280600160093390806001815401808255809150509060018203906000526020600020016000909192909190916101000a81548173ffffffffffffffffffffffffffffffffffffffff021916908373ffffffffffffffffffffffffffffffffffffffff16021790555003815260200160006001811115610f8757fe5b81526020016000815260200160008152602001600081526020016000815250600560003373ffffffffffffffffffffffffffffffffffffffff1673ffffffffffffffffffffffffffffffffffffffff1681526020019081526020016000206000820151816000015560208201518160010160006101000a81548160ff0219169083600181111561101357fe5b021790555060408201518160020155606082015181600301556080820151816004015560a082015181600501559050506001600860003373ffffffffffffffffffffffffffffffffffffffff1673ffffffffffffffffffffffffffffffffffffffff16815260200190815260200160002060006101000a81548160ff0219169083151502179055503373ffffffffffffffffffffffffffffffffffffffff167fbac77b32f9eac52b557987e1084037afcfe4d478ef2fc4c8cdae1eb5f86d40a360405160405180910390a26111e8565b600060018111156110f057fe5b600560003373ffffffffffffffffffffffffffffffffffffffff1673ffffffffffffffffffffffffffffffffffffffff16815260200190815260200160002060010160009054906101000a900460ff16600181111561114b57fe5b14151561115757600080fd5b6000600560003373ffffffffffffffffffffffffffffffffffffffff1673ffffffffffffffffffffffffffffffffffffffff168152602001908152602001600020600201819055506000600560003373ffffffffffffffffffffffffffffffffffffffff1673ffffffffffffffffffffffffffffffffffffffff168152602001908152602001600020600301819055505b600254600560003373ffffffffffffffffffffffffffffffffffffffff1673ffffffffffffffffffffffffffffffffffffffff168152602001908152602001600020600201600082825401925050819055503373ffffffffffffffffffffffffffffffffffffffff167f81d2c188629cc4a1c694d285150cb5fa3dde3157a2684460d3ac7a1e331f6164346040518082815260200191505060405180910390a2336006600085815260200190815260200160002060000160006101000a81548173ffffffffffffffffffffffffffffffffffffffff021916908373ffffffffffffffffffffffffffffffffffffffff16021790555060016006600085815260200190815260200160002060000160156101000a81548160ff02191690831515021790555042600660008581526020019081526020016000206001018190555060026006600085815260200190815260200160002060020160006101000a81548160ff0219169083600281111561135a57fe5b02179055507f3a9700c17404a9ebb47f8e8763496790b26dde6f5d4b715ea94122cb18ad24cb836040518082815260200191505060405180910390a16001600560003373ffffffffffffffffffffffffffffffffffffffff1673ffffffffffffffffffffffffffffffffffffffff16815260200190815260200160002060010160006101000a81548160ff021916908360018111156113f557fe5b02179055506001600560003373ffffffffffffffffffffffffffffffffffffffff1673ffffffffffffffffffffffffffffffffffffffff168152602001908152602001600020600401600082825401925050819055503373ffffffffffffffffffffffffffffffffffffffff167f3a6c7957e723fac1b5307315dfa06e7359f36af3e5e447098cc25c40a51a935d60405160405180910390a26006600084815260200190815260200160002060000160159054906101000a900460ff16915050919050565b60006114c461172d565b15156114cf57600080fd5b60001515600460009054906101000a900460ff161515141561150b576001600460006101000a81548160ff021916908315150217905550611527565b6000600460006101000a81548160ff0219169083151502179055505b7f67e1f06c646cd0258df4917ba95be6924b550249a7c45eeb41dfd6b8130fd588600460009054906101000a900460ff16604051808215151515815260200191505060405180910390a1600460009054906101000a900460ff16905090565b600060011515600860008473ffffffffffffffffffffffffffffffffffffffff1673ffffffffffffffffffffffffffffffffffffffff16815260200190815260200160002060009054906101000a900460ff161515149050919050565b60008060008060006115f3612149565b6006600088815260200190815260200160002060a060405190810160405290816000820160009054906101000a900473ffffffffffffffffffffffffffffffffffffffff1673ffffffffffffffffffffffffffffffffffffffff1673ffffffffffffffffffffffffffffffffffffffff1681526020016000820160149054906101000a900460ff161515151581526020016000820160159054906101000a900460ff16151515158152602001600182015481526020016002820160009054906101000a900460ff1660028111156116c657fe5b60028111156116d157fe5b81525050905080600001518160200151826040015183606001518460800151955095509550955095505091939590929450565b60008060009054906101000a900473ffffffffffffffffffffffffffffffffffffffff16905090565b60008060009054906101000a900473ffffffffffffffffffffffffffffffffffffffff1673ffffffffffffffffffffffffffffffffffffffff163373ffffffffffffffffffffffffffffffffffffffff1614905090565b60008061179b603c84611f8390919063ffffffff16565b90506105a08111156117b2576002549150506117d1565b60006117c960035483611fad90919063ffffffff16565b905080925050505b919050565b60056020528060005260406000206000915090508060000154908060010160009054906101000a900460ff16908060020154908060030154908060040154908060050154905086565b670de0b6b3a764000081565b6000611835612107565b600560008473ffffffffffffffffffffffffffffffffffffffff1673ffffffffffffffffffffffffffffffffffffffff16815260200190815260200160002060c06040519081016040529081600082015481526020016001820160009054906101000a900460ff1660018111156118a857fe5b60018111156118b357fe5b815260200160028201548152602001600382015481526020016004820154815260200160058201548152505090508060600151915050919050565b60006118f8612107565b600560008473ffffffffffffffffffffffffffffffffffffffff1673ffffffffffffffffffffffffffffffffffffffff16815260200190815260200160002060c06040519081016040529081600082015481526020016001820160009054906101000a900460ff16600181111561196b57fe5b600181111561197657fe5b815260200160028201548152602001600382015481526020016004820154815260200160058201548152505090508060a00151915050919050565b60003360011515600860008373ffffffffffffffffffffffffffffffffffffffff1673ffffffffffffffffffffffffffffffffffffffff16815260200190815260200160002060009054906101000a900460ff161515141515611a1357600080fd5b8360008110158015611a2657506103e881105b1515611a3157600080fd5b84600280811115611a3e57fe5b6006600083815260200190815260200160002060020160009054906101000a900460ff166002811115611a6d57fe5b141515611a7957600080fd5b33600180811115611a8657fe5b600560008373ffffffffffffffffffffffffffffffffffffffff1673ffffffffffffffffffffffffffffffffffffffff16815260200190815260200160002060010160009054906101000a900460ff166001811115611ae157fe5b141515611aed57600080fd5b86338073ffffffffffffffffffffffffffffffffffffffff166006600084815260200190815260200160002060000160009054906101000a900473ffffffffffffffffffffffffffffffffffffffff1673ffffffffffffffffffffffffffffffffffffffff16141515611b5f57600080fd5b600460009054906101000a900460ff16151515611b7b57600080fd5b6000611bae611ba9600660008d81526020019081526020016000206001015442611feb90919063ffffffff16565b611784565b90506000611c0782600560003373ffffffffffffffffffffffffffffffffffffffff1673ffffffffffffffffffffffffffffffffffffffff16815260200190815260200160002060020154611feb90919063ffffffff16565b9050600015158a15151415611c8e57600090506000600660008d815260200190815260200160002060020160006101000a81548160ff02191690836002811115611c4d57fe5b02179055507f7a46d9c879f6df7defefd4f4e68a71c038944432414f667201560cbe345703e28b6040518082815260200191505060405180910390a1611e76565b6001600560003373ffffffffffffffffffffffffffffffffffffffff1673ffffffffffffffffffffffffffffffffffffffff1681526020019081526020016000206005016000828254019250508190555080600560003373ffffffffffffffffffffffffffffffffffffffff1673ffffffffffffffffffffffffffffffffffffffff168152602001908152602001600020600301600082825401925050819055503373ffffffffffffffffffffffffffffffffffffffff166108fc829081150290604051600060405180830381858888f19350505050158015611d75573d6000803e3d6000fd5b503373ffffffffffffffffffffffffffffffffffffffff167fe0e5873eb9d996d2ab087b071a9a50522121c02b43308c8728c06739f52b3f87600560003373ffffffffffffffffffffffffffffffffffffffff1673ffffffffffffffffffffffffffffffffffffffff168152602001908152602001600020600301546040518082815260200191505060405180910390a26001600660008d815260200190815260200160002060020160006101000a81548160ff02191690836002811115611e3957fe5b02179055507f375f37c1f2f99b1f18d30a4aadd72486ac0db7eb3a05cb6ae1c5dafaab222f178b6040518082815260200191505060405180910390a15b6000600660008d815260200190815260200160002060000160156101000a81548160ff0219169083151502179055506000600560003373ffffffffffffffffffffffffffffffffffffffff1673ffffffffffffffffffffffffffffffffffffffff16815260200190815260200160002060010160006101000a81548160ff02191690836001811115611f0457fe5b02179055503373ffffffffffffffffffffffffffffffffffffffff167f5fe9ebeb2d32f13f36a82c6c68d5031d31b95db10a1b0dc75367fd42105d40e060405160405180910390a260019850505050505050505092915050565b611f6661172d565b1515611f7157600080fd5b611f7a8161200d565b50565b6103e881565b60008082111515611f9357600080fd5b60008284811515611fa057fe5b0490508091505092915050565b600080831415611fc05760009050611fe5565b60008284029050828482811515611fd357fe5b04141515611fe057600080fd5b809150505b92915050565b6000828211151515611ffc57600080fd5b600082840390508091505092915050565b600073ffffffffffffffffffffffffffffffffffffffff168173ffffffffffffffffffffffffffffffffffffffff161415151561204957600080fd5b8073ffffffffffffffffffffffffffffffffffffffff166000809054906101000a900473ffffffffffffffffffffffffffffffffffffffff1673ffffffffffffffffffffffffffffffffffffffff167f8be0079c531659141344cd1fd0a4f28419497f9722a3daafe3b4186f6b6457e060405160405180910390a3806000806101000a81548173ffffffffffffffffffffffffffffffffffffffff021916908373ffffffffffffffffffffffffffffffffffffffff16021790555050565b60c060405190810160405280600081526020016000600181111561212757fe5b8152602001600081526020016000815260200160008152602001600081525090565b60a060405190810160405280600073ffffffffffffffffffffffffffffffffffffffff168152602001600015158152602001600015158152602001600081526020016000600281111561219857fe5b8152509056fea165627a7a723058202a0d9e8f08deeac1d3175c914867227cb4748dc28f500eeaa280451e0f4577a80029",
  "source": "pragma solidity >=0.4.22 <0.6.0;\n\nimport \"../node_modules/openzeppelin-solidity/contracts/math/SafeMath.sol\";\nimport \"../node_modules/openzeppelin-solidity/contracts/ownership/Ownable.sol\";\n\ncontract BikeSharing is Ownable {\n\n    using SafeMath for uint256;\n\n    uint256 constant public MAX_BIKE_COUNT = 1000;\n    uint256 constant public BIKE_VALUE = 1 ether;\n    uint256 constant public TIME_LIMIT = 1440; // in minutes\n    uint256 constant public MINUTE_FACTOR = 60;\n    uint256 constant public RENT_FEE = 500 szabo;\n\n    // Hyperparameters\n\n    address bikeAdmin;\n    uint256 requiredDeposit;\n    uint256 fee;\n    bool internal stopSwitch;\n\n    // Mappings\n    mapping(address => Client) public clientMapping;\n    mapping(uint256 => Bike) bikeMapping; \n    mapping(uint256 => bool) isBikeActive; \n    mapping(address => bool) isBikeClient; \n\n    // ClientLists for count\n\n    address[] clientList;\n\n    /*\n    ================================================================\n                            Data structures\n    ================================================================\n    */ \n\n    enum BikeState {DEACTIVATED, AVAILABLE, IN_USE}\n    enum ClientState {GOOD_TO_GO, IN_RIDE}\n\n    struct Bike {\n        address lastRenter;\n        bool condition;\n        bool currentlyInUse;\n        uint usageTime;\n        BikeState state;\n    }\n    \n    struct Client {\n        uint256 clientListPointer;\n        ClientState state;\n        // For the last ride, how much received and returned\n        uint256 received;\n        uint256 returned;\n        // Count of number of rides, number of good rides\n        uint256 numberRides;\n        uint256 goodRides;\n    }\n\n    /*\n    ================================================================\n                            Modifiers\n    ================================================================\n    */ \n\n    modifier adminOnly() {\n        require(msg.sender == bikeAdmin);\n        _;\n    }\n\n    modifier bikeClientOnly(address clientAddress) {\n        require(isBikeClient[clientAddress] == true);\n        _;\n    }\n\n    modifier validParametersBike(uint256 bikeId) {\n        require(bikeId >= 0 && bikeId < MAX_BIKE_COUNT);\n        _;\n    }\n\n    modifier notNullAddress (address _address) {\n        require(_address != address(0));\n        _;\n    }\n\n    modifier bikeInRide (uint256 bikeId) {\n        require(bikeMapping[bikeId].state == BikeState.IN_USE);\n        _;\n    }\n\n    modifier bikeUser (uint256 bikeId, address clientAdr) {\n        require(bikeMapping[bikeId].lastRenter == clientAdr);\n        _;\n    }\n\n    modifier clientInRide (address clientAdr) {\n        require(clientMapping[clientAdr].state == ClientState.IN_RIDE);\n        _;\n    }\n\n    modifier emergencyStop() {\n        require(!stopSwitch);\n        _;\n    }\n\n    /*\n    ================================================================\n                            Events\n    ================================================================\n    */ \n\n    event LogBikeRent(uint256 bikeId, address indexed renter, bool status);\n    event LogReceivedFunds(address indexed sender, uint256 amount);\n    event LogReturnedFunds(address indexed recipient, uint256 amount);\n\n    // Fallback event\n    event Deposit(address indexed sender, uint256 value);\n\n    // Client creation\n    event ClientCreated(address indexed clientAddress);\n\n    // Change of state events\n    event BikeAvailable(uint256 bikeId);\n    event ClientGoodToGo(address indexed clientAddress);\n\n    event BikeInRide(uint256 bikeId);\n    event ClientInRide(address indexed clientAddress);\n\n    event BikeDeactivated(uint256 bikeId);\n\n    event BikeInitiated(uint256 bikeId);\n\n    event StopSwitchChanged(bool currentStatus);\n\n    /*\n    ================================================================\n                            Constructor\n    ================================================================\n    */ \n\n    /// @dev Contract constructor sets the bike Admin address, the fee (by minute) and the necessary deposit\n    constructor() public Ownable() {\n        bikeAdmin = msg.sender;\n        requiredDeposit = BIKE_VALUE;\n        fee = RENT_FEE;\n    }\n\n    /*\n    ================================================================\n                            Bike housekeeping\n    ================================================================\n    */ \n\n    /// @dev Check if the bike is being used for the first time\n    /// @param bikeId the ID of a bike\n    /// @return True if the bike has never been used, False otherwise\n    function isBikeFirstUse(uint256 bikeId) \n        public \n        view \n        returns(bool isFirstTime) \n    {   \n        return isBikeActive[bikeId] == false;\n    }\n\n    /// @dev Count the number of clients \n    /// @return Number of clients\n    function getClientCount()\n        public \n        view \n        returns(uint256 clientCount)\n    {\n        return clientList.length;\n    }\n\n    /// @dev Check if some address is related to a client\n    /// @param clientAdr the address of a client\n    /// @return True if the address is a client address\n\n    function isClient(address clientAdr) \n        public \n        view \n        returns (bool isIndeed)\n    {\n        return isBikeClient[clientAdr] == true;\n    }\n\n    /// @dev Check how much the contract carries value\n    /// @return Contract balance\n    function getBalance() \n        public \n        view\n        adminOnly \n        returns(uint256 balance)\n    {\n        return address(this).balance;\n    }\n\n    /// @dev Check the fee amount for a certain duration (in minutes) for renting the bike\n    /// @param duration length \n    /// @return Fee due \n    function calculateFee(uint256 duration) \n        public \n        view \n        returns (uint256) \n    {\n        uint256 num_minutes = duration.div(MINUTE_FACTOR);\n         \n        if(num_minutes > TIME_LIMIT){\n            return requiredDeposit;\n        }\n        uint256 toPay = num_minutes.mul(fee);\n        return toPay;\n    }\n\n    /* \n    ================================================================\n                        Rent and surrender bikes\n    ================================================================\n    */\n\n    /// @dev Someone can rent a bike\n    /// @param bikeId the client must input the bike id\n    /// @return Did it succeed ? How many rides did the client make ? \n    function rentBike(uint256 bikeId) \n        external \n        payable\n        validParametersBike(bikeId)\n        emergencyStop\n        returns (bool success) \n    {\n\n        // Require that the user pays the right amount for the bike\n        require(msg.value == requiredDeposit);\n\n        // Check if the bike is activated\n        if(isBikeFirstUse(bikeId)) {\n\n            bikeMapping[bikeId] = Bike(\n                {\n                    lastRenter: address(0),\n                    condition: true,\n                    currentlyInUse: false,\n                    usageTime: 0,\n                    state: BikeState.DEACTIVATED\n                }\n            );\n\n            isBikeActive[bikeId] = true;\n            emit BikeInitiated(bikeId);\n\n            bikeMapping[bikeId].state = BikeState.AVAILABLE;\n            emit BikeAvailable(bikeId);\n\n        } else {\n            \n            // The bike must be unused, in good condition, activated, and not in ride already\n            require(bikeMapping[bikeId].currentlyInUse == false);\n            require(bikeMapping[bikeId].condition == true);\n            require(bikeMapping[bikeId].state == BikeState.AVAILABLE);\n        }\n\n        // Check if the address is a client, if not create a struct \n        if(!isClient(msg.sender)){\n\n            clientMapping[msg.sender] = Client(\n                {\n                    clientListPointer: clientList.push(msg.sender) - 1,\n                    state: ClientState.GOOD_TO_GO,\n                    received: 0,\n                    returned: 0,\n                    numberRides: 0,\n                    goodRides: 0\n                }\n            );\n\n            // Finally, the guy is made a client\n            isBikeClient[msg.sender] = true;\n            emit ClientCreated(msg.sender);\n\n        } else {\n            // The client must not be already using a scooter\n            require(clientMapping[msg.sender].state == ClientState.GOOD_TO_GO);\n            // Reset the count for how much the user received and returned\n            clientMapping[msg.sender].received = 0;\n            clientMapping[msg.sender].returned = 0;\n        }\n\n        // Accounting\n        clientMapping[msg.sender].received += requiredDeposit;\n        emit LogReceivedFunds(msg.sender, msg.value);\n\n        // Change bike situation and state\n        bikeMapping[bikeId].lastRenter = msg.sender;\n        bikeMapping[bikeId].currentlyInUse = true;\n        bikeMapping[bikeId].usageTime = now;\n        bikeMapping[bikeId].state = BikeState.IN_USE;        \n        emit BikeInRide(bikeId);\n\n        // Change client state and number of rides\n        clientMapping[msg.sender].state = ClientState.IN_RIDE;\n        clientMapping[msg.sender].numberRides += 1;\n        emit ClientInRide(msg.sender);\n\n        return bikeMapping[bikeId].currentlyInUse;\n\n    }\n    \n    /// @dev Someone can stop bike usage\n    /// @param bikeId The client must input the bike id \n    /// @return Did it succeed ? \n    function surrenderBike(uint256 bikeId, bool newCondition) \n        external \n        bikeClientOnly(msg.sender)\n        validParametersBike(bikeId)\n        bikeInRide(bikeId)\n        clientInRide(msg.sender)\n        bikeUser(bikeId, msg.sender)\n        emergencyStop\n        returns (bool success)\n    {\n        uint256 feeCharged = calculateFee(now.sub(bikeMapping[bikeId].usageTime));\n        uint256 owedToClient = clientMapping[msg.sender].received.sub(feeCharged);\n\n        if (newCondition == false) {\n            owedToClient = 0;\n            bikeMapping[bikeId].state = BikeState.DEACTIVATED;\n            emit BikeDeactivated(bikeId);\n        } else {\n            clientMapping[msg.sender].goodRides += 1;\n            clientMapping[msg.sender].returned += owedToClient;\n            msg.sender.transfer(owedToClient);\n            emit LogReturnedFunds(msg.sender, clientMapping[msg.sender].returned);                \n            bikeMapping[bikeId].state = BikeState.AVAILABLE;\n            emit BikeAvailable(bikeId);\n        }\n\n        bikeMapping[bikeId].currentlyInUse = false;\n\n        // Make the client good to go\n\n        clientMapping[msg.sender].state = ClientState.GOOD_TO_GO;\n        emit ClientGoodToGo(msg.sender);\n\n        return true;\n    }\n\n    /* \n    ================================================================\n                            Fallback function\n    ================================================================\n    */\n\n    function ()\n        external\n        payable\n    {\n        if (msg.value > 0) {\n            emit Deposit(msg.sender, msg.value);\n        }\n    }\n    \n    /* \n    ================================================================\n                            Emergency switch\n    ================================================================\n    */\n\n    function emergencySwitch()\n        external\n        onlyOwner()\n        returns (bool alarmOn)\n    {\n        if (stopSwitch == false) {\n            stopSwitch = true;\n        } else {\n            stopSwitch = false;\n        }\n        \n        emit StopSwitchChanged(stopSwitch);\n        \n        return stopSwitch;\n    }\n\n    /* \n    ================================================================\n                            Getter functions\n    ================================================================\n    */\n\n    function getTotalRides(address clientAdr)\n        public\n        view\n        returns (uint256 totalRidesCount)\n    {\n        Client memory client = clientMapping[clientAdr];\n        return client.numberRides;\n    }\n\n    function getGoodRides(address clientAdr)\n        public\n        view\n        returns (uint256 goodRidesCount)\n    {\n        Client memory client = clientMapping[clientAdr];\n        return client.goodRides;\n    }\n\n    function getReturned(address clientAdr)\n        public \n        view\n        returns (uint256 returnedAmount)\n    {\n        Client memory client = clientMapping[clientAdr];\n        return client.returned;\n    }\n    \n    function getBikeValue()\n        public\n        view\n        returns (uint256 bikeValue)\n    {\n        return requiredDeposit;\n    }\n\n   function checkBikeStatus (uint256 bikeId)\n        public\n        view\n        returns (bool inUse)\n    {\n        Bike memory bike = bikeMapping[bikeId];\n        return bike.currentlyInUse;\n    }\n\n    function checkBike (uint256 bikeId)\n        public\n        view\n        returns (address lastRenter, bool condition, bool currentlyInUse, uint usageTime, BikeState state)\n    {\n        Bike memory bike = bikeMapping[bikeId];\n        return (bike.lastRenter, bike.condition, bike.currentlyInUse, bike.usageTime, bike.state);\n    }\n\n    \n}",
  "sourcePath": "/Users/HenriYQ/Desktop/final-project-hyqiu/contracts/BikeSharing.sol",
  "compiler": {
    "name": "solc",
    "version": "0.5.0+commit.1d4f565a.Emscripten.clang"
  },
  "schemaVersion": "3.0.0",
  "updatedAt": "2019-01-27T20:52:52.776Z",
  "devdoc": {
    "methods": {
      "calculateFee(uint256)": {
        "details": "Check the fee amount for a certain duration (in minutes) for renting the bike",
        "params": {
          "duration": "length "
        },
        "return": "Fee due "
      },
      "constructor": {
        "details": "Contract constructor sets the bike Admin address, the fee (by minute) and the necessary deposit"
      },
      "getBalance()": {
        "details": "Check how much the contract carries value",
        "return": "Contract balance"
      },
      "getClientCount()": {
        "details": "Count the number of clients ",
        "return": "Number of clients"
      },
      "isBikeFirstUse(uint256)": {
        "details": "Check if the bike is being used for the first time",
        "params": {
          "bikeId": "the ID of a bike"
        },
        "return": "True if the bike has never been used, False otherwise"
      },
      "isClient(address)": {
        "details": "Check if some address is related to a client",
        "params": {
          "clientAdr": "the address of a client"
        },
        "return": "True if the address is a client address"
      },
      "isOwner()": {
        "return": "true if `msg.sender` is the owner of the contract."
      },
      "owner()": {
        "return": "the address of the owner."
      },
      "renounceOwnership()": {
        "details": "Allows the current owner to relinquish control of the contract."
      },
      "rentBike(uint256)": {
        "details": "Someone can rent a bike",
        "params": {
          "bikeId": "the client must input the bike id"
        },
        "return": "Did it succeed ? How many rides did the client make ? "
      },
      "surrenderBike(uint256,bool)": {
        "details": "Someone can stop bike usage",
        "params": {
          "bikeId": "The client must input the bike id "
        },
        "return": "Did it succeed ? "
      },
      "transferOwnership(address)": {
        "details": "Allows the current owner to transfer control of the contract to a newOwner.",
        "params": {
          "newOwner": "The address to transfer ownership to."
        }
      }
    }
  },
  "userdoc": {
    "methods": {
      "renounceOwnership()": {
        "notice": "Renouncing to ownership will leave the contract without an owner. It will not be possible to call the functions with the `onlyOwner` modifier anymore."
      }
    }
  }
}